{
  "_format": "hh-sol-artifact-1",
  "contractName": "YieldFarm",
  "sourceName": "contracts/schemes/YieldFarm.sol",
  "abi": [
    {
      "inputs": [
        {
          "internalType": "uint256",
          "name": "_duration",
          "type": "uint256"
        },
        {
          "internalType": "uint256",
          "name": "_experience",
          "type": "uint256"
        },
        {
          "internalType": "uint256",
          "name": "_chanceOfSuccess",
          "type": "uint256"
        },
        {
          "internalType": "uint256",
          "name": "_baseEarning",
          "type": "uint256"
        },
        {
          "internalType": "uint256",
          "name": "_earningBonus",
          "type": "uint256"
        }
      ],
      "stateMutability": "nonpayable",
      "type": "constructor"
    },
    {
      "anonymous": false,
      "inputs": [
        {
          "indexed": false,
          "internalType": "string",
          "name": "name",
          "type": "string"
        },
        {
          "indexed": false,
          "internalType": "address",
          "name": "who",
          "type": "address"
        },
        {
          "indexed": false,
          "internalType": "uint256",
          "name": "when",
          "type": "uint256"
        }
      ],
      "name": "SchemeStarted",
      "type": "event"
    },
    {
      "inputs": [
        {
          "internalType": "address",
          "name": "_who",
          "type": "address"
        }
      ],
      "name": "complete",
      "outputs": [],
      "stateMutability": "nonpayable",
      "type": "function"
    },
    {
      "inputs": [],
      "name": "duration",
      "outputs": [
        {
          "internalType": "uint256",
          "name": "",
          "type": "uint256"
        }
      ],
      "stateMutability": "view",
      "type": "function"
    },
    {
      "inputs": [],
      "name": "getScheme",
      "outputs": [
        {
          "internalType": "uint256",
          "name": "_duration",
          "type": "uint256"
        },
        {
          "internalType": "string",
          "name": "_name",
          "type": "string"
        }
      ],
      "stateMutability": "view",
      "type": "function"
    },
    {
      "inputs": [
        {
          "internalType": "address",
          "name": "_cashContractAddress",
          "type": "address"
        }
      ],
      "name": "setCashContract",
      "outputs": [],
      "stateMutability": "nonpayable",
      "type": "function"
    },
    {
      "inputs": [
        {
          "internalType": "address",
          "name": "_randomNumberGenerator",
          "type": "address"
        }
      ],
      "name": "setRandomNumberGenerator",
      "outputs": [],
      "stateMutability": "nonpayable",
      "type": "function"
    },
    {
      "inputs": [
        {
          "internalType": "address",
          "name": "_who",
          "type": "address"
        }
      ],
      "name": "start",
      "outputs": [],
      "stateMutability": "nonpayable",
      "type": "function"
    }
  ],
  "bytecode": "0x608060405234801561001057600080fd5b50604051610420380380610420833981810160405260a081101561003357600080fd5b5080516020820151604083015160608401516080909401516000939093556001919091556002556005919091556006556103ae806100726000396000f3fe608060405234801561001057600080fd5b50600436106100625760003560e01c80630fb5a6b41461006757806393af0292146100815780639ecb7c41146100a9578063d07f8a43146100cf578063dd0b281e146100f5578063ff83298a1461011b575b600080fd5b61006f6101a2565b60408051918252519081900360200190f35b6100a76004803603602081101561009757600080fd5b50356001600160a01b03166101a8565b005b6100a7600480360360208110156100bf57600080fd5b50356001600160a01b03166101b6565b6100a7600480360360208110156100e557600080fd5b50356001600160a01b03166101d8565b6100a76004803603602081101561010b57600080fd5b50356001600160a01b03166101fa565b610123610203565b6040518083815260200180602001828103825283818151815260200191508051906020019080838360005b8381101561016657818101518382015260200161014e565b50505050905090810190601f1680156101935780820380516001836020036101000a031916815260200191505b50935050505060405180910390f35b60005481565b6101b381602161021a565b50565b600480546001600160a01b0319166001600160a01b0392909216919091179055565b600380546001600160a01b0319166001600160a01b0392909216919091179055565b6101b38161028f565b60006060600054610212610354565b915091509091565b60048054604080516340c10f1960e01b81526001600160a01b038681169482019490945260248101859052905192909116916340c10f199160448082019260009290919082900301818387803b15801561027357600080fd5b505af1158015610287573d6000803e3d6000fd5b505050505050565b7f770ec39a627afda6de8b8d68f80104e297a2cd74a7544ee4f52b4912705c26086102b8610354565b82426040518080602001846001600160a01b03166001600160a01b03168152602001838152602001828103825285818151815260200191508051906020019080838360005b838110156103155781810151838201526020016102fd565b50505050905090810190601f1680156103425780820380516001836020036101000a031916815260200191505b5094505050505060405180910390a150565b60408051808201909152600a8152695969656c64206661726d60b01b60208201529056fea2646970667358221220091c90487ea14c0ead0179d64fdf497354eca0a96cd0f6a2ce3268a4a38a518564736f6c63430006080033",
  "linkReferences": {},
  "deployedLinkReferences": {}
}