{
  "address": "0x54B8d8E2455946f2A5B8982283f2359812e815ce",
  "abi": [
    {
      "inputs": [],
      "stateMutability": "nonpayable",
      "type": "constructor"
    },
    {
      "anonymous": false,
      "inputs": [
        {
          "indexed": false,
          "internalType": "address",
          "name": "who",
          "type": "address"
        },
        {
          "indexed": false,
          "internalType": "uint256",
          "name": "strengthIncrease",
          "type": "uint256"
        },
        {
          "indexed": false,
          "internalType": "uint256",
          "name": "dexterityIncrease",
          "type": "uint256"
        },
        {
          "indexed": false,
          "internalType": "uint256",
          "name": "defenceIncrease",
          "type": "uint256"
        },
        {
          "indexed": false,
          "internalType": "uint256",
          "name": "constitutionIncrease",
          "type": "uint256"
        }
      ],
      "name": "PlayerBattleStatsUpdated",
      "type": "event"
    },
    {
      "anonymous": false,
      "inputs": [
        {
          "indexed": false,
          "internalType": "address",
          "name": "who",
          "type": "address"
        },
        {
          "indexed": false,
          "internalType": "uint256",
          "name": "degeneracyIncrease",
          "type": "uint256"
        },
        {
          "indexed": false,
          "internalType": "uint256",
          "name": "chadaryIncrease",
          "type": "uint256"
        },
        {
          "indexed": false,
          "internalType": "uint256",
          "name": "unrekableIncrease",
          "type": "uint256"
        }
      ],
      "name": "PlayerFarmingStatsUpdated",
      "type": "event"
    },
    {
      "anonymous": false,
      "inputs": [
        {
          "indexed": true,
          "internalType": "bytes32",
          "name": "role",
          "type": "bytes32"
        },
        {
          "indexed": true,
          "internalType": "bytes32",
          "name": "previousAdminRole",
          "type": "bytes32"
        },
        {
          "indexed": true,
          "internalType": "bytes32",
          "name": "newAdminRole",
          "type": "bytes32"
        }
      ],
      "name": "RoleAdminChanged",
      "type": "event"
    },
    {
      "anonymous": false,
      "inputs": [
        {
          "indexed": true,
          "internalType": "bytes32",
          "name": "role",
          "type": "bytes32"
        },
        {
          "indexed": true,
          "internalType": "address",
          "name": "account",
          "type": "address"
        },
        {
          "indexed": true,
          "internalType": "address",
          "name": "sender",
          "type": "address"
        }
      ],
      "name": "RoleGranted",
      "type": "event"
    },
    {
      "anonymous": false,
      "inputs": [
        {
          "indexed": true,
          "internalType": "bytes32",
          "name": "role",
          "type": "bytes32"
        },
        {
          "indexed": true,
          "internalType": "address",
          "name": "account",
          "type": "address"
        },
        {
          "indexed": true,
          "internalType": "address",
          "name": "sender",
          "type": "address"
        }
      ],
      "name": "RoleRevoked",
      "type": "event"
    },
    {
      "inputs": [],
      "name": "ADMIN",
      "outputs": [
        {
          "internalType": "bytes32",
          "name": "",
          "type": "bytes32"
        }
      ],
      "stateMutability": "view",
      "type": "function"
    },
    {
      "inputs": [],
      "name": "DEFAULT_ADMIN_ROLE",
      "outputs": [
        {
          "internalType": "bytes32",
          "name": "",
          "type": "bytes32"
        }
      ],
      "stateMutability": "view",
      "type": "function"
    },
    {
      "inputs": [],
      "name": "PLAYER_MANAGER",
      "outputs": [
        {
          "internalType": "bytes32",
          "name": "",
          "type": "bytes32"
        }
      ],
      "stateMutability": "view",
      "type": "function"
    },
    {
      "inputs": [
        {
          "internalType": "address",
          "name": "_who",
          "type": "address"
        }
      ],
      "name": "createBasePlayer",
      "outputs": [],
      "stateMutability": "nonpayable",
      "type": "function"
    },
    {
      "inputs": [
        {
          "internalType": "address",
          "name": "_who",
          "type": "address"
        }
      ],
      "name": "getPlayerBattleStats",
      "outputs": [
        {
          "internalType": "uint256",
          "name": "baseStrength",
          "type": "uint256"
        },
        {
          "internalType": "uint256",
          "name": "baseDexterity",
          "type": "uint256"
        },
        {
          "internalType": "uint256",
          "name": "baseDefence",
          "type": "uint256"
        },
        {
          "internalType": "uint256",
          "name": "baseConstitution",
          "type": "uint256"
        }
      ],
      "stateMutability": "view",
      "type": "function"
    },
    {
      "inputs": [
        {
          "internalType": "address",
          "name": "_who",
          "type": "address"
        }
      ],
      "name": "getPlayerFarmingStats",
      "outputs": [
        {
          "internalType": "uint256",
          "name": "_degeneracy",
          "type": "uint256"
        },
        {
          "internalType": "uint256",
          "name": "_chadary",
          "type": "uint256"
        },
        {
          "internalType": "uint256",
          "name": "_unrekable",
          "type": "uint256"
        }
      ],
      "stateMutability": "view",
      "type": "function"
    },
    {
      "inputs": [
        {
          "internalType": "address",
          "name": "_who",
          "type": "address"
        }
      ],
      "name": "getPlayerStats",
      "outputs": [
        {
          "internalType": "uint256",
          "name": "level",
          "type": "uint256"
        },
        {
          "internalType": "uint256",
          "name": "experience",
          "type": "uint256"
        },
        {
          "internalType": "uint256",
          "name": "baseHealth",
          "type": "uint256"
        },
        {
          "internalType": "uint256",
          "name": "currentHealth",
          "type": "uint256"
        },
        {
          "internalType": "bool",
          "name": "isPlayer",
          "type": "bool"
        }
      ],
      "stateMutability": "view",
      "type": "function"
    },
    {
      "inputs": [
        {
          "internalType": "bytes32",
          "name": "role",
          "type": "bytes32"
        }
      ],
      "name": "getRoleAdmin",
      "outputs": [
        {
          "internalType": "bytes32",
          "name": "",
          "type": "bytes32"
        }
      ],
      "stateMutability": "view",
      "type": "function"
    },
    {
      "inputs": [
        {
          "internalType": "bytes32",
          "name": "role",
          "type": "bytes32"
        },
        {
          "internalType": "address",
          "name": "account",
          "type": "address"
        }
      ],
      "name": "grantRole",
      "outputs": [],
      "stateMutability": "nonpayable",
      "type": "function"
    },
    {
      "inputs": [
        {
          "internalType": "bytes32",
          "name": "role",
          "type": "bytes32"
        },
        {
          "internalType": "address",
          "name": "account",
          "type": "address"
        }
      ],
      "name": "hasRole",
      "outputs": [
        {
          "internalType": "bool",
          "name": "",
          "type": "bool"
        }
      ],
      "stateMutability": "view",
      "type": "function"
    },
    {
      "inputs": [
        {
          "internalType": "address",
          "name": "_who",
          "type": "address"
        },
        {
          "internalType": "uint256",
          "name": "_strength",
          "type": "uint256"
        },
        {
          "internalType": "uint256",
          "name": "_dexterity",
          "type": "uint256"
        },
        {
          "internalType": "uint256",
          "name": "_defence",
          "type": "uint256"
        },
        {
          "internalType": "uint256",
          "name": "_constitution",
          "type": "uint256"
        }
      ],
      "name": "increaseBattleStats",
      "outputs": [],
      "stateMutability": "nonpayable",
      "type": "function"
    },
    {
      "inputs": [
        {
          "internalType": "address",
          "name": "_who",
          "type": "address"
        },
        {
          "internalType": "uint256",
          "name": "_chadary",
          "type": "uint256"
        },
        {
          "internalType": "uint256",
          "name": "_degeneracy",
          "type": "uint256"
        },
        {
          "internalType": "uint256",
          "name": "_unrekable",
          "type": "uint256"
        }
      ],
      "name": "increaseFarmingStats",
      "outputs": [],
      "stateMutability": "nonpayable",
      "type": "function"
    },
    {
      "inputs": [],
      "name": "playerManager",
      "outputs": [
        {
          "internalType": "address",
          "name": "",
          "type": "address"
        }
      ],
      "stateMutability": "view",
      "type": "function"
    },
    {
      "inputs": [
        {
          "internalType": "bytes32",
          "name": "role",
          "type": "bytes32"
        },
        {
          "internalType": "address",
          "name": "account",
          "type": "address"
        }
      ],
      "name": "renounceRole",
      "outputs": [],
      "stateMutability": "nonpayable",
      "type": "function"
    },
    {
      "inputs": [
        {
          "internalType": "bytes32",
          "name": "role",
          "type": "bytes32"
        },
        {
          "internalType": "address",
          "name": "account",
          "type": "address"
        }
      ],
      "name": "revokeRole",
      "outputs": [],
      "stateMutability": "nonpayable",
      "type": "function"
    },
    {
      "inputs": [
        {
          "internalType": "address",
          "name": "_playerManager",
          "type": "address"
        }
      ],
      "name": "setPlayerManager",
      "outputs": [],
      "stateMutability": "nonpayable",
      "type": "function"
    },
    {
      "inputs": [
        {
          "internalType": "bytes4",
          "name": "interfaceId",
          "type": "bytes4"
        }
      ],
      "name": "supportsInterface",
      "outputs": [
        {
          "internalType": "bool",
          "name": "",
          "type": "bool"
        }
      ],
      "stateMutability": "view",
      "type": "function"
    }
  ],
  "transactionHash": "0x0956660f339b265c05a34e72fa72c061f9d3ee0ce39202d343a186bca590e4eb",
  "args": [],
  "numDeployments": 1,
  "solcInputHash": "37b95ca224cde79ad518368e637cbc4f",
  "bytecode": "0x608060405234801561001057600080fd5b5061002960008051602061128283398151915233610066565b6100617fbea3dc2cfb254f821d5674bb49272a241e44cf76c754fddc24aa28318f0800a0600080516020611282833981519152610074565b61015d565b61007082826100bf565b5050565b600082815260208190526040808220600101805490849055905190918391839186917fbd79b86ffe0ab8e8776151514217cd7cacd52c909f66475c3af44e129f0b00ff9190a4505050565b6000828152602081815260408083206001600160a01b038516845290915290205460ff16610070576000828152602081815260408083206001600160a01b03851684529091529020805460ff191660011790556101193390565b6001600160a01b0316816001600160a01b0316837f2f8788117e7eff1d82e926ec794901d17c78024a50270940304540a733656f0d60405160405180910390a45050565b6111168061016c6000396000f3fe608060405234801561001057600080fd5b506004361061010b5760003560e01c80634fd66eae116100a2578063a4b4eba511610071578063a4b4eba51461033b578063ab53bf011461034e578063d547741f146103d2578063e450458b146103e5578063ee06402c146103f857600080fd5b80634fd66eae146101f357806391d14854146102f55780639cdac8b814610308578063a217fddf1461033357600080fd5b80632f2ff15d116100de5780632f2ff15d146101a557806336568abe146101b8578063430eaf91146101cb5780634ae76f78146101e057600080fd5b806301ffc9a71461011057806306d10ad414610138578063248a9ca31461014d5780632a0acc6a1461017e575b600080fd5b61012361011e366004610e0b565b610469565b60405190151581526020015b60405180910390f35b61014b610146366004610e51565b6104a0565b005b61017061015b366004610e6c565b60009081526020819052604090206001015490565b60405190815260200161012f565b6101707fdf8b4c520ffe197c5343c6f5aec59570151ef9a492f2c624fd45ddde6135ec4281565b61014b6101b3366004610e85565b610522565b61014b6101c6366004610e85565b61054c565b6101706000805160206110c183398151915281565b61014b6101ee366004610eb1565b6105ca565b6102cb610201366004610e51565b6001600160a01b0316600090815260016020818152604092839020835160e0810185528154815292810154838301908152600282015484860190815260038301546060808701918252600485015460ff161515608080890191825289519081018a52600587015481526006870154818901526007870154818b015260088701548184015260a08901528851918201895260098601548252600a86015496820196909652600b909401549684019690965260c085019290925292519251905193519151929490939290565b6040805195865260208601949094529284019190915260608301521515608082015260a00161012f565b610123610303366004610e85565b610791565b60025461031b906001600160a01b031681565b6040516001600160a01b03909116815260200161012f565b610170600081565b61014b610349366004610ef3565b6107ba565b6103b261035c366004610e51565b6001600160a01b0316600090815260016020908152604091829020825160808101845260058201548082526006830154938201849052600783015494820185905260089092015460609091018190529093919291565b60408051948552602085019390935291830152606082015260800161012f565b61014b6103e0366004610e85565b61094b565b61014b6103f3366004610e51565b610970565b61044e610406366004610e51565b6001600160a01b031660009081526001602090815260409182902082516060810184526009820154808252600a830154938201849052600b9092015493018390529092909190565b6040805193845260208401929092529082015260600161012f565b60006001600160e01b03198216637965db0b60e01b148061049a57506301ffc9a760e01b6001600160e01b03198316145b92915050565b6104ca7fdf8b4c520ffe197c5343c6f5aec59570151ef9a492f2c624fd45ddde6135ec4233610791565b6105075760405162461bcd60e51b81526020600482015260096024820152682737ba1020b236b4b760b91b60448201526064015b60405180910390fd5b61051f6000805160206110c183398151915282610522565b50565b60008281526020819052604090206001015461053d81610b05565b6105478383610b0f565b505050565b6001600160a01b03811633146105bc5760405162461bcd60e51b815260206004820152602f60248201527f416363657373436f6e74726f6c3a2063616e206f6e6c792072656e6f756e636560448201526e103937b632b9903337b91039b2b63360891b60648201526084016104fe565b6105c68282610b93565b5050565b6105e26000805160206110c183398151915233610791565b6105fe5760405162461bcd60e51b81526004016104fe90610f2c565b6001600160a01b038516600090815260016020526040902060040154859060ff166106625760405162461bcd60e51b8152602060048201526014602482015273141b185e595c88191bd95cdb89dd08195e1a5cdd60621b60448201526064016104fe565b604080516001600160a01b03881681526020810187905290810185905260608101849052608081018390527fda4b4e006229be2448ea9cc62c4bd49ad1269e0b3c1f455e06a153728fb1351f9060a00160405180910390a16001600160a01b0386166000908152600160205260409020600501546106e09086610bf8565b6001600160a01b038716600090815260016020526040902060058101919091556006015461070e9085610bf8565b6001600160a01b038716600090815260016020526040902060068101919091556007015461073c9084610bf8565b6001600160a01b038716600090815260016020526040902060078101919091556008015461076a9083610bf8565b6001600160a01b039096166000908152600160205260409020600801959095555050505050565b6000918252602082815260408084206001600160a01b0393909316845291905290205460ff1690565b6107d26000805160206110c183398151915233610791565b6107ee5760405162461bcd60e51b81526004016104fe90610f2c565b6001600160a01b038416600090815260016020526040902060040154849060ff166108525760405162461bcd60e51b8152602060048201526014602482015273141b185e595c88191bd95cdb89dd08195e1a5cdd60621b60448201526064016104fe565b604080516001600160a01b038716815260208101869052908101849052606081018390527fc083fe3d02e9abad439ee915770da2cf55604bf7186d581657d46eadb84918689060800160405180910390a16001600160a01b0385166000908152600160205260409020600901546108c99085610bf8565b6001600160a01b03861660009081526001602052604090206009810191909155600a01546108f79084610bf8565b6001600160a01b0386166000908152600160205260409020600a810191909155600b01546109259083610bf8565b6001600160a01b039095166000908152600160205260409020600b019490945550505050565b60008281526020819052604090206001015461096681610b05565b6105478383610b93565b6001600160a01b038116600090815260016020526040902060040154819060ff16156109d65760405162461bcd60e51b8152602060048201526015602482015274506c6179657220616c72656164792065786973747360581b60448201526064016104fe565b6109ee6000805160206110c183398151915233610791565b610a0a5760405162461bcd60e51b81526004016104fe90610f2c565b5060408051608080820183526801158e460913d000008083526020808401829052838501829052606080850192909252845180830186526000808252818301819052818701819052865160e08101885260018082528185018381526064838b0181815284890191825298840183815260a085019a8b5260c085019687526001600160a01b039c909c168552828752938a902092518355519082015594516002860155516003850155955160048401805460ff19169115159190911790559251805160058401558084015160068401558085015160078401550151600882015592518051600985015590810151600a8401550151600b90910155565b61051f8133610c0b565b610b198282610791565b6105c6576000828152602081815260408083206001600160a01b03851684529091529020805460ff19166001179055610b4f3390565b6001600160a01b0316816001600160a01b0316837f2f8788117e7eff1d82e926ec794901d17c78024a50270940304540a733656f0d60405160405180910390a45050565b610b9d8282610791565b156105c6576000828152602081815260408083206001600160a01b0385168085529252808320805460ff1916905551339285917ff6391f5c32d9c69d2a47ea670b442974b53935d1edc7fd64eb21e047a839171b9190a45050565b6000610c048284610f6e565b9392505050565b610c158282610791565b6105c657610c2d816001600160a01b03166014610c6f565b610c38836020610c6f565b604051602001610c49929190610fb6565b60408051601f198184030181529082905262461bcd60e51b82526104fe9160040161102b565b60606000610c7e83600261105e565b610c89906002610f6e565b67ffffffffffffffff811115610ca157610ca161107d565b6040519080825280601f01601f191660200182016040528015610ccb576020820181803683370190505b509050600360fc1b81600081518110610ce657610ce6611093565b60200101906001600160f81b031916908160001a905350600f60fb1b81600181518110610d1557610d15611093565b60200101906001600160f81b031916908160001a9053506000610d3984600261105e565b610d44906001610f6e565b90505b6001811115610dbc576f181899199a1a9b1b9c1cb0b131b232b360811b85600f1660108110610d7857610d78611093565b1a60f81b828281518110610d8e57610d8e611093565b60200101906001600160f81b031916908160001a90535060049490941c93610db5816110a9565b9050610d47565b508315610c045760405162461bcd60e51b815260206004820181905260248201527f537472696e67733a20686578206c656e67746820696e73756666696369656e7460448201526064016104fe565b600060208284031215610e1d57600080fd5b81356001600160e01b031981168114610c0457600080fd5b80356001600160a01b0381168114610e4c57600080fd5b919050565b600060208284031215610e6357600080fd5b610c0482610e35565b600060208284031215610e7e57600080fd5b5035919050565b60008060408385031215610e9857600080fd5b82359150610ea860208401610e35565b90509250929050565b600080600080600060a08688031215610ec957600080fd5b610ed286610e35565b97602087013597506040870135966060810135965060800135945092505050565b60008060008060808587031215610f0957600080fd5b610f1285610e35565b966020860135965060408601359560600135945092505050565b6020808252601290820152712737ba10283630bcb2b91026b0b730b3b2b960711b604082015260600190565b634e487b7160e01b600052601160045260246000fd5b60008219821115610f8157610f81610f58565b500190565b60005b83811015610fa1578181015183820152602001610f89565b83811115610fb0576000848401525b50505050565b7f416363657373436f6e74726f6c3a206163636f756e7420000000000000000000815260008351610fee816017850160208801610f86565b7001034b99036b4b9b9b4b733903937b6329607d1b601791840191820152835161101f816028840160208801610f86565b01602801949350505050565b602081526000825180602084015261104a816040850160208701610f86565b601f01601f19169190910160400192915050565b600081600019048311821515161561107857611078610f58565b500290565b634e487b7160e01b600052604160045260246000fd5b634e487b7160e01b600052603260045260246000fd5b6000816110b8576110b8610f58565b50600019019056febea3dc2cfb254f821d5674bb49272a241e44cf76c754fddc24aa28318f0800a0a26469706673582212207aceadd7750a86996da32b16836038f8c1c19008fa5b9be71f1733be80779bd164736f6c63430008090033df8b4c520ffe197c5343c6f5aec59570151ef9a492f2c624fd45ddde6135ec42",
  "devdoc": {
    "kind": "dev",
    "methods": {
      "getRoleAdmin(bytes32)": {
        "details": "Returns the admin role that controls `role`. See {grantRole} and {revokeRole}. To change a role's admin, use {_setRoleAdmin}."
      },
      "grantRole(bytes32,address)": {
        "details": "Grants `role` to `account`. If `account` had not been already granted `role`, emits a {RoleGranted} event. Requirements: - the caller must have ``role``'s admin role."
      },
      "hasRole(bytes32,address)": {
        "details": "Returns `true` if `account` has been granted `role`."
      },
      "renounceRole(bytes32,address)": {
        "details": "Revokes `role` from the calling account. Roles are often managed via {grantRole} and {revokeRole}: this function's purpose is to provide a mechanism for accounts to lose their privileges if they are compromised (such as when a trusted device is misplaced). If the calling account had been revoked `role`, emits a {RoleRevoked} event. Requirements: - the caller must be `account`."
      },
      "revokeRole(bytes32,address)": {
        "details": "Revokes `role` from `account`. If `account` had been granted `role`, emits a {RoleRevoked} event. Requirements: - the caller must have ``role``'s admin role."
      },
      "supportsInterface(bytes4)": {
        "details": "See {IERC165-supportsInterface}."
      }
    },
    "version": 1
  },
  "userdoc": {
    "kind": "user",
    "methods": {},
    "version": 1
  },
  "storageLayout": {
    "storage": [
      {
        "astId": 24,
        "contract": "contracts/player/PlayerStats.sol:PlayerStats",
        "label": "_roles",
        "offset": 0,
        "slot": "0",
        "type": "t_mapping(t_bytes32,t_struct(RoleData)19_storage)"
      },
      {
        "astId": 4475,
        "contract": "contracts/player/PlayerStats.sol:PlayerStats",
        "label": "playerStats",
        "offset": 0,
        "slot": "1",
        "type": "t_mapping(t_address,t_struct(Stats)4454_storage)"
      },
      {
        "astId": 4477,
        "contract": "contracts/player/PlayerStats.sol:PlayerStats",
        "label": "playerManager",
        "offset": 0,
        "slot": "2",
        "type": "t_address"
      }
    ],
    "types": {
      "t_address": {
        "encoding": "inplace",
        "label": "address",
        "numberOfBytes": "20"
      },
      "t_bool": {
        "encoding": "inplace",
        "label": "bool",
        "numberOfBytes": "1"
      },
      "t_bytes32": {
        "encoding": "inplace",
        "label": "bytes32",
        "numberOfBytes": "32"
      },
      "t_mapping(t_address,t_bool)": {
        "encoding": "mapping",
        "key": "t_address",
        "label": "mapping(address => bool)",
        "numberOfBytes": "32",
        "value": "t_bool"
      },
      "t_mapping(t_address,t_struct(Stats)4454_storage)": {
        "encoding": "mapping",
        "key": "t_address",
        "label": "mapping(address => struct PlayerStats.Stats)",
        "numberOfBytes": "32",
        "value": "t_struct(Stats)4454_storage"
      },
      "t_mapping(t_bytes32,t_struct(RoleData)19_storage)": {
        "encoding": "mapping",
        "key": "t_bytes32",
        "label": "mapping(bytes32 => struct AccessControl.RoleData)",
        "numberOfBytes": "32",
        "value": "t_struct(RoleData)19_storage"
      },
      "t_struct(BattleStats)4463_storage": {
        "encoding": "inplace",
        "label": "struct PlayerStats.BattleStats",
        "members": [
          {
            "astId": 4456,
            "contract": "contracts/player/PlayerStats.sol:PlayerStats",
            "label": "baseStrength",
            "offset": 0,
            "slot": "0",
            "type": "t_uint256"
          },
          {
            "astId": 4458,
            "contract": "contracts/player/PlayerStats.sol:PlayerStats",
            "label": "baseDexterity",
            "offset": 0,
            "slot": "1",
            "type": "t_uint256"
          },
          {
            "astId": 4460,
            "contract": "contracts/player/PlayerStats.sol:PlayerStats",
            "label": "baseDefence",
            "offset": 0,
            "slot": "2",
            "type": "t_uint256"
          },
          {
            "astId": 4462,
            "contract": "contracts/player/PlayerStats.sol:PlayerStats",
            "label": "baseConstitution",
            "offset": 0,
            "slot": "3",
            "type": "t_uint256"
          }
        ],
        "numberOfBytes": "128"
      },
      "t_struct(FarmingStats)4470_storage": {
        "encoding": "inplace",
        "label": "struct PlayerStats.FarmingStats",
        "members": [
          {
            "astId": 4465,
            "contract": "contracts/player/PlayerStats.sol:PlayerStats",
            "label": "chadary",
            "offset": 0,
            "slot": "0",
            "type": "t_uint256"
          },
          {
            "astId": 4467,
            "contract": "contracts/player/PlayerStats.sol:PlayerStats",
            "label": "degeneracy",
            "offset": 0,
            "slot": "1",
            "type": "t_uint256"
          },
          {
            "astId": 4469,
            "contract": "contracts/player/PlayerStats.sol:PlayerStats",
            "label": "unrekable",
            "offset": 0,
            "slot": "2",
            "type": "t_uint256"
          }
        ],
        "numberOfBytes": "96"
      },
      "t_struct(RoleData)19_storage": {
        "encoding": "inplace",
        "label": "struct AccessControl.RoleData",
        "members": [
          {
            "astId": 16,
            "contract": "contracts/player/PlayerStats.sol:PlayerStats",
            "label": "members",
            "offset": 0,
            "slot": "0",
            "type": "t_mapping(t_address,t_bool)"
          },
          {
            "astId": 18,
            "contract": "contracts/player/PlayerStats.sol:PlayerStats",
            "label": "adminRole",
            "offset": 0,
            "slot": "1",
            "type": "t_bytes32"
          }
        ],
        "numberOfBytes": "64"
      },
      "t_struct(Stats)4454_storage": {
        "encoding": "inplace",
        "label": "struct PlayerStats.Stats",
        "members": [
          {
            "astId": 4439,
            "contract": "contracts/player/PlayerStats.sol:PlayerStats",
            "label": "level",
            "offset": 0,
            "slot": "0",
            "type": "t_uint256"
          },
          {
            "astId": 4441,
            "contract": "contracts/player/PlayerStats.sol:PlayerStats",
            "label": "experience",
            "offset": 0,
            "slot": "1",
            "type": "t_uint256"
          },
          {
            "astId": 4443,
            "contract": "contracts/player/PlayerStats.sol:PlayerStats",
            "label": "baseHealth",
            "offset": 0,
            "slot": "2",
            "type": "t_uint256"
          },
          {
            "astId": 4445,
            "contract": "contracts/player/PlayerStats.sol:PlayerStats",
            "label": "currentHealth",
            "offset": 0,
            "slot": "3",
            "type": "t_uint256"
          },
          {
            "astId": 4447,
            "contract": "contracts/player/PlayerStats.sol:PlayerStats",
            "label": "isPlayer",
            "offset": 0,
            "slot": "4",
            "type": "t_bool"
          },
          {
            "astId": 4450,
            "contract": "contracts/player/PlayerStats.sol:PlayerStats",
            "label": "battleStats",
            "offset": 0,
            "slot": "5",
            "type": "t_struct(BattleStats)4463_storage"
          },
          {
            "astId": 4453,
            "contract": "contracts/player/PlayerStats.sol:PlayerStats",
            "label": "farmingStats",
            "offset": 0,
            "slot": "9",
            "type": "t_struct(FarmingStats)4470_storage"
          }
        ],
        "numberOfBytes": "384"
      },
      "t_uint256": {
        "encoding": "inplace",
        "label": "uint256",
        "numberOfBytes": "32"
      }
    }
  }
}