{
  "address": "0xCf7Ed3AccA5a467e9e704C703E8D87F634fB0Fc9",
  "abi": [
    {
      "inputs": [],
      "stateMutability": "nonpayable",
      "type": "constructor"
    },
    {
      "anonymous": false,
      "inputs": [
        {
          "indexed": true,
          "internalType": "bytes32",
          "name": "role",
          "type": "bytes32"
        },
        {
          "indexed": true,
          "internalType": "bytes32",
          "name": "previousAdminRole",
          "type": "bytes32"
        },
        {
          "indexed": true,
          "internalType": "bytes32",
          "name": "newAdminRole",
          "type": "bytes32"
        }
      ],
      "name": "RoleAdminChanged",
      "type": "event"
    },
    {
      "anonymous": false,
      "inputs": [
        {
          "indexed": true,
          "internalType": "bytes32",
          "name": "role",
          "type": "bytes32"
        },
        {
          "indexed": true,
          "internalType": "address",
          "name": "account",
          "type": "address"
        },
        {
          "indexed": true,
          "internalType": "address",
          "name": "sender",
          "type": "address"
        }
      ],
      "name": "RoleGranted",
      "type": "event"
    },
    {
      "anonymous": false,
      "inputs": [
        {
          "indexed": true,
          "internalType": "bytes32",
          "name": "role",
          "type": "bytes32"
        },
        {
          "indexed": true,
          "internalType": "address",
          "name": "account",
          "type": "address"
        },
        {
          "indexed": true,
          "internalType": "address",
          "name": "sender",
          "type": "address"
        }
      ],
      "name": "RoleRevoked",
      "type": "event"
    },
    {
      "inputs": [],
      "name": "ADMIN",
      "outputs": [
        {
          "internalType": "bytes32",
          "name": "",
          "type": "bytes32"
        }
      ],
      "stateMutability": "view",
      "type": "function"
    },
    {
      "inputs": [],
      "name": "CASH_SPENDER",
      "outputs": [
        {
          "internalType": "bytes32",
          "name": "",
          "type": "bytes32"
        }
      ],
      "stateMutability": "view",
      "type": "function"
    },
    {
      "inputs": [],
      "name": "DEFAULT_ADMIN_ROLE",
      "outputs": [
        {
          "internalType": "bytes32",
          "name": "",
          "type": "bytes32"
        }
      ],
      "stateMutability": "view",
      "type": "function"
    },
    {
      "inputs": [],
      "name": "create",
      "outputs": [],
      "stateMutability": "nonpayable",
      "type": "function"
    },
    {
      "inputs": [
        {
          "internalType": "uint256",
          "name": "_amount",
          "type": "uint256"
        }
      ],
      "name": "depositCash",
      "outputs": [],
      "stateMutability": "nonpayable",
      "type": "function"
    },
    {
      "inputs": [
        {
          "internalType": "address",
          "name": "_who",
          "type": "address"
        }
      ],
      "name": "getBalance",
      "outputs": [
        {
          "internalType": "uint256",
          "name": "",
          "type": "uint256"
        }
      ],
      "stateMutability": "view",
      "type": "function"
    },
    {
      "inputs": [
        {
          "internalType": "bytes32",
          "name": "role",
          "type": "bytes32"
        }
      ],
      "name": "getRoleAdmin",
      "outputs": [
        {
          "internalType": "bytes32",
          "name": "",
          "type": "bytes32"
        }
      ],
      "stateMutability": "view",
      "type": "function"
    },
    {
      "inputs": [
        {
          "internalType": "bytes32",
          "name": "role",
          "type": "bytes32"
        },
        {
          "internalType": "uint256",
          "name": "index",
          "type": "uint256"
        }
      ],
      "name": "getRoleMember",
      "outputs": [
        {
          "internalType": "address",
          "name": "",
          "type": "address"
        }
      ],
      "stateMutability": "view",
      "type": "function"
    },
    {
      "inputs": [
        {
          "internalType": "bytes32",
          "name": "role",
          "type": "bytes32"
        }
      ],
      "name": "getRoleMemberCount",
      "outputs": [
        {
          "internalType": "uint256",
          "name": "",
          "type": "uint256"
        }
      ],
      "stateMutability": "view",
      "type": "function"
    },
    {
      "inputs": [
        {
          "internalType": "bytes32",
          "name": "role",
          "type": "bytes32"
        },
        {
          "internalType": "address",
          "name": "account",
          "type": "address"
        }
      ],
      "name": "grantRole",
      "outputs": [],
      "stateMutability": "nonpayable",
      "type": "function"
    },
    {
      "inputs": [
        {
          "internalType": "bytes32",
          "name": "role",
          "type": "bytes32"
        },
        {
          "internalType": "address",
          "name": "account",
          "type": "address"
        }
      ],
      "name": "hasRole",
      "outputs": [
        {
          "internalType": "bool",
          "name": "",
          "type": "bool"
        }
      ],
      "stateMutability": "view",
      "type": "function"
    },
    {
      "inputs": [
        {
          "internalType": "address",
          "name": "_who",
          "type": "address"
        }
      ],
      "name": "isPlayer",
      "outputs": [
        {
          "internalType": "bool",
          "name": "",
          "type": "bool"
        }
      ],
      "stateMutability": "view",
      "type": "function"
    },
    {
      "inputs": [
        {
          "internalType": "bytes32",
          "name": "role",
          "type": "bytes32"
        },
        {
          "internalType": "address",
          "name": "account",
          "type": "address"
        }
      ],
      "name": "renounceRole",
      "outputs": [],
      "stateMutability": "nonpayable",
      "type": "function"
    },
    {
      "inputs": [
        {
          "internalType": "bytes32",
          "name": "role",
          "type": "bytes32"
        },
        {
          "internalType": "address",
          "name": "account",
          "type": "address"
        }
      ],
      "name": "revokeRole",
      "outputs": [],
      "stateMutability": "nonpayable",
      "type": "function"
    },
    {
      "inputs": [
        {
          "internalType": "address",
          "name": "_cashAddress",
          "type": "address"
        }
      ],
      "name": "setCashAddress",
      "outputs": [],
      "stateMutability": "nonpayable",
      "type": "function"
    },
    {
      "inputs": [
        {
          "internalType": "address",
          "name": "_who",
          "type": "address"
        }
      ],
      "name": "setCashSpender",
      "outputs": [],
      "stateMutability": "nonpayable",
      "type": "function"
    },
    {
      "inputs": [
        {
          "internalType": "address",
          "name": "_playerStats",
          "type": "address"
        }
      ],
      "name": "setPlayerStatsAddress",
      "outputs": [],
      "stateMutability": "nonpayable",
      "type": "function"
    },
    {
      "inputs": [
        {
          "internalType": "address",
          "name": "_who",
          "type": "address"
        },
        {
          "internalType": "uint256",
          "name": "_amount",
          "type": "uint256"
        }
      ],
      "name": "spendCash",
      "outputs": [],
      "stateMutability": "nonpayable",
      "type": "function"
    }
  ],
  "transactionHash": "0x9a7e551f8fff21eb4823309586f8452b95991591149311304d19887a3899a8d0",
  "args": [],
  "solcInputHash": "95edde3b810702dab6b59778bcd41322",
  "bytecode": "0x60806040523480156200001157600080fd5b50604080516420a226a4a760d91b815290519081900360050190206200004190336001600160e01b036200009316565b604080516b21a0a9a42fa9a822a72222a960a11b8152815190819003600c0181206420a226a4a760d91b825291519081900360050190206200008d91906001600160e01b03620000ac16565b6200021d565b620000a882826001600160e01b03620000fe16565b5050565b600082815260208190526040808220600201549051839285917fbd79b86ffe0ab8e8776151514217cd7cacd52c909f66475c3af44e129f0b00ff9190a460009182526020829052604090912060020155565b6000828152602081815260409091206200012391839062000b1d62000180821b17901c565b15620000a8576200013c6001600160e01b03620001a916565b6001600160a01b0316816001600160a01b0316837f2f8788117e7eff1d82e926ec794901d17c78024a50270940304540a733656f0d60405160405180910390a45050565b6000620001a0836001600160a01b0384166001600160e01b03620001ad16565b90505b92915050565b3390565b6000620001c483836001600160e01b036200020516565b620001fc57508154600181810184556000848152602080822090930184905584548482528286019093526040902091909155620001a3565b506000620001a3565b60009081526001919091016020526040902054151590565b610ffe806200022d6000396000f3fe608060405234801561001057600080fd5b50600436106101165760003560e01c806391d14854116100a2578063ca15c87311610071578063ca15c873146102f0578063cabdae7b1461030d578063d547741f14610339578063efc81a8c14610365578063f8b2cb4f1461036d57610116565b806391d1485414610270578063a217fddf1461029c578063bdf752bb146102a4578063c1717197146102ca57610116565b80632f2ff15d116100e95780632f2ff15d1461019457806336568abe146101c25780633743089a146101ee5780633fdcc03c146102145780639010d07c1461023157610116565b806309c95e101461011b57806311b1b28514610155578063248a9ca31461016f5780632a0acc6a1461018c575b600080fd5b6101416004803603602081101561013157600080fd5b50356001600160a01b0316610393565b604080519115158252519081900360200190f35b61015d6103b1565b60408051918252519081900360200190f35b61015d6004803603602081101561018557600080fd5b50356103d5565b61015d6103ea565b6101c0600480360360408110156101aa57600080fd5b50803590602001356001600160a01b0316610407565b005b6101c0600480360360408110156101d857600080fd5b50803590602001356001600160a01b0316610473565b6101c06004803603602081101561020457600080fd5b50356001600160a01b03166104d4565b6101c06004803603602081101561022a57600080fd5b5035610563565b6102546004803603604081101561024757600080fd5b508035906020013561072f565b604080516001600160a01b039092168252519081900360200190f35b6101416004803603604081101561028657600080fd5b50803590602001356001600160a01b0316610756565b61015d610774565b6101c0600480360360208110156102ba57600080fd5b50356001600160a01b0316610779565b6101c0600480360360208110156102e057600080fd5b50356001600160a01b03166107fc565b61015d6004803603602081101561030657600080fd5b503561087f565b6101c06004803603604081101561032357600080fd5b506001600160a01b038135169060200135610896565b6101c06004803603604081101561034f57600080fd5b50803590602001356001600160a01b03166109ca565b6101c0610a23565b61015d6004803603602081101561038357600080fd5b50356001600160a01b0316610b02565b6001600160a01b031660009081526001602052604090205460ff1690565b604080516b21a0a9a42fa9a822a72222a960a11b8152905190819003600c01902081565b60009081526020819052604090206002015490565b604080516420a226a4a760d91b8152905190819003600501902081565b60008281526020819052604090206002015461042a90610425610b32565b610756565b6104655760405162461bcd60e51b815260040180806020018281038252602f815260200180610f3b602f913960400191505060405180910390fd5b61046f8282610b36565b5050565b61047b610b32565b6001600160a01b0316816001600160a01b0316146104ca5760405162461bcd60e51b815260040180806020018281038252602f815260200180610f9a602f913960400191505060405180910390fd5b61046f8282610ba5565b604080516420a226a4a760d91b815290519081900360050190206104f89033610756565b610535576040805162461bcd60e51b81526020600482015260096024820152682737ba1020b236b4b760b91b604482015290519081900360640190fd5b604080516b21a0a9a42fa9a822a72222a960a11b8152905190819003600c0190206105609082610407565b50565b3361056d81610393565b6105b7576040805162461bcd60e51b81526020600482015260166024820152751058d8dbdd5b9d08191bd95cc81b9bdd08195e1a5cdd60521b604482015290519081900360640190fd5b600354604080516370a0823160e01b8152336004820152905184926001600160a01b0316916370a08231916024808301926020929190829003018186803b15801561060157600080fd5b505afa158015610615573d6000803e3d6000fd5b505050506040513d602081101561062b57600080fd5b50511015610675576040805162461bcd60e51b8152602060048201526012602482015271496e73756666696369656e742066756e647360701b604482015290519081900360640190fd5b600354604080516323b872dd60e01b81523360048201523060248201526044810185905290516001600160a01b03909216916323b872dd916064808201926020929091908290030181600087803b1580156106cf57600080fd5b505af11580156106e3573d6000803e3d6000fd5b505050506040513d60208110156106f957600080fd5b50503360009081526002602052604090205461071b908363ffffffff610c1416565b336000908152600260205260409020555050565b600082815260208190526040812061074d908363ffffffff610c6e16565b90505b92915050565b600082815260208190526040812061074d908363ffffffff610c7a16565b600081565b604080516420a226a4a760d91b8152905190819003600501902061079d9033610756565b6107da576040805162461bcd60e51b81526020600482015260096024820152682737ba1020b236b4b760b91b604482015290519081900360640190fd5b600380546001600160a01b0319166001600160a01b0392909216919091179055565b604080516420a226a4a760d91b815290519081900360050190206108209033610756565b61085d576040805162461bcd60e51b81526020600482015260096024820152682737ba1020b236b4b760b91b604482015290519081900360640190fd5b600480546001600160a01b0319166001600160a01b0392909216919091179055565b600081815260208190526040812061075090610c8f565b604080516b21a0a9a42fa9a822a72222a960a11b8152905190819003600c0190206108c19033610756565b610905576040805162461bcd60e51b815260206004820152601060248201526f2737ba1021b0b9b41029b832b73232b960811b604482015290519081900360640190fd5b6001600160a01b03821660009081526002602052604090205481111561092a57600080fd5b6001600160a01b038216600090815260026020526040902054610953908263ffffffff610c9a16565b6001600160a01b03808416600090815260026020526040808220939093556003548351630852cd8d60e31b81526004810186905293519216926342966c68926024808301939282900301818387803b1580156109ae57600080fd5b505af11580156109c2573d6000803e3d6000fd5b505050505050565b6000828152602081905260409020600201546109e890610425610b32565b6104ca5760405162461bcd60e51b8152600401808060200182810382526030815260200180610f6a6030913960400191505060405180910390fd5b610a2c33610393565b15610a77576040805162461bcd60e51b81526020600482015260166024820152754163636f756e7420616c72656164792065786973747360501b604482015290519081900360640190fd5b336000818152600160208181526040808420805460ff19169093179092556002905280822082905560048054825163e450458b60e01b81529182019490945290516001600160a01b039093169263e450458b9260248084019391929182900301818387803b158015610ae857600080fd5b505af1158015610afc573d6000803e3d6000fd5b50505050565b6001600160a01b031660009081526002602052604090205490565b600061074d836001600160a01b038416610cdc565b3390565b6000828152602081905260409020610b54908263ffffffff610b1d16565b1561046f57610b61610b32565b6001600160a01b0316816001600160a01b0316837f2f8788117e7eff1d82e926ec794901d17c78024a50270940304540a733656f0d60405160405180910390a45050565b6000828152602081905260409020610bc3908263ffffffff610d2616565b1561046f57610bd0610b32565b6001600160a01b0316816001600160a01b0316837ff6391f5c32d9c69d2a47ea670b442974b53935d1edc7fd64eb21e047a839171b60405160405180910390a45050565b60008282018381101561074d576040805162461bcd60e51b815260206004820152601b60248201527f536166654d6174683a206164646974696f6e206f766572666c6f770000000000604482015290519081900360640190fd5b600061074d8383610d3b565b600061074d836001600160a01b038416610d9f565b600061075082610db7565b600061074d83836040518060400160405280601e81526020017f536166654d6174683a207375627472616374696f6e206f766572666c6f770000815250610dbb565b6000610ce88383610d9f565b610d1e57508154600181810184556000848152602080822090930184905584548482528286019093526040902091909155610750565b506000610750565b600061074d836001600160a01b038416610e52565b81546000908210610d7d5760405162461bcd60e51b8152600401808060200182810382526022815260200180610f196022913960400191505060405180910390fd5b826000018281548110610d8c57fe5b9060005260206000200154905092915050565b60009081526001919091016020526040902054151590565b5490565b60008184841115610e4a5760405162461bcd60e51b81526004018080602001828103825283818151815260200191508051906020019080838360005b83811015610e0f578181015183820152602001610df7565b50505050905090810190601f168015610e3c5780820380516001836020036101000a031916815260200191505b509250505060405180910390fd5b505050900390565b60008181526001830160205260408120548015610f0e5783546000198083019190810190600090879083908110610e8557fe5b9060005260206000200154905080876000018481548110610ea257fe5b600091825260208083209091019290925582815260018981019092526040902090840190558654879080610ed257fe5b60019003818190600052602060002001600090559055866001016000878152602001908152602001600020600090556001945050505050610750565b600091505061075056fe456e756d657261626c655365743a20696e646578206f7574206f6620626f756e6473416363657373436f6e74726f6c3a2073656e646572206d75737420626520616e2061646d696e20746f206772616e74416363657373436f6e74726f6c3a2073656e646572206d75737420626520616e2061646d696e20746f207265766f6b65416363657373436f6e74726f6c3a2063616e206f6e6c792072656e6f756e636520726f6c657320666f722073656c66a2646970667358221220964d2eae02c522c7623708c71510681856fe1eb096b351953af91459e64e423864736f6c63430006080033",
  "devdoc": {
    "methods": {
      "getRoleAdmin(bytes32)": {
        "details": "Returns the admin role that controls `role`. See {grantRole} and {revokeRole}.     * To change a role's admin, use {_setRoleAdmin}."
      },
      "getRoleMember(bytes32,uint256)": {
        "details": "Returns one of the accounts that have `role`. `index` must be a value between 0 and {getRoleMemberCount}, non-inclusive.     * Role bearers are not sorted in any particular way, and their ordering may change at any point.     * WARNING: When using {getRoleMember} and {getRoleMemberCount}, make sure you perform all queries on the same block. See the following https://forum.openzeppelin.com/t/iterating-over-elements-on-enumerableset-in-openzeppelin-contracts/2296[forum post] for more information."
      },
      "getRoleMemberCount(bytes32)": {
        "details": "Returns the number of accounts that have `role`. Can be used together with {getRoleMember} to enumerate all bearers of a role."
      },
      "grantRole(bytes32,address)": {
        "details": "Grants `role` to `account`.     * If `account` had not been already granted `role`, emits a {RoleGranted} event.     * Requirements:     * - the caller must have ``role``'s admin role."
      },
      "hasRole(bytes32,address)": {
        "details": "Returns `true` if `account` has been granted `role`."
      },
      "renounceRole(bytes32,address)": {
        "details": "Revokes `role` from the calling account.     * Roles are often managed via {grantRole} and {revokeRole}: this function's purpose is to provide a mechanism for accounts to lose their privileges if they are compromised (such as when a trusted device is misplaced).     * If the calling account had been granted `role`, emits a {RoleRevoked} event.     * Requirements:     * - the caller must be `account`."
      },
      "revokeRole(bytes32,address)": {
        "details": "Revokes `role` from `account`.     * If `account` had been granted `role`, emits a {RoleRevoked} event.     * Requirements:     * - the caller must have ``role``'s admin role."
      }
    }
  },
  "userdoc": {
    "methods": {}
  },
  "storageLayout": {
    "storage": [
      {
        "astId": 45,
        "contract": "contracts/player/Player.sol:Player",
        "label": "_roles",
        "offset": 0,
        "slot": "0",
        "type": "t_mapping(t_bytes32,t_struct(RoleData)41_storage)"
      },
      {
        "astId": 3742,
        "contract": "contracts/player/Player.sol:Player",
        "label": "accounts",
        "offset": 0,
        "slot": "1",
        "type": "t_mapping(t_address,t_bool)"
      },
      {
        "astId": 3746,
        "contract": "contracts/player/Player.sol:Player",
        "label": "balances",
        "offset": 0,
        "slot": "2",
        "type": "t_mapping(t_address,t_uint256)"
      },
      {
        "astId": 3748,
        "contract": "contracts/player/Player.sol:Player",
        "label": "cashAddress",
        "offset": 0,
        "slot": "3",
        "type": "t_address"
      },
      {
        "astId": 3750,
        "contract": "contracts/player/Player.sol:Player",
        "label": "playerStats",
        "offset": 0,
        "slot": "4",
        "type": "t_address"
      }
    ],
    "types": {
      "t_address": {
        "encoding": "inplace",
        "label": "address",
        "numberOfBytes": "20"
      },
      "t_array(t_bytes32)dyn_storage": {
        "base": "t_bytes32",
        "encoding": "dynamic_array",
        "label": "bytes32[]",
        "numberOfBytes": "32"
      },
      "t_bool": {
        "encoding": "inplace",
        "label": "bool",
        "numberOfBytes": "1"
      },
      "t_bytes32": {
        "encoding": "inplace",
        "label": "bytes32",
        "numberOfBytes": "32"
      },
      "t_mapping(t_address,t_bool)": {
        "encoding": "mapping",
        "key": "t_address",
        "label": "mapping(address => bool)",
        "numberOfBytes": "32",
        "value": "t_bool"
      },
      "t_mapping(t_address,t_uint256)": {
        "encoding": "mapping",
        "key": "t_address",
        "label": "mapping(address => uint256)",
        "numberOfBytes": "32",
        "value": "t_uint256"
      },
      "t_mapping(t_bytes32,t_struct(RoleData)41_storage)": {
        "encoding": "mapping",
        "key": "t_bytes32",
        "label": "mapping(bytes32 => struct AccessControl.RoleData)",
        "numberOfBytes": "32",
        "value": "t_struct(RoleData)41_storage"
      },
      "t_mapping(t_bytes32,t_uint256)": {
        "encoding": "mapping",
        "key": "t_bytes32",
        "label": "mapping(bytes32 => uint256)",
        "numberOfBytes": "32",
        "value": "t_uint256"
      },
      "t_struct(AddressSet)3227_storage": {
        "encoding": "inplace",
        "label": "struct EnumerableSet.AddressSet",
        "members": [
          {
            "astId": 3226,
            "contract": "contracts/player/Player.sol:Player",
            "label": "_inner",
            "offset": 0,
            "slot": "0",
            "type": "t_struct(Set)3047_storage"
          }
        ],
        "numberOfBytes": "64"
      },
      "t_struct(RoleData)41_storage": {
        "encoding": "inplace",
        "label": "struct AccessControl.RoleData",
        "members": [
          {
            "astId": 38,
            "contract": "contracts/player/Player.sol:Player",
            "label": "members",
            "offset": 0,
            "slot": "0",
            "type": "t_struct(AddressSet)3227_storage"
          },
          {
            "astId": 40,
            "contract": "contracts/player/Player.sol:Player",
            "label": "adminRole",
            "offset": 0,
            "slot": "2",
            "type": "t_bytes32"
          }
        ],
        "numberOfBytes": "96"
      },
      "t_struct(Set)3047_storage": {
        "encoding": "inplace",
        "label": "struct EnumerableSet.Set",
        "members": [
          {
            "astId": 3042,
            "contract": "contracts/player/Player.sol:Player",
            "label": "_values",
            "offset": 0,
            "slot": "0",
            "type": "t_array(t_bytes32)dyn_storage"
          },
          {
            "astId": 3046,
            "contract": "contracts/player/Player.sol:Player",
            "label": "_indexes",
            "offset": 0,
            "slot": "1",
            "type": "t_mapping(t_bytes32,t_uint256)"
          }
        ],
        "numberOfBytes": "64"
      },
      "t_uint256": {
        "encoding": "inplace",
        "label": "uint256",
        "numberOfBytes": "32"
      }
    }
  }
}