{
  "address": "0x5FC8d32690cc91D4c39d9d3abcBD16989F875707",
  "abi": [
    {
      "inputs": [],
      "stateMutability": "nonpayable",
      "type": "constructor"
    },
    {
      "anonymous": false,
      "inputs": [
        {
          "indexed": false,
          "internalType": "address",
          "name": "_who",
          "type": "address"
        },
        {
          "indexed": false,
          "internalType": "uint256",
          "name": "_when",
          "type": "uint256"
        }
      ],
      "name": "PlayerCreated",
      "type": "event"
    },
    {
      "anonymous": false,
      "inputs": [
        {
          "indexed": true,
          "internalType": "bytes32",
          "name": "role",
          "type": "bytes32"
        },
        {
          "indexed": true,
          "internalType": "bytes32",
          "name": "previousAdminRole",
          "type": "bytes32"
        },
        {
          "indexed": true,
          "internalType": "bytes32",
          "name": "newAdminRole",
          "type": "bytes32"
        }
      ],
      "name": "RoleAdminChanged",
      "type": "event"
    },
    {
      "anonymous": false,
      "inputs": [
        {
          "indexed": true,
          "internalType": "bytes32",
          "name": "role",
          "type": "bytes32"
        },
        {
          "indexed": true,
          "internalType": "address",
          "name": "account",
          "type": "address"
        },
        {
          "indexed": true,
          "internalType": "address",
          "name": "sender",
          "type": "address"
        }
      ],
      "name": "RoleGranted",
      "type": "event"
    },
    {
      "anonymous": false,
      "inputs": [
        {
          "indexed": true,
          "internalType": "bytes32",
          "name": "role",
          "type": "bytes32"
        },
        {
          "indexed": true,
          "internalType": "address",
          "name": "account",
          "type": "address"
        },
        {
          "indexed": true,
          "internalType": "address",
          "name": "sender",
          "type": "address"
        }
      ],
      "name": "RoleRevoked",
      "type": "event"
    },
    {
      "inputs": [],
      "name": "ADMIN",
      "outputs": [
        {
          "internalType": "bytes32",
          "name": "",
          "type": "bytes32"
        }
      ],
      "stateMutability": "view",
      "type": "function"
    },
    {
      "inputs": [],
      "name": "DEFAULT_ADMIN_ROLE",
      "outputs": [
        {
          "internalType": "bytes32",
          "name": "",
          "type": "bytes32"
        }
      ],
      "stateMutability": "view",
      "type": "function"
    },
    {
      "inputs": [],
      "name": "create",
      "outputs": [],
      "stateMutability": "nonpayable",
      "type": "function"
    },
    {
      "inputs": [
        {
          "internalType": "bytes32",
          "name": "role",
          "type": "bytes32"
        }
      ],
      "name": "getRoleAdmin",
      "outputs": [
        {
          "internalType": "bytes32",
          "name": "",
          "type": "bytes32"
        }
      ],
      "stateMutability": "view",
      "type": "function"
    },
    {
      "inputs": [
        {
          "internalType": "bytes32",
          "name": "role",
          "type": "bytes32"
        },
        {
          "internalType": "address",
          "name": "account",
          "type": "address"
        }
      ],
      "name": "grantRole",
      "outputs": [],
      "stateMutability": "nonpayable",
      "type": "function"
    },
    {
      "inputs": [
        {
          "internalType": "bytes32",
          "name": "role",
          "type": "bytes32"
        },
        {
          "internalType": "address",
          "name": "account",
          "type": "address"
        }
      ],
      "name": "hasRole",
      "outputs": [
        {
          "internalType": "bool",
          "name": "",
          "type": "bool"
        }
      ],
      "stateMutability": "view",
      "type": "function"
    },
    {
      "inputs": [
        {
          "internalType": "address",
          "name": "_who",
          "type": "address"
        }
      ],
      "name": "isPlayer",
      "outputs": [
        {
          "internalType": "bool",
          "name": "",
          "type": "bool"
        }
      ],
      "stateMutability": "view",
      "type": "function"
    },
    {
      "inputs": [
        {
          "internalType": "bytes32",
          "name": "role",
          "type": "bytes32"
        },
        {
          "internalType": "address",
          "name": "account",
          "type": "address"
        }
      ],
      "name": "renounceRole",
      "outputs": [],
      "stateMutability": "nonpayable",
      "type": "function"
    },
    {
      "inputs": [
        {
          "internalType": "bytes32",
          "name": "role",
          "type": "bytes32"
        },
        {
          "internalType": "address",
          "name": "account",
          "type": "address"
        }
      ],
      "name": "revokeRole",
      "outputs": [],
      "stateMutability": "nonpayable",
      "type": "function"
    },
    {
      "inputs": [
        {
          "internalType": "address",
          "name": "_playerStats",
          "type": "address"
        }
      ],
      "name": "setPlayerStatsAddress",
      "outputs": [],
      "stateMutability": "nonpayable",
      "type": "function"
    },
    {
      "inputs": [
        {
          "internalType": "bytes4",
          "name": "interfaceId",
          "type": "bytes4"
        }
      ],
      "name": "supportsInterface",
      "outputs": [
        {
          "internalType": "bool",
          "name": "",
          "type": "bool"
        }
      ],
      "stateMutability": "view",
      "type": "function"
    }
  ],
  "transactionHash": "0x66afe184ae24761b8d2f7a08b801604dcef8f2877609e65ce9a558336fe1a0d6",
  "args": [],
  "numDeployments": 1,
  "solcInputHash": "777582a7632d8a2f42216c352c8ef720",
  "bytecode": "0x608060405234801561001057600080fd5b5061003b7fdf8b4c520ffe197c5343c6f5aec59570151ef9a492f2c624fd45ddde6135ec4233610040565b6100ec565b61004a828261004e565b5050565b6000828152602081815260408083206001600160a01b038516845290915290205460ff1661004a576000828152602081815260408083206001600160a01b03851684529091529020805460ff191660011790556100a83390565b6001600160a01b0316816001600160a01b0316837f2f8788117e7eff1d82e926ec794901d17c78024a50270940304540a733656f0d60405160405180910390a45050565b6109d0806100fb6000396000f3fe608060405234801561001057600080fd5b50600436106100a95760003560e01c806336568abe1161007157806336568abe1461016f57806391d1485414610182578063a217fddf14610195578063c17171971461019d578063d547741f146101b0578063efc81a8c146101c357600080fd5b806301ffc9a7146100ae57806309c95e10146100d6578063248a9ca3146101025780632a0acc6a146101335780632f2ff15d1461015a575b600080fd5b6100c16100bc36600461078c565b6101cb565b60405190151581526020015b60405180910390f35b6100c16100e43660046107d2565b6001600160a01b031660009081526001602052604090205460ff1690565b6101256101103660046107ed565b60009081526020819052604090206001015490565b6040519081526020016100cd565b6101257fdf8b4c520ffe197c5343c6f5aec59570151ef9a492f2c624fd45ddde6135ec4281565b61016d610168366004610806565b610202565b005b61016d61017d366004610806565b61022c565b6100c1610190366004610806565b6102af565b610125600081565b61016d6101ab3660046107d2565b6102d8565b61016d6101be366004610806565b61035c565b61016d610381565b60006001600160e01b03198216637965db0b60e01b14806101fc57506301ffc9a760e01b6001600160e01b03198316145b92915050565b60008281526020819052604090206001015461021d8161048f565b610227838361049c565b505050565b6001600160a01b03811633146102a15760405162461bcd60e51b815260206004820152602f60248201527f416363657373436f6e74726f6c3a2063616e206f6e6c792072656e6f756e636560448201526e103937b632b9903337b91039b2b63360891b60648201526084015b60405180910390fd5b6102ab8282610520565b5050565b6000918252602082815260408084206001600160a01b0393909316845291905290205460ff1690565b6103027fdf8b4c520ffe197c5343c6f5aec59570151ef9a492f2c624fd45ddde6135ec42336102af565b61033a5760405162461bcd60e51b81526020600482015260096024820152682737ba1020b236b4b760b91b6044820152606401610298565b600280546001600160a01b0319166001600160a01b0392909216919091179055565b6000828152602081905260409020600101546103778161048f565b6102278383610520565b3360009081526001602052604090205460ff16156103da5760405162461bcd60e51b81526020600482015260166024820152754163636f756e7420616c72656164792065786973747360501b6044820152606401610298565b33600081815260016020819052604091829020805460ff19169091179055600254905163e450458b60e01b815260048101929092526001600160a01b03169063e450458b90602401600060405180830381600087803b15801561043c57600080fd5b505af1158015610450573d6000803e3d6000fd5b5050604080513381524260208201527fb31ba5904c24da7a4eeed78a7e073540fbf64788e158b6f3f55fae6d475ced95935001905060405180910390a1565b6104998133610585565b50565b6104a682826102af565b6102ab576000828152602081815260408083206001600160a01b03851684529091529020805460ff191660011790556104dc3390565b6001600160a01b0316816001600160a01b0316837f2f8788117e7eff1d82e926ec794901d17c78024a50270940304540a733656f0d60405160405180910390a45050565b61052a82826102af565b156102ab576000828152602081815260408083206001600160a01b0385168085529252808320805460ff1916905551339285917ff6391f5c32d9c69d2a47ea670b442974b53935d1edc7fd64eb21e047a839171b9190a45050565b61058f82826102af565b6102ab576105a7816001600160a01b031660146105e9565b6105b28360206105e9565b6040516020016105c3929190610862565b60408051601f198184030181529082905262461bcd60e51b8252610298916004016108d7565b606060006105f8836002610920565b61060390600261093f565b67ffffffffffffffff81111561061b5761061b610957565b6040519080825280601f01601f191660200182016040528015610645576020820181803683370190505b509050600360fc1b816000815181106106605761066061096d565b60200101906001600160f81b031916908160001a905350600f60fb1b8160018151811061068f5761068f61096d565b60200101906001600160f81b031916908160001a90535060006106b3846002610920565b6106be90600161093f565b90505b6001811115610736576f181899199a1a9b1b9c1cb0b131b232b360811b85600f16601081106106f2576106f261096d565b1a60f81b8282815181106107085761070861096d565b60200101906001600160f81b031916908160001a90535060049490941c9361072f81610983565b90506106c1565b5083156107855760405162461bcd60e51b815260206004820181905260248201527f537472696e67733a20686578206c656e67746820696e73756666696369656e746044820152606401610298565b9392505050565b60006020828403121561079e57600080fd5b81356001600160e01b03198116811461078557600080fd5b80356001600160a01b03811681146107cd57600080fd5b919050565b6000602082840312156107e457600080fd5b610785826107b6565b6000602082840312156107ff57600080fd5b5035919050565b6000806040838503121561081957600080fd5b82359150610829602084016107b6565b90509250929050565b60005b8381101561084d578181015183820152602001610835565b8381111561085c576000848401525b50505050565b7f416363657373436f6e74726f6c3a206163636f756e742000000000000000000081526000835161089a816017850160208801610832565b7001034b99036b4b9b9b4b733903937b6329607d1b60179184019182015283516108cb816028840160208801610832565b01602801949350505050565b60208152600082518060208401526108f6816040850160208701610832565b601f01601f19169190910160400192915050565b634e487b7160e01b600052601160045260246000fd5b600081600019048311821515161561093a5761093a61090a565b500290565b600082198211156109525761095261090a565b500190565b634e487b7160e01b600052604160045260246000fd5b634e487b7160e01b600052603260045260246000fd5b6000816109925761099261090a565b50600019019056fea2646970667358221220af8d66acac3169fa78ff62cb418b5542a23da1f5eade9dee03a437c1c07c917064736f6c63430008090033",
  "devdoc": {
    "kind": "dev",
    "methods": {
      "getRoleAdmin(bytes32)": {
        "details": "Returns the admin role that controls `role`. See {grantRole} and {revokeRole}. To change a role's admin, use {_setRoleAdmin}."
      },
      "grantRole(bytes32,address)": {
        "details": "Grants `role` to `account`. If `account` had not been already granted `role`, emits a {RoleGranted} event. Requirements: - the caller must have ``role``'s admin role."
      },
      "hasRole(bytes32,address)": {
        "details": "Returns `true` if `account` has been granted `role`."
      },
      "renounceRole(bytes32,address)": {
        "details": "Revokes `role` from the calling account. Roles are often managed via {grantRole} and {revokeRole}: this function's purpose is to provide a mechanism for accounts to lose their privileges if they are compromised (such as when a trusted device is misplaced). If the calling account had been revoked `role`, emits a {RoleRevoked} event. Requirements: - the caller must be `account`."
      },
      "revokeRole(bytes32,address)": {
        "details": "Revokes `role` from `account`. If `account` had been granted `role`, emits a {RoleRevoked} event. Requirements: - the caller must have ``role``'s admin role."
      },
      "supportsInterface(bytes4)": {
        "details": "See {IERC165-supportsInterface}."
      }
    },
    "version": 1
  },
  "userdoc": {
    "kind": "user",
    "methods": {},
    "version": 1
  },
  "storageLayout": {
    "storage": [
      {
        "astId": 24,
        "contract": "contracts/player/Player.sol:Player",
        "label": "_roles",
        "offset": 0,
        "slot": "0",
        "type": "t_mapping(t_bytes32,t_struct(RoleData)19_storage)"
      },
      {
        "astId": 4282,
        "contract": "contracts/player/Player.sol:Player",
        "label": "accounts",
        "offset": 0,
        "slot": "1",
        "type": "t_mapping(t_address,t_bool)"
      },
      {
        "astId": 4284,
        "contract": "contracts/player/Player.sol:Player",
        "label": "playerStats",
        "offset": 0,
        "slot": "2",
        "type": "t_address"
      }
    ],
    "types": {
      "t_address": {
        "encoding": "inplace",
        "label": "address",
        "numberOfBytes": "20"
      },
      "t_bool": {
        "encoding": "inplace",
        "label": "bool",
        "numberOfBytes": "1"
      },
      "t_bytes32": {
        "encoding": "inplace",
        "label": "bytes32",
        "numberOfBytes": "32"
      },
      "t_mapping(t_address,t_bool)": {
        "encoding": "mapping",
        "key": "t_address",
        "label": "mapping(address => bool)",
        "numberOfBytes": "32",
        "value": "t_bool"
      },
      "t_mapping(t_bytes32,t_struct(RoleData)19_storage)": {
        "encoding": "mapping",
        "key": "t_bytes32",
        "label": "mapping(bytes32 => struct AccessControl.RoleData)",
        "numberOfBytes": "32",
        "value": "t_struct(RoleData)19_storage"
      },
      "t_struct(RoleData)19_storage": {
        "encoding": "inplace",
        "label": "struct AccessControl.RoleData",
        "members": [
          {
            "astId": 16,
            "contract": "contracts/player/Player.sol:Player",
            "label": "members",
            "offset": 0,
            "slot": "0",
            "type": "t_mapping(t_address,t_bool)"
          },
          {
            "astId": 18,
            "contract": "contracts/player/Player.sol:Player",
            "label": "adminRole",
            "offset": 0,
            "slot": "1",
            "type": "t_bytes32"
          }
        ],
        "numberOfBytes": "64"
      }
    }
  }
}