{
  "address": "0xe7f1725E7734CE288F8367e1Bb143E90bb3F0512",
  "abi": [
    {
      "inputs": [],
      "stateMutability": "nonpayable",
      "type": "constructor"
    },
    {
      "anonymous": false,
      "inputs": [
        {
          "indexed": true,
          "internalType": "bytes32",
          "name": "role",
          "type": "bytes32"
        },
        {
          "indexed": true,
          "internalType": "bytes32",
          "name": "previousAdminRole",
          "type": "bytes32"
        },
        {
          "indexed": true,
          "internalType": "bytes32",
          "name": "newAdminRole",
          "type": "bytes32"
        }
      ],
      "name": "RoleAdminChanged",
      "type": "event"
    },
    {
      "anonymous": false,
      "inputs": [
        {
          "indexed": true,
          "internalType": "bytes32",
          "name": "role",
          "type": "bytes32"
        },
        {
          "indexed": true,
          "internalType": "address",
          "name": "account",
          "type": "address"
        },
        {
          "indexed": true,
          "internalType": "address",
          "name": "sender",
          "type": "address"
        }
      ],
      "name": "RoleGranted",
      "type": "event"
    },
    {
      "anonymous": false,
      "inputs": [
        {
          "indexed": true,
          "internalType": "bytes32",
          "name": "role",
          "type": "bytes32"
        },
        {
          "indexed": true,
          "internalType": "address",
          "name": "account",
          "type": "address"
        },
        {
          "indexed": true,
          "internalType": "address",
          "name": "sender",
          "type": "address"
        }
      ],
      "name": "RoleRevoked",
      "type": "event"
    },
    {
      "inputs": [],
      "name": "ADMIN",
      "outputs": [
        {
          "internalType": "bytes32",
          "name": "",
          "type": "bytes32"
        }
      ],
      "stateMutability": "view",
      "type": "function"
    },
    {
      "inputs": [],
      "name": "DEFAULT_ADMIN_ROLE",
      "outputs": [
        {
          "internalType": "bytes32",
          "name": "",
          "type": "bytes32"
        }
      ],
      "stateMutability": "view",
      "type": "function"
    },
    {
      "inputs": [],
      "name": "PLAYER_MANAGER",
      "outputs": [
        {
          "internalType": "bytes32",
          "name": "",
          "type": "bytes32"
        }
      ],
      "stateMutability": "view",
      "type": "function"
    },
    {
      "inputs": [
        {
          "internalType": "address",
          "name": "_who",
          "type": "address"
        }
      ],
      "name": "createBasePlayer",
      "outputs": [],
      "stateMutability": "nonpayable",
      "type": "function"
    },
    {
      "inputs": [
        {
          "internalType": "address",
          "name": "_who",
          "type": "address"
        }
      ],
      "name": "getPlayerBattleStats",
      "outputs": [
        {
          "internalType": "uint256",
          "name": "baseStrength",
          "type": "uint256"
        },
        {
          "internalType": "uint256",
          "name": "baseDexterity",
          "type": "uint256"
        },
        {
          "internalType": "uint256",
          "name": "baseDefence",
          "type": "uint256"
        },
        {
          "internalType": "uint256",
          "name": "baseConstitution",
          "type": "uint256"
        }
      ],
      "stateMutability": "view",
      "type": "function"
    },
    {
      "inputs": [
        {
          "internalType": "address",
          "name": "_who",
          "type": "address"
        }
      ],
      "name": "getPlayerStats",
      "outputs": [
        {
          "internalType": "uint256",
          "name": "level",
          "type": "uint256"
        },
        {
          "internalType": "uint256",
          "name": "experience",
          "type": "uint256"
        },
        {
          "internalType": "uint256",
          "name": "baseHealth",
          "type": "uint256"
        },
        {
          "internalType": "uint256",
          "name": "currentHealth",
          "type": "uint256"
        },
        {
          "internalType": "bool",
          "name": "isPlayer",
          "type": "bool"
        }
      ],
      "stateMutability": "view",
      "type": "function"
    },
    {
      "inputs": [
        {
          "internalType": "bytes32",
          "name": "role",
          "type": "bytes32"
        }
      ],
      "name": "getRoleAdmin",
      "outputs": [
        {
          "internalType": "bytes32",
          "name": "",
          "type": "bytes32"
        }
      ],
      "stateMutability": "view",
      "type": "function"
    },
    {
      "inputs": [
        {
          "internalType": "bytes32",
          "name": "role",
          "type": "bytes32"
        },
        {
          "internalType": "uint256",
          "name": "index",
          "type": "uint256"
        }
      ],
      "name": "getRoleMember",
      "outputs": [
        {
          "internalType": "address",
          "name": "",
          "type": "address"
        }
      ],
      "stateMutability": "view",
      "type": "function"
    },
    {
      "inputs": [
        {
          "internalType": "bytes32",
          "name": "role",
          "type": "bytes32"
        }
      ],
      "name": "getRoleMemberCount",
      "outputs": [
        {
          "internalType": "uint256",
          "name": "",
          "type": "uint256"
        }
      ],
      "stateMutability": "view",
      "type": "function"
    },
    {
      "inputs": [
        {
          "internalType": "bytes32",
          "name": "role",
          "type": "bytes32"
        },
        {
          "internalType": "address",
          "name": "account",
          "type": "address"
        }
      ],
      "name": "grantRole",
      "outputs": [],
      "stateMutability": "nonpayable",
      "type": "function"
    },
    {
      "inputs": [
        {
          "internalType": "bytes32",
          "name": "role",
          "type": "bytes32"
        },
        {
          "internalType": "address",
          "name": "account",
          "type": "address"
        }
      ],
      "name": "hasRole",
      "outputs": [
        {
          "internalType": "bool",
          "name": "",
          "type": "bool"
        }
      ],
      "stateMutability": "view",
      "type": "function"
    },
    {
      "inputs": [],
      "name": "playerManager",
      "outputs": [
        {
          "internalType": "address",
          "name": "",
          "type": "address"
        }
      ],
      "stateMutability": "view",
      "type": "function"
    },
    {
      "inputs": [
        {
          "internalType": "bytes32",
          "name": "role",
          "type": "bytes32"
        },
        {
          "internalType": "address",
          "name": "account",
          "type": "address"
        }
      ],
      "name": "renounceRole",
      "outputs": [],
      "stateMutability": "nonpayable",
      "type": "function"
    },
    {
      "inputs": [
        {
          "internalType": "bytes32",
          "name": "role",
          "type": "bytes32"
        },
        {
          "internalType": "address",
          "name": "account",
          "type": "address"
        }
      ],
      "name": "revokeRole",
      "outputs": [],
      "stateMutability": "nonpayable",
      "type": "function"
    },
    {
      "inputs": [
        {
          "internalType": "address",
          "name": "_playerManager",
          "type": "address"
        }
      ],
      "name": "setPlayerManager",
      "outputs": [],
      "stateMutability": "nonpayable",
      "type": "function"
    }
  ],
  "transactionHash": "0xd23fb0c39f36e8fb2d132cb0a5e686275bcdfc9a133cb5e067dd6cecebd8cd97",
  "args": [],
  "solcInputHash": "95edde3b810702dab6b59778bcd41322",
  "bytecode": "0x60806040523480156200001157600080fd5b50604080516420a226a4a760d91b815290519081900360050190206200004190336001600160e01b036200009516565b604080516d282620aca2a92fa6a0a720a3a2a960911b8152815190819003600e0181206420a226a4a760d91b825291519081900360050190206200008f91906001600160e01b03620000ae16565b6200021f565b620000aa82826001600160e01b036200010016565b5050565b600082815260208190526040808220600201549051839285917fbd79b86ffe0ab8e8776151514217cd7cacd52c909f66475c3af44e129f0b00ff9190a460009182526020829052604090912060020155565b600082815260208181526040909120620001259183906200092e62000182821b17901c565b15620000aa576200013e6001600160e01b03620001ab16565b6001600160a01b0316816001600160a01b0316837f2f8788117e7eff1d82e926ec794901d17c78024a50270940304540a733656f0d60405160405180910390a45050565b6000620001a2836001600160a01b0384166001600160e01b03620001af16565b90505b92915050565b3390565b6000620001c683836001600160e01b036200020716565b620001fe57508154600181810184556000848152602080822090930184905584548482528286019093526040902091909155620001a5565b506000620001a5565b60009081526001919091016020526040902054151590565b610d4e806200022f6000396000f3fe608060405234801561001057600080fd5b50600436106100f55760003560e01c80639010d07c11610097578063ab53bf0111610066578063ab53bf011461029b578063ca15c873146102e7578063d547741f14610304578063e450458b14610330576100f5565b80639010d07c1461020c57806391d148541461024b5780639cdac8b81461028b578063a217fddf14610293576100f5565b80632f2ff15d116100d35780632f2ff15d1461015957806336568abe14610185578063430eaf91146101b15780634fd66eae146101b9576100f5565b806306d10ad4146100fa578063248a9ca3146101225780632a0acc6a14610151575b600080fd5b6101206004803603602081101561011057600080fd5b50356001600160a01b0316610356565b005b61013f6004803603602081101561013857600080fd5b50356103e7565b60408051918252519081900360200190f35b61013f6103fc565b6101206004803603604081101561016f57600080fd5b50803590602001356001600160a01b0316610419565b6101206004803603604081101561019b57600080fd5b50803590602001356001600160a01b0316610485565b61013f6104e6565b6101df600480360360208110156101cf57600080fd5b50356001600160a01b031661050c565b60408051958652602086019490945284840192909252606084015215156080830152519081900360a00190f35b61022f6004803603604081101561022257600080fd5b50803590602001356105fa565b604080516001600160a01b039092168252519081900360200190f35b6102776004803603604081101561026157600080fd5b50803590602001356001600160a01b0316610621565b604080519115158252519081900360200190f35b61022f61063f565b61013f61064e565b6102c1600480360360208110156102b157600080fd5b50356001600160a01b0316610653565b604080519485526020850193909352838301919091526060830152519081900360800190f35b61013f600480360360208110156102fd57600080fd5b50356106bf565b6101206004803603604081101561031a57600080fd5b50803590602001356001600160a01b03166106d6565b6101206004803603602081101561034657600080fd5b50356001600160a01b031661072f565b604080516420a226a4a760d91b8152905190819003600501902061037a9033610621565b6103b7576040805162461bcd60e51b81526020600482015260096024820152682737ba1020b236b4b760b91b604482015290519081900360640190fd5b604080516d282620aca2a92fa6a0a720a3a2a960911b8152905190819003600e0190206103e49082610419565b50565b60009081526020819052604090206002015490565b604080516420a226a4a760d91b8152905190819003600501902081565b60008281526020819052604090206002015461043c90610437610943565b610621565b6104775760405162461bcd60e51b815260040180806020018281038252602f815260200180610c8b602f913960400191505060405180910390fd5b6104818282610947565b5050565b61048d610943565b6001600160a01b0316816001600160a01b0316146104dc5760405162461bcd60e51b815260040180806020018281038252602f815260200180610cea602f913960400191505060405180910390fd5b61048182826109b6565b604080516d282620aca2a92fa6a0a720a3a2a960911b8152905190819003600e01902081565b600080600080600061051c610bf6565b505050506001600160a01b0392909216600090815260016020818152604092839020835160e0810185528154815292810154838301908152600282015484860190815260038301546060808701918252600485015460ff161515608080890191825289518082018b52600588015481526006880154818a01526007880154818c015260088801548185015260a08a015289519081018a5260098701548152600a87015497810197909752600b86015498870198909852600c909401549385019390935260c08501939093529251925191519051935192969195509350565b6000828152602081905260408120610618908363ffffffff610a2516565b90505b92915050565b6000828152602081905260408120610618908363ffffffff610a3116565b6002546001600160a01b031681565b600081565b600080600080610661610c40565b505050506001600160a01b039190911660009081526001602090815260409182902082516080810184526005820154808252600683015493820184905260078301549482018590526008909201546060909101819052909491935090565b600081815260208190526040812061061b90610a46565b6000828152602081905260409020600201546106f490610437610943565b6104dc5760405162461bcd60e51b8152600401808060200182810382526030815260200180610cba6030913960400191505060405180910390fd5b6001600160a01b038116600090815260016020526040902060040154819060ff161561079a576040805162461bcd60e51b8152602060048201526015602482015274506c6179657220616c72656164792065786973747360581b604482015290519081900360640190fd5b604080516d282620aca2a92fa6a0a720a3a2a960911b8152905190819003600e0190206107c79033610621565b61080d576040805162461bcd60e51b81526020600482015260126024820152712737ba10283630bcb2b91026b0b730b3b2b960711b604482015290519081900360640190fd5b610815610c40565b604051806080016040528060148152602001601481526020016014815260200160148152509050610844610c40565b506040805160808082018352600080835260208084018290528385018290526060808501839052855160e08101875260018082528184018581526064838a0181815284860191825297840183815260a085019b8c5260c08501998a526001600160a01b039d909d168752828652958990209251835551908201559351600285015591516003840155965160048301805460ff1916911515919091179055935180516005830155808701516006830155808401516007830155840151600882015590518051600983015594850151600a82015590840151600b820155920151600c9092019190915550565b6000610618836001600160a01b038416610a51565b3390565b6000828152602081905260409020610965908263ffffffff61092e16565b1561048157610972610943565b6001600160a01b0316816001600160a01b0316837f2f8788117e7eff1d82e926ec794901d17c78024a50270940304540a733656f0d60405160405180910390a45050565b60008281526020819052604090206109d4908263ffffffff610a9b16565b15610481576109e1610943565b6001600160a01b0316816001600160a01b0316837ff6391f5c32d9c69d2a47ea670b442974b53935d1edc7fd64eb21e047a839171b60405160405180910390a45050565b60006106188383610ab0565b6000610618836001600160a01b038416610b14565b600061061b82610b2c565b6000610a5d8383610b14565b610a935750815460018181018455600084815260208082209093018490558454848252828601909352604090209190915561061b565b50600061061b565b6000610618836001600160a01b038416610b30565b81546000908210610af25760405162461bcd60e51b8152600401808060200182810382526022815260200180610c696022913960400191505060405180910390fd5b826000018281548110610b0157fe5b9060005260206000200154905092915050565b60009081526001919091016020526040902054151590565b5490565b60008181526001830160205260408120548015610bec5783546000198083019190810190600090879083908110610b6357fe5b9060005260206000200154905080876000018481548110610b8057fe5b600091825260208083209091019290925582815260018981019092526040902090840190558654879080610bb057fe5b6001900381819060005260206000200160009055905586600101600087815260200190815260200160002060009055600194505050505061061b565b600091505061061b565b6040518060e0016040528060008152602001600081526020016000815260200160008152602001600015158152602001610c2e610c40565b8152602001610c3b610c40565b905290565b604051806080016040528060008152602001600081526020016000815260200160008152509056fe456e756d657261626c655365743a20696e646578206f7574206f6620626f756e6473416363657373436f6e74726f6c3a2073656e646572206d75737420626520616e2061646d696e20746f206772616e74416363657373436f6e74726f6c3a2073656e646572206d75737420626520616e2061646d696e20746f207265766f6b65416363657373436f6e74726f6c3a2063616e206f6e6c792072656e6f756e636520726f6c657320666f722073656c66a26469706673582212208e4d7b952c23d4cd8ad2f3884357bc761d8916a1ccf8dc1e7da7e02f5b706ac764736f6c63430006080033",
  "devdoc": {
    "methods": {
      "getRoleAdmin(bytes32)": {
        "details": "Returns the admin role that controls `role`. See {grantRole} and {revokeRole}.     * To change a role's admin, use {_setRoleAdmin}."
      },
      "getRoleMember(bytes32,uint256)": {
        "details": "Returns one of the accounts that have `role`. `index` must be a value between 0 and {getRoleMemberCount}, non-inclusive.     * Role bearers are not sorted in any particular way, and their ordering may change at any point.     * WARNING: When using {getRoleMember} and {getRoleMemberCount}, make sure you perform all queries on the same block. See the following https://forum.openzeppelin.com/t/iterating-over-elements-on-enumerableset-in-openzeppelin-contracts/2296[forum post] for more information."
      },
      "getRoleMemberCount(bytes32)": {
        "details": "Returns the number of accounts that have `role`. Can be used together with {getRoleMember} to enumerate all bearers of a role."
      },
      "grantRole(bytes32,address)": {
        "details": "Grants `role` to `account`.     * If `account` had not been already granted `role`, emits a {RoleGranted} event.     * Requirements:     * - the caller must have ``role``'s admin role."
      },
      "hasRole(bytes32,address)": {
        "details": "Returns `true` if `account` has been granted `role`."
      },
      "renounceRole(bytes32,address)": {
        "details": "Revokes `role` from the calling account.     * Roles are often managed via {grantRole} and {revokeRole}: this function's purpose is to provide a mechanism for accounts to lose their privileges if they are compromised (such as when a trusted device is misplaced).     * If the calling account had been granted `role`, emits a {RoleRevoked} event.     * Requirements:     * - the caller must be `account`."
      },
      "revokeRole(bytes32,address)": {
        "details": "Revokes `role` from `account`.     * If `account` had been granted `role`, emits a {RoleRevoked} event.     * Requirements:     * - the caller must have ``role``'s admin role."
      }
    }
  },
  "userdoc": {
    "methods": {}
  },
  "storageLayout": {
    "storage": [
      {
        "astId": 45,
        "contract": "contracts/player/PlayerStats.sol:PlayerStats",
        "label": "_roles",
        "offset": 0,
        "slot": "0",
        "type": "t_mapping(t_bytes32,t_struct(RoleData)41_storage)"
      },
      {
        "astId": 4043,
        "contract": "contracts/player/PlayerStats.sol:PlayerStats",
        "label": "playerStats",
        "offset": 0,
        "slot": "1",
        "type": "t_mapping(t_address,t_struct(Stats)4021_storage)"
      },
      {
        "astId": 4045,
        "contract": "contracts/player/PlayerStats.sol:PlayerStats",
        "label": "playerManager",
        "offset": 0,
        "slot": "2",
        "type": "t_address"
      }
    ],
    "types": {
      "t_address": {
        "encoding": "inplace",
        "label": "address",
        "numberOfBytes": "20"
      },
      "t_array(t_bytes32)dyn_storage": {
        "base": "t_bytes32",
        "encoding": "dynamic_array",
        "label": "bytes32[]",
        "numberOfBytes": "32"
      },
      "t_bool": {
        "encoding": "inplace",
        "label": "bool",
        "numberOfBytes": "1"
      },
      "t_bytes32": {
        "encoding": "inplace",
        "label": "bytes32",
        "numberOfBytes": "32"
      },
      "t_mapping(t_address,t_struct(Stats)4021_storage)": {
        "encoding": "mapping",
        "key": "t_address",
        "label": "mapping(address => struct PlayerStats.Stats)",
        "numberOfBytes": "32",
        "value": "t_struct(Stats)4021_storage"
      },
      "t_mapping(t_bytes32,t_struct(RoleData)41_storage)": {
        "encoding": "mapping",
        "key": "t_bytes32",
        "label": "mapping(bytes32 => struct AccessControl.RoleData)",
        "numberOfBytes": "32",
        "value": "t_struct(RoleData)41_storage"
      },
      "t_mapping(t_bytes32,t_uint256)": {
        "encoding": "mapping",
        "key": "t_bytes32",
        "label": "mapping(bytes32 => uint256)",
        "numberOfBytes": "32",
        "value": "t_uint256"
      },
      "t_struct(AddressSet)3227_storage": {
        "encoding": "inplace",
        "label": "struct EnumerableSet.AddressSet",
        "members": [
          {
            "astId": 3226,
            "contract": "contracts/player/PlayerStats.sol:PlayerStats",
            "label": "_inner",
            "offset": 0,
            "slot": "0",
            "type": "t_struct(Set)3047_storage"
          }
        ],
        "numberOfBytes": "64"
      },
      "t_struct(BattleStats)4030_storage": {
        "encoding": "inplace",
        "label": "struct PlayerStats.BattleStats",
        "members": [
          {
            "astId": 4023,
            "contract": "contracts/player/PlayerStats.sol:PlayerStats",
            "label": "baseStrength",
            "offset": 0,
            "slot": "0",
            "type": "t_uint256"
          },
          {
            "astId": 4025,
            "contract": "contracts/player/PlayerStats.sol:PlayerStats",
            "label": "baseDexterity",
            "offset": 0,
            "slot": "1",
            "type": "t_uint256"
          },
          {
            "astId": 4027,
            "contract": "contracts/player/PlayerStats.sol:PlayerStats",
            "label": "baseDefence",
            "offset": 0,
            "slot": "2",
            "type": "t_uint256"
          },
          {
            "astId": 4029,
            "contract": "contracts/player/PlayerStats.sol:PlayerStats",
            "label": "baseConstitution",
            "offset": 0,
            "slot": "3",
            "type": "t_uint256"
          }
        ],
        "numberOfBytes": "128"
      },
      "t_struct(FarmingStats)4039_storage": {
        "encoding": "inplace",
        "label": "struct PlayerStats.FarmingStats",
        "members": [
          {
            "astId": 4032,
            "contract": "contracts/player/PlayerStats.sol:PlayerStats",
            "label": "degeneracy",
            "offset": 0,
            "slot": "0",
            "type": "t_uint256"
          },
          {
            "astId": 4034,
            "contract": "contracts/player/PlayerStats.sol:PlayerStats",
            "label": "chadary",
            "offset": 0,
            "slot": "1",
            "type": "t_uint256"
          },
          {
            "astId": 4036,
            "contract": "contracts/player/PlayerStats.sol:PlayerStats",
            "label": "fomostition",
            "offset": 0,
            "slot": "2",
            "type": "t_uint256"
          },
          {
            "astId": 4038,
            "contract": "contracts/player/PlayerStats.sol:PlayerStats",
            "label": "rugpullable",
            "offset": 0,
            "slot": "3",
            "type": "t_uint256"
          }
        ],
        "numberOfBytes": "128"
      },
      "t_struct(RoleData)41_storage": {
        "encoding": "inplace",
        "label": "struct AccessControl.RoleData",
        "members": [
          {
            "astId": 38,
            "contract": "contracts/player/PlayerStats.sol:PlayerStats",
            "label": "members",
            "offset": 0,
            "slot": "0",
            "type": "t_struct(AddressSet)3227_storage"
          },
          {
            "astId": 40,
            "contract": "contracts/player/PlayerStats.sol:PlayerStats",
            "label": "adminRole",
            "offset": 0,
            "slot": "2",
            "type": "t_bytes32"
          }
        ],
        "numberOfBytes": "96"
      },
      "t_struct(Set)3047_storage": {
        "encoding": "inplace",
        "label": "struct EnumerableSet.Set",
        "members": [
          {
            "astId": 3042,
            "contract": "contracts/player/PlayerStats.sol:PlayerStats",
            "label": "_values",
            "offset": 0,
            "slot": "0",
            "type": "t_array(t_bytes32)dyn_storage"
          },
          {
            "astId": 3046,
            "contract": "contracts/player/PlayerStats.sol:PlayerStats",
            "label": "_indexes",
            "offset": 0,
            "slot": "1",
            "type": "t_mapping(t_bytes32,t_uint256)"
          }
        ],
        "numberOfBytes": "64"
      },
      "t_struct(Stats)4021_storage": {
        "encoding": "inplace",
        "label": "struct PlayerStats.Stats",
        "members": [
          {
            "astId": 4008,
            "contract": "contracts/player/PlayerStats.sol:PlayerStats",
            "label": "level",
            "offset": 0,
            "slot": "0",
            "type": "t_uint256"
          },
          {
            "astId": 4010,
            "contract": "contracts/player/PlayerStats.sol:PlayerStats",
            "label": "experience",
            "offset": 0,
            "slot": "1",
            "type": "t_uint256"
          },
          {
            "astId": 4012,
            "contract": "contracts/player/PlayerStats.sol:PlayerStats",
            "label": "baseHealth",
            "offset": 0,
            "slot": "2",
            "type": "t_uint256"
          },
          {
            "astId": 4014,
            "contract": "contracts/player/PlayerStats.sol:PlayerStats",
            "label": "currentHealth",
            "offset": 0,
            "slot": "3",
            "type": "t_uint256"
          },
          {
            "astId": 4016,
            "contract": "contracts/player/PlayerStats.sol:PlayerStats",
            "label": "isPlayer",
            "offset": 0,
            "slot": "4",
            "type": "t_bool"
          },
          {
            "astId": 4018,
            "contract": "contracts/player/PlayerStats.sol:PlayerStats",
            "label": "battleStats",
            "offset": 0,
            "slot": "5",
            "type": "t_struct(BattleStats)4030_storage"
          },
          {
            "astId": 4020,
            "contract": "contracts/player/PlayerStats.sol:PlayerStats",
            "label": "farmingStats",
            "offset": 0,
            "slot": "9",
            "type": "t_struct(FarmingStats)4039_storage"
          }
        ],
        "numberOfBytes": "416"
      },
      "t_uint256": {
        "encoding": "inplace",
        "label": "uint256",
        "numberOfBytes": "32"
      }
    }
  }
}