{
  "address": "0xe7f1725E7734CE288F8367e1Bb143E90bb3F0512",
  "abi": [
    {
      "inputs": [],
      "stateMutability": "nonpayable",
      "type": "constructor"
    },
    {
      "anonymous": false,
      "inputs": [
        {
          "indexed": true,
          "internalType": "bytes32",
          "name": "role",
          "type": "bytes32"
        },
        {
          "indexed": true,
          "internalType": "bytes32",
          "name": "previousAdminRole",
          "type": "bytes32"
        },
        {
          "indexed": true,
          "internalType": "bytes32",
          "name": "newAdminRole",
          "type": "bytes32"
        }
      ],
      "name": "RoleAdminChanged",
      "type": "event"
    },
    {
      "anonymous": false,
      "inputs": [
        {
          "indexed": true,
          "internalType": "bytes32",
          "name": "role",
          "type": "bytes32"
        },
        {
          "indexed": true,
          "internalType": "address",
          "name": "account",
          "type": "address"
        },
        {
          "indexed": true,
          "internalType": "address",
          "name": "sender",
          "type": "address"
        }
      ],
      "name": "RoleGranted",
      "type": "event"
    },
    {
      "anonymous": false,
      "inputs": [
        {
          "indexed": true,
          "internalType": "bytes32",
          "name": "role",
          "type": "bytes32"
        },
        {
          "indexed": true,
          "internalType": "address",
          "name": "account",
          "type": "address"
        },
        {
          "indexed": true,
          "internalType": "address",
          "name": "sender",
          "type": "address"
        }
      ],
      "name": "RoleRevoked",
      "type": "event"
    },
    {
      "inputs": [],
      "name": "ADMIN",
      "outputs": [
        {
          "internalType": "bytes32",
          "name": "",
          "type": "bytes32"
        }
      ],
      "stateMutability": "view",
      "type": "function"
    },
    {
      "inputs": [],
      "name": "DEFAULT_ADMIN_ROLE",
      "outputs": [
        {
          "internalType": "bytes32",
          "name": "",
          "type": "bytes32"
        }
      ],
      "stateMutability": "view",
      "type": "function"
    },
    {
      "inputs": [],
      "name": "PLAYER_MANAGER",
      "outputs": [
        {
          "internalType": "bytes32",
          "name": "",
          "type": "bytes32"
        }
      ],
      "stateMutability": "view",
      "type": "function"
    },
    {
      "inputs": [
        {
          "internalType": "address",
          "name": "_who",
          "type": "address"
        }
      ],
      "name": "createBasePlayer",
      "outputs": [],
      "stateMutability": "nonpayable",
      "type": "function"
    },
    {
      "inputs": [
        {
          "internalType": "address",
          "name": "_who",
          "type": "address"
        }
      ],
      "name": "getPlayerBattleStats",
      "outputs": [
        {
          "internalType": "uint256",
          "name": "baseStrength",
          "type": "uint256"
        },
        {
          "internalType": "uint256",
          "name": "baseDexterity",
          "type": "uint256"
        },
        {
          "internalType": "uint256",
          "name": "baseDefence",
          "type": "uint256"
        },
        {
          "internalType": "uint256",
          "name": "baseConstitution",
          "type": "uint256"
        }
      ],
      "stateMutability": "view",
      "type": "function"
    },
    {
      "inputs": [
        {
          "internalType": "address",
          "name": "_who",
          "type": "address"
        }
      ],
      "name": "getPlayerFarmingStats",
      "outputs": [
        {
          "internalType": "uint256",
          "name": "_degeneracy",
          "type": "uint256"
        },
        {
          "internalType": "uint256",
          "name": "_chadary",
          "type": "uint256"
        },
        {
          "internalType": "uint256",
          "name": "_fomostition",
          "type": "uint256"
        },
        {
          "internalType": "uint256",
          "name": "_rugpullable",
          "type": "uint256"
        }
      ],
      "stateMutability": "view",
      "type": "function"
    },
    {
      "inputs": [
        {
          "internalType": "address",
          "name": "_who",
          "type": "address"
        }
      ],
      "name": "getPlayerStats",
      "outputs": [
        {
          "internalType": "uint256",
          "name": "level",
          "type": "uint256"
        },
        {
          "internalType": "uint256",
          "name": "experience",
          "type": "uint256"
        },
        {
          "internalType": "uint256",
          "name": "baseHealth",
          "type": "uint256"
        },
        {
          "internalType": "uint256",
          "name": "currentHealth",
          "type": "uint256"
        },
        {
          "internalType": "bool",
          "name": "isPlayer",
          "type": "bool"
        }
      ],
      "stateMutability": "view",
      "type": "function"
    },
    {
      "inputs": [
        {
          "internalType": "bytes32",
          "name": "role",
          "type": "bytes32"
        }
      ],
      "name": "getRoleAdmin",
      "outputs": [
        {
          "internalType": "bytes32",
          "name": "",
          "type": "bytes32"
        }
      ],
      "stateMutability": "view",
      "type": "function"
    },
    {
      "inputs": [
        {
          "internalType": "bytes32",
          "name": "role",
          "type": "bytes32"
        },
        {
          "internalType": "uint256",
          "name": "index",
          "type": "uint256"
        }
      ],
      "name": "getRoleMember",
      "outputs": [
        {
          "internalType": "address",
          "name": "",
          "type": "address"
        }
      ],
      "stateMutability": "view",
      "type": "function"
    },
    {
      "inputs": [
        {
          "internalType": "bytes32",
          "name": "role",
          "type": "bytes32"
        }
      ],
      "name": "getRoleMemberCount",
      "outputs": [
        {
          "internalType": "uint256",
          "name": "",
          "type": "uint256"
        }
      ],
      "stateMutability": "view",
      "type": "function"
    },
    {
      "inputs": [
        {
          "internalType": "bytes32",
          "name": "role",
          "type": "bytes32"
        },
        {
          "internalType": "address",
          "name": "account",
          "type": "address"
        }
      ],
      "name": "grantRole",
      "outputs": [],
      "stateMutability": "nonpayable",
      "type": "function"
    },
    {
      "inputs": [
        {
          "internalType": "bytes32",
          "name": "role",
          "type": "bytes32"
        },
        {
          "internalType": "address",
          "name": "account",
          "type": "address"
        }
      ],
      "name": "hasRole",
      "outputs": [
        {
          "internalType": "bool",
          "name": "",
          "type": "bool"
        }
      ],
      "stateMutability": "view",
      "type": "function"
    },
    {
      "inputs": [
        {
          "internalType": "address",
          "name": "_who",
          "type": "address"
        },
        {
          "internalType": "uint256",
          "name": "_strength",
          "type": "uint256"
        },
        {
          "internalType": "uint256",
          "name": "_dexterity",
          "type": "uint256"
        },
        {
          "internalType": "uint256",
          "name": "_defence",
          "type": "uint256"
        },
        {
          "internalType": "uint256",
          "name": "_constitution",
          "type": "uint256"
        }
      ],
      "name": "increaseBattleStats",
      "outputs": [],
      "stateMutability": "nonpayable",
      "type": "function"
    },
    {
      "inputs": [
        {
          "internalType": "address",
          "name": "_who",
          "type": "address"
        },
        {
          "internalType": "uint256",
          "name": "_chadary",
          "type": "uint256"
        },
        {
          "internalType": "uint256",
          "name": "_degeneracy",
          "type": "uint256"
        },
        {
          "internalType": "uint256",
          "name": "_fomostition",
          "type": "uint256"
        },
        {
          "internalType": "uint256",
          "name": "_rugpullable",
          "type": "uint256"
        }
      ],
      "name": "increaseFarmingStats",
      "outputs": [],
      "stateMutability": "nonpayable",
      "type": "function"
    },
    {
      "inputs": [],
      "name": "playerManager",
      "outputs": [
        {
          "internalType": "address",
          "name": "",
          "type": "address"
        }
      ],
      "stateMutability": "view",
      "type": "function"
    },
    {
      "inputs": [
        {
          "internalType": "bytes32",
          "name": "role",
          "type": "bytes32"
        },
        {
          "internalType": "address",
          "name": "account",
          "type": "address"
        }
      ],
      "name": "renounceRole",
      "outputs": [],
      "stateMutability": "nonpayable",
      "type": "function"
    },
    {
      "inputs": [
        {
          "internalType": "bytes32",
          "name": "role",
          "type": "bytes32"
        },
        {
          "internalType": "address",
          "name": "account",
          "type": "address"
        }
      ],
      "name": "revokeRole",
      "outputs": [],
      "stateMutability": "nonpayable",
      "type": "function"
    },
    {
      "inputs": [
        {
          "internalType": "address",
          "name": "_playerManager",
          "type": "address"
        }
      ],
      "name": "setPlayerManager",
      "outputs": [],
      "stateMutability": "nonpayable",
      "type": "function"
    }
  ],
  "transactionHash": "0x398fe1046a5de466065bd88a4553625310262bdbaf7eb1dd0183108d626536ee",
  "args": [],
  "solcInputHash": "25d6df4598b0de10a52cb66f2281d623",
  "bytecode": "0x60806040523480156200001157600080fd5b50604080516420a226a4a760d91b815290519081900360050190206200004190336001600160e01b036200009516565b604080516d282620aca2a92fa6a0a720a3a2a960911b8152815190819003600e0181206420a226a4a760d91b825291519081900360050190206200008f91906001600160e01b03620000ae16565b6200021f565b620000aa82826001600160e01b036200010016565b5050565b600082815260208190526040808220600201549051839285917fbd79b86ffe0ab8e8776151514217cd7cacd52c909f66475c3af44e129f0b00ff9190a460009182526020829052604090912060020155565b6000828152602081815260409091206200012591839062000df362000182821b17901c565b15620000aa576200013e6001600160e01b03620001ab16565b6001600160a01b0316816001600160a01b0316837f2f8788117e7eff1d82e926ec794901d17c78024a50270940304540a733656f0d60405160405180910390a45050565b6000620001a2836001600160a01b0384166001600160e01b03620001af16565b90505b92915050565b3390565b6000620001c683836001600160e01b036200020716565b620001fe57508154600181810184556000848152602080822090930184905584548482528286019093526040902091909155620001a5565b506000620001a5565b60009081526001919091016020526040902054151590565b61126d806200022f6000396000f3fe608060405234801561001057600080fd5b50600436106101165760003560e01c80639010d07c116100a2578063ab53bf0111610071578063ab53bf0114610338578063ca15c87314610384578063d547741f146103a1578063e450458b146103cd578063ee06402c146103f357610116565b80639010d07c146102a957806391d14854146102e85780639cdac8b814610328578063a217fddf1461033057610116565b80632f2ff15d116100e95780632f2ff15d146101b857806336568abe146101e4578063430eaf91146102105780634ae76f78146102185780634fd66eae1461025657610116565b806306d10ad41461011b5780631e55bb0714610143578063248a9ca3146101815780632a0acc6a146101b0575b600080fd5b6101416004803603602081101561013157600080fd5b50356001600160a01b0316610419565b005b610141600480360360a081101561015957600080fd5b506001600160a01b0381351690602081013590604081013590606081013590608001356104aa565b61019e6004803603602081101561019757600080fd5b5035610675565b60408051918252519081900360200190f35b61019e61068a565b610141600480360360408110156101ce57600080fd5b50803590602001356001600160a01b03166106a7565b610141600480360360408110156101fa57600080fd5b50803590602001356001600160a01b0316610713565b61019e610774565b610141600480360360a081101561022e57600080fd5b506001600160a01b03813516906020810135906040810135906060810135906080013561079a565b61027c6004803603602081101561026c57600080fd5b50356001600160a01b0316610965565b60408051958652602086019490945284840192909252606084015215156080830152519081900360a00190f35b6102cc600480360360408110156102bf57600080fd5b5080359060200135610a53565b604080516001600160a01b039092168252519081900360200190f35b610314600480360360408110156102fe57600080fd5b50803590602001356001600160a01b0316610a7a565b604080519115158252519081900360200190f35b6102cc610a98565b61019e610aa7565b61035e6004803603602081101561034e57600080fd5b50356001600160a01b0316610aac565b604080519485526020850193909352838301919091526060830152519081900360800190f35b61019e6004803603602081101561039a57600080fd5b5035610b18565b610141600480360360408110156103b757600080fd5b50803590602001356001600160a01b0316610b2f565b610141600480360360208110156103e357600080fd5b50356001600160a01b0316610b88565b61035e6004803603602081101561040957600080fd5b50356001600160a01b0316610d87565b604080516420a226a4a760d91b8152905190819003600501902061043d9033610a7a565b61047a576040805162461bcd60e51b81526020600482015260096024820152682737ba1020b236b4b760b91b604482015290519081900360640190fd5b604080516d282620aca2a92fa6a0a720a3a2a960911b8152905190819003600e0190206104a790826106a7565b50565b604080516d282620aca2a92fa6a0a720a3a2a960911b8152905190819003600e0190206104d79033610a7a565b61051d576040805162461bcd60e51b81526020600482015260126024820152712737ba10283630bcb2b91026b0b730b3b2b960711b604482015290519081900360640190fd5b6001600160a01b038516600090815260016020526040902060040154859060ff16610586576040805162461bcd60e51b8152602060048201526014602482015273141b185e595c88191bd95cdb89dd08195e1a5cdd60621b604482015290519081900360640190fd5b6001600160a01b0386166000908152600160205260409020600a01546105b2908663ffffffff610e0816565b6001600160a01b0387166000908152600160205260409020600a810191909155600901546105e6908563ffffffff610e0816565b6001600160a01b03871660009081526001602052604090206009810191909155600b015461061a908463ffffffff610e0816565b6001600160a01b0387166000908152600160205260409020600b810191909155600c015461064e908363ffffffff610e0816565b6001600160a01b039096166000908152600160205260409020600c01959095555050505050565b60009081526020819052604090206002015490565b604080516420a226a4a760d91b8152905190819003600501902081565b6000828152602081905260409020600201546106ca906106c5610e62565b610a7a565b6107055760405162461bcd60e51b815260040180806020018281038252602f8152602001806111aa602f913960400191505060405180910390fd5b61070f8282610e66565b5050565b61071b610e62565b6001600160a01b0316816001600160a01b03161461076a5760405162461bcd60e51b815260040180806020018281038252602f815260200180611209602f913960400191505060405180910390fd5b61070f8282610ed5565b604080516d282620aca2a92fa6a0a720a3a2a960911b8152905190819003600e01902081565b604080516d282620aca2a92fa6a0a720a3a2a960911b8152905190819003600e0190206107c79033610a7a565b61080d576040805162461bcd60e51b81526020600482015260126024820152712737ba10283630bcb2b91026b0b730b3b2b960711b604482015290519081900360640190fd5b6001600160a01b038516600090815260016020526040902060040154859060ff16610876576040805162461bcd60e51b8152602060048201526014602482015273141b185e595c88191bd95cdb89dd08195e1a5cdd60621b604482015290519081900360640190fd5b6001600160a01b0386166000908152600160205260409020600501546108a2908663ffffffff610e0816565b6001600160a01b03871660009081526001602052604090206005810191909155600601546108d6908563ffffffff610e0816565b6001600160a01b038716600090815260016020526040902060068101919091556007015461090a908463ffffffff610e0816565b6001600160a01b038716600090815260016020526040902060078101919091556008015461093e908363ffffffff610e0816565b6001600160a01b039096166000908152600160205260409020600801959095555050505050565b6000806000806000610975611115565b505050506001600160a01b0392909216600090815260016020818152604092839020835160e0810185528154815292810154838301908152600282015484860190815260038301546060808701918252600485015460ff161515608080890191825289518082018b52600588015481526006880154818a01526007880154818c015260088801548185015260a08a015289519081018a5260098701548152600a87015497810197909752600b86015498870198909852600c909401549385019390935260c08501939093529251925191519051935192969195509350565b6000828152602081905260408120610a71908363ffffffff610f4416565b90505b92915050565b6000828152602081905260408120610a71908363ffffffff610f5016565b6002546001600160a01b031681565b600081565b600080600080610aba61115f565b505050506001600160a01b039190911660009081526001602090815260409182902082516080810184526005820154808252600683015493820184905260078301549482018590526008909201546060909101819052909491935090565b6000818152602081905260408120610a7490610f65565b600082815260208190526040902060020154610b4d906106c5610e62565b61076a5760405162461bcd60e51b81526004018080602001828103825260308152602001806111d96030913960400191505060405180910390fd5b6001600160a01b038116600090815260016020526040902060040154819060ff1615610bf3576040805162461bcd60e51b8152602060048201526015602482015274506c6179657220616c72656164792065786973747360581b604482015290519081900360640190fd5b604080516d282620aca2a92fa6a0a720a3a2a960911b8152905190819003600e019020610c209033610a7a565b610c66576040805162461bcd60e51b81526020600482015260126024820152712737ba10283630bcb2b91026b0b730b3b2b960711b604482015290519081900360640190fd5b610c6e61115f565b604051806080016040528060148152602001601481526020016014815260200160148152509050610c9d61115f565b506040805160808082018352600080835260208084018290528385018290526060808501839052855160e08101875260018082528184018581526064838a0181815284860191825297840183815260a085019b8c5260c08501998a526001600160a01b039d909d168752828652958990209251835551908201559351600285015591516003840155965160048301805460ff1916911515919091179055935180516005830155808701516006830155808401516007830155840151600882015590518051600983015594850151600a82015590840151600b820155920151600c9092019190915550565b600080600080610d9561115f565b505050506001600160a01b039190911660009081526001602090815260409182902082516080810184526009820154808252600a830154938201849052600b830154948201859052600c909201546060909101819052909491935090565b6000610a71836001600160a01b038416610f70565b600082820183811015610a71576040805162461bcd60e51b815260206004820152601b60248201527f536166654d6174683a206164646974696f6e206f766572666c6f770000000000604482015290519081900360640190fd5b3390565b6000828152602081905260409020610e84908263ffffffff610df316565b1561070f57610e91610e62565b6001600160a01b0316816001600160a01b0316837f2f8788117e7eff1d82e926ec794901d17c78024a50270940304540a733656f0d60405160405180910390a45050565b6000828152602081905260409020610ef3908263ffffffff610fba16565b1561070f57610f00610e62565b6001600160a01b0316816001600160a01b0316837ff6391f5c32d9c69d2a47ea670b442974b53935d1edc7fd64eb21e047a839171b60405160405180910390a45050565b6000610a718383610fcf565b6000610a71836001600160a01b038416611033565b6000610a748261104b565b6000610f7c8383611033565b610fb257508154600181810184556000848152602080822090930184905584548482528286019093526040902091909155610a74565b506000610a74565b6000610a71836001600160a01b03841661104f565b815460009082106110115760405162461bcd60e51b81526004018080602001828103825260228152602001806111886022913960400191505060405180910390fd5b82600001828154811061102057fe5b9060005260206000200154905092915050565b60009081526001919091016020526040902054151590565b5490565b6000818152600183016020526040812054801561110b578354600019808301919081019060009087908390811061108257fe5b906000526020600020015490508087600001848154811061109f57fe5b6000918252602080832090910192909255828152600189810190925260409020908401905586548790806110cf57fe5b60019003818190600052602060002001600090559055866001016000878152602001908152602001600020600090556001945050505050610a74565b6000915050610a74565b6040518060e001604052806000815260200160008152602001600081526020016000815260200160001515815260200161114d61115f565b815260200161115a61115f565b905290565b604051806080016040528060008152602001600081526020016000815260200160008152509056fe456e756d657261626c655365743a20696e646578206f7574206f6620626f756e6473416363657373436f6e74726f6c3a2073656e646572206d75737420626520616e2061646d696e20746f206772616e74416363657373436f6e74726f6c3a2073656e646572206d75737420626520616e2061646d696e20746f207265766f6b65416363657373436f6e74726f6c3a2063616e206f6e6c792072656e6f756e636520726f6c657320666f722073656c66a26469706673582212200ec9361b896807520720b5655874ed5f295232ef7a1c704e15fca3be59172e5b64736f6c63430006080033",
  "devdoc": {
    "methods": {
      "getRoleAdmin(bytes32)": {
        "details": "Returns the admin role that controls `role`. See {grantRole} and {revokeRole}.     * To change a role's admin, use {_setRoleAdmin}."
      },
      "getRoleMember(bytes32,uint256)": {
        "details": "Returns one of the accounts that have `role`. `index` must be a value between 0 and {getRoleMemberCount}, non-inclusive.     * Role bearers are not sorted in any particular way, and their ordering may change at any point.     * WARNING: When using {getRoleMember} and {getRoleMemberCount}, make sure you perform all queries on the same block. See the following https://forum.openzeppelin.com/t/iterating-over-elements-on-enumerableset-in-openzeppelin-contracts/2296[forum post] for more information."
      },
      "getRoleMemberCount(bytes32)": {
        "details": "Returns the number of accounts that have `role`. Can be used together with {getRoleMember} to enumerate all bearers of a role."
      },
      "grantRole(bytes32,address)": {
        "details": "Grants `role` to `account`.     * If `account` had not been already granted `role`, emits a {RoleGranted} event.     * Requirements:     * - the caller must have ``role``'s admin role."
      },
      "hasRole(bytes32,address)": {
        "details": "Returns `true` if `account` has been granted `role`."
      },
      "renounceRole(bytes32,address)": {
        "details": "Revokes `role` from the calling account.     * Roles are often managed via {grantRole} and {revokeRole}: this function's purpose is to provide a mechanism for accounts to lose their privileges if they are compromised (such as when a trusted device is misplaced).     * If the calling account had been granted `role`, emits a {RoleRevoked} event.     * Requirements:     * - the caller must be `account`."
      },
      "revokeRole(bytes32,address)": {
        "details": "Revokes `role` from `account`.     * If `account` had been granted `role`, emits a {RoleRevoked} event.     * Requirements:     * - the caller must have ``role``'s admin role."
      }
    }
  },
  "userdoc": {
    "methods": {}
  },
  "storageLayout": {
    "storage": [
      {
        "astId": 45,
        "contract": "contracts/player/PlayerStats.sol:PlayerStats",
        "label": "_roles",
        "offset": 0,
        "slot": "0",
        "type": "t_mapping(t_bytes32,t_struct(RoleData)41_storage)"
      },
      {
        "astId": 4320,
        "contract": "contracts/player/PlayerStats.sol:PlayerStats",
        "label": "playerStats",
        "offset": 0,
        "slot": "1",
        "type": "t_mapping(t_address,t_struct(Stats)4298_storage)"
      },
      {
        "astId": 4322,
        "contract": "contracts/player/PlayerStats.sol:PlayerStats",
        "label": "playerManager",
        "offset": 0,
        "slot": "2",
        "type": "t_address"
      }
    ],
    "types": {
      "t_address": {
        "encoding": "inplace",
        "label": "address",
        "numberOfBytes": "20"
      },
      "t_array(t_bytes32)dyn_storage": {
        "base": "t_bytes32",
        "encoding": "dynamic_array",
        "label": "bytes32[]",
        "numberOfBytes": "32"
      },
      "t_bool": {
        "encoding": "inplace",
        "label": "bool",
        "numberOfBytes": "1"
      },
      "t_bytes32": {
        "encoding": "inplace",
        "label": "bytes32",
        "numberOfBytes": "32"
      },
      "t_mapping(t_address,t_struct(Stats)4298_storage)": {
        "encoding": "mapping",
        "key": "t_address",
        "label": "mapping(address => struct PlayerStats.Stats)",
        "numberOfBytes": "32",
        "value": "t_struct(Stats)4298_storage"
      },
      "t_mapping(t_bytes32,t_struct(RoleData)41_storage)": {
        "encoding": "mapping",
        "key": "t_bytes32",
        "label": "mapping(bytes32 => struct AccessControl.RoleData)",
        "numberOfBytes": "32",
        "value": "t_struct(RoleData)41_storage"
      },
      "t_mapping(t_bytes32,t_uint256)": {
        "encoding": "mapping",
        "key": "t_bytes32",
        "label": "mapping(bytes32 => uint256)",
        "numberOfBytes": "32",
        "value": "t_uint256"
      },
      "t_struct(AddressSet)3357_storage": {
        "encoding": "inplace",
        "label": "struct EnumerableSet.AddressSet",
        "members": [
          {
            "astId": 3356,
            "contract": "contracts/player/PlayerStats.sol:PlayerStats",
            "label": "_inner",
            "offset": 0,
            "slot": "0",
            "type": "t_struct(Set)3092_storage"
          }
        ],
        "numberOfBytes": "64"
      },
      "t_struct(BattleStats)4307_storage": {
        "encoding": "inplace",
        "label": "struct PlayerStats.BattleStats",
        "members": [
          {
            "astId": 4300,
            "contract": "contracts/player/PlayerStats.sol:PlayerStats",
            "label": "baseStrength",
            "offset": 0,
            "slot": "0",
            "type": "t_uint256"
          },
          {
            "astId": 4302,
            "contract": "contracts/player/PlayerStats.sol:PlayerStats",
            "label": "baseDexterity",
            "offset": 0,
            "slot": "1",
            "type": "t_uint256"
          },
          {
            "astId": 4304,
            "contract": "contracts/player/PlayerStats.sol:PlayerStats",
            "label": "baseDefence",
            "offset": 0,
            "slot": "2",
            "type": "t_uint256"
          },
          {
            "astId": 4306,
            "contract": "contracts/player/PlayerStats.sol:PlayerStats",
            "label": "baseConstitution",
            "offset": 0,
            "slot": "3",
            "type": "t_uint256"
          }
        ],
        "numberOfBytes": "128"
      },
      "t_struct(FarmingStats)4316_storage": {
        "encoding": "inplace",
        "label": "struct PlayerStats.FarmingStats",
        "members": [
          {
            "astId": 4309,
            "contract": "contracts/player/PlayerStats.sol:PlayerStats",
            "label": "degeneracy",
            "offset": 0,
            "slot": "0",
            "type": "t_uint256"
          },
          {
            "astId": 4311,
            "contract": "contracts/player/PlayerStats.sol:PlayerStats",
            "label": "chadary",
            "offset": 0,
            "slot": "1",
            "type": "t_uint256"
          },
          {
            "astId": 4313,
            "contract": "contracts/player/PlayerStats.sol:PlayerStats",
            "label": "fomostition",
            "offset": 0,
            "slot": "2",
            "type": "t_uint256"
          },
          {
            "astId": 4315,
            "contract": "contracts/player/PlayerStats.sol:PlayerStats",
            "label": "rugpullable",
            "offset": 0,
            "slot": "3",
            "type": "t_uint256"
          }
        ],
        "numberOfBytes": "128"
      },
      "t_struct(RoleData)41_storage": {
        "encoding": "inplace",
        "label": "struct AccessControl.RoleData",
        "members": [
          {
            "astId": 38,
            "contract": "contracts/player/PlayerStats.sol:PlayerStats",
            "label": "members",
            "offset": 0,
            "slot": "0",
            "type": "t_struct(AddressSet)3357_storage"
          },
          {
            "astId": 40,
            "contract": "contracts/player/PlayerStats.sol:PlayerStats",
            "label": "adminRole",
            "offset": 0,
            "slot": "2",
            "type": "t_bytes32"
          }
        ],
        "numberOfBytes": "96"
      },
      "t_struct(Set)3092_storage": {
        "encoding": "inplace",
        "label": "struct EnumerableSet.Set",
        "members": [
          {
            "astId": 3087,
            "contract": "contracts/player/PlayerStats.sol:PlayerStats",
            "label": "_values",
            "offset": 0,
            "slot": "0",
            "type": "t_array(t_bytes32)dyn_storage"
          },
          {
            "astId": 3091,
            "contract": "contracts/player/PlayerStats.sol:PlayerStats",
            "label": "_indexes",
            "offset": 0,
            "slot": "1",
            "type": "t_mapping(t_bytes32,t_uint256)"
          }
        ],
        "numberOfBytes": "64"
      },
      "t_struct(Stats)4298_storage": {
        "encoding": "inplace",
        "label": "struct PlayerStats.Stats",
        "members": [
          {
            "astId": 4285,
            "contract": "contracts/player/PlayerStats.sol:PlayerStats",
            "label": "level",
            "offset": 0,
            "slot": "0",
            "type": "t_uint256"
          },
          {
            "astId": 4287,
            "contract": "contracts/player/PlayerStats.sol:PlayerStats",
            "label": "experience",
            "offset": 0,
            "slot": "1",
            "type": "t_uint256"
          },
          {
            "astId": 4289,
            "contract": "contracts/player/PlayerStats.sol:PlayerStats",
            "label": "baseHealth",
            "offset": 0,
            "slot": "2",
            "type": "t_uint256"
          },
          {
            "astId": 4291,
            "contract": "contracts/player/PlayerStats.sol:PlayerStats",
            "label": "currentHealth",
            "offset": 0,
            "slot": "3",
            "type": "t_uint256"
          },
          {
            "astId": 4293,
            "contract": "contracts/player/PlayerStats.sol:PlayerStats",
            "label": "isPlayer",
            "offset": 0,
            "slot": "4",
            "type": "t_bool"
          },
          {
            "astId": 4295,
            "contract": "contracts/player/PlayerStats.sol:PlayerStats",
            "label": "battleStats",
            "offset": 0,
            "slot": "5",
            "type": "t_struct(BattleStats)4307_storage"
          },
          {
            "astId": 4297,
            "contract": "contracts/player/PlayerStats.sol:PlayerStats",
            "label": "farmingStats",
            "offset": 0,
            "slot": "9",
            "type": "t_struct(FarmingStats)4316_storage"
          }
        ],
        "numberOfBytes": "416"
      },
      "t_uint256": {
        "encoding": "inplace",
        "label": "uint256",
        "numberOfBytes": "32"
      }
    }
  }
}