{
  "address": "0xCf7Ed3AccA5a467e9e704C703E8D87F634fB0Fc9",
  "abi": [
    {
      "inputs": [],
      "stateMutability": "nonpayable",
      "type": "constructor"
    },
    {
      "anonymous": false,
      "inputs": [
        {
          "indexed": true,
          "internalType": "bytes32",
          "name": "role",
          "type": "bytes32"
        },
        {
          "indexed": true,
          "internalType": "bytes32",
          "name": "previousAdminRole",
          "type": "bytes32"
        },
        {
          "indexed": true,
          "internalType": "bytes32",
          "name": "newAdminRole",
          "type": "bytes32"
        }
      ],
      "name": "RoleAdminChanged",
      "type": "event"
    },
    {
      "anonymous": false,
      "inputs": [
        {
          "indexed": true,
          "internalType": "bytes32",
          "name": "role",
          "type": "bytes32"
        },
        {
          "indexed": true,
          "internalType": "address",
          "name": "account",
          "type": "address"
        },
        {
          "indexed": true,
          "internalType": "address",
          "name": "sender",
          "type": "address"
        }
      ],
      "name": "RoleGranted",
      "type": "event"
    },
    {
      "anonymous": false,
      "inputs": [
        {
          "indexed": true,
          "internalType": "bytes32",
          "name": "role",
          "type": "bytes32"
        },
        {
          "indexed": true,
          "internalType": "address",
          "name": "account",
          "type": "address"
        },
        {
          "indexed": true,
          "internalType": "address",
          "name": "sender",
          "type": "address"
        }
      ],
      "name": "RoleRevoked",
      "type": "event"
    },
    {
      "inputs": [],
      "name": "ADMIN",
      "outputs": [
        {
          "internalType": "bytes32",
          "name": "",
          "type": "bytes32"
        }
      ],
      "stateMutability": "view",
      "type": "function"
    },
    {
      "inputs": [],
      "name": "DEFAULT_ADMIN_ROLE",
      "outputs": [
        {
          "internalType": "bytes32",
          "name": "",
          "type": "bytes32"
        }
      ],
      "stateMutability": "view",
      "type": "function"
    },
    {
      "inputs": [],
      "name": "create",
      "outputs": [],
      "stateMutability": "nonpayable",
      "type": "function"
    },
    {
      "inputs": [
        {
          "internalType": "bytes32",
          "name": "role",
          "type": "bytes32"
        }
      ],
      "name": "getRoleAdmin",
      "outputs": [
        {
          "internalType": "bytes32",
          "name": "",
          "type": "bytes32"
        }
      ],
      "stateMutability": "view",
      "type": "function"
    },
    {
      "inputs": [
        {
          "internalType": "bytes32",
          "name": "role",
          "type": "bytes32"
        },
        {
          "internalType": "uint256",
          "name": "index",
          "type": "uint256"
        }
      ],
      "name": "getRoleMember",
      "outputs": [
        {
          "internalType": "address",
          "name": "",
          "type": "address"
        }
      ],
      "stateMutability": "view",
      "type": "function"
    },
    {
      "inputs": [
        {
          "internalType": "bytes32",
          "name": "role",
          "type": "bytes32"
        }
      ],
      "name": "getRoleMemberCount",
      "outputs": [
        {
          "internalType": "uint256",
          "name": "",
          "type": "uint256"
        }
      ],
      "stateMutability": "view",
      "type": "function"
    },
    {
      "inputs": [
        {
          "internalType": "bytes32",
          "name": "role",
          "type": "bytes32"
        },
        {
          "internalType": "address",
          "name": "account",
          "type": "address"
        }
      ],
      "name": "grantRole",
      "outputs": [],
      "stateMutability": "nonpayable",
      "type": "function"
    },
    {
      "inputs": [
        {
          "internalType": "bytes32",
          "name": "role",
          "type": "bytes32"
        },
        {
          "internalType": "address",
          "name": "account",
          "type": "address"
        }
      ],
      "name": "hasRole",
      "outputs": [
        {
          "internalType": "bool",
          "name": "",
          "type": "bool"
        }
      ],
      "stateMutability": "view",
      "type": "function"
    },
    {
      "inputs": [
        {
          "internalType": "address",
          "name": "_who",
          "type": "address"
        }
      ],
      "name": "isPlayer",
      "outputs": [
        {
          "internalType": "bool",
          "name": "",
          "type": "bool"
        }
      ],
      "stateMutability": "view",
      "type": "function"
    },
    {
      "inputs": [
        {
          "internalType": "bytes32",
          "name": "role",
          "type": "bytes32"
        },
        {
          "internalType": "address",
          "name": "account",
          "type": "address"
        }
      ],
      "name": "renounceRole",
      "outputs": [],
      "stateMutability": "nonpayable",
      "type": "function"
    },
    {
      "inputs": [
        {
          "internalType": "bytes32",
          "name": "role",
          "type": "bytes32"
        },
        {
          "internalType": "address",
          "name": "account",
          "type": "address"
        }
      ],
      "name": "revokeRole",
      "outputs": [],
      "stateMutability": "nonpayable",
      "type": "function"
    },
    {
      "inputs": [
        {
          "internalType": "address",
          "name": "_playerStats",
          "type": "address"
        }
      ],
      "name": "setPlayerStatsAddress",
      "outputs": [],
      "stateMutability": "nonpayable",
      "type": "function"
    }
  ],
  "transactionHash": "0xdff687ed2ec50a9632a6a913609ec7bf82608df87101e82034ce9d3296177ac8",
  "args": [],
  "solcInputHash": "25d6df4598b0de10a52cb66f2281d623",
  "bytecode": "0x608060405234801561001057600080fd5b50604080516420a226a4a760d91b8152905190819003600501902061003e90336001600160e01b0361004316565b61016c565b61005682826001600160e01b0361005a16565b5050565b60008281526020818152604090912061007c91839061059c6100d6821b17901c565b15610056576100926001600160e01b036100fd16565b6001600160a01b0316816001600160a01b0316837f2f8788117e7eff1d82e926ec794901d17c78024a50270940304540a733656f0d60405160405180910390a45050565b60006100f4836001600160a01b0384166001600160e01b0361010116565b90505b92915050565b3390565b600061011683836001600160e01b0361015416565b61014c575081546001818101845560008481526020808220909301849055845484825282860190935260409020919091556100f7565b5060006100f7565b60009081526001919091016020526040902054151590565b61094a8061017b6000396000f3fe608060405234801561001057600080fd5b50600436106100b45760003560e01c806391d148541161007157806391d14854146101c3578063a217fddf146101ef578063c1717197146101f7578063ca15c8731461021d578063d547741f1461023a578063efc81a8c14610266576100b4565b806309c95e10146100b9578063248a9ca3146100f35780632a0acc6a146101225780632f2ff15d1461012a57806336568abe146101585780639010d07c14610184575b600080fd5b6100df600480360360208110156100cf57600080fd5b50356001600160a01b031661026e565b604080519115158252519081900360200190f35b6101106004803603602081101561010957600080fd5b503561028c565b60408051918252519081900360200190f35b6101106102a1565b6101566004803603604081101561014057600080fd5b50803590602001356001600160a01b03166102be565b005b6101566004803603604081101561016e57600080fd5b50803590602001356001600160a01b031661032a565b6101a76004803603604081101561019a57600080fd5b508035906020013561038b565b604080516001600160a01b039092168252519081900360200190f35b6100df600480360360408110156101d957600080fd5b50803590602001356001600160a01b03166103b2565b6101106103d0565b6101566004803603602081101561020d57600080fd5b50356001600160a01b03166103d5565b6101106004803603602081101561023357600080fd5b5035610458565b6101566004803603604081101561025057600080fd5b50803590602001356001600160a01b031661046f565b6101566104c8565b6001600160a01b031660009081526001602052604090205460ff1690565b60009081526020819052604090206002015490565b604080516420a226a4a760d91b8152905190819003600501902081565b6000828152602081905260409020600201546102e1906102dc6105b1565b6103b2565b61031c5760405162461bcd60e51b815260040180806020018281038252602f815260200180610887602f913960400191505060405180910390fd5b61032682826105b5565b5050565b6103326105b1565b6001600160a01b0316816001600160a01b0316146103815760405162461bcd60e51b815260040180806020018281038252602f8152602001806108e6602f913960400191505060405180910390fd5b6103268282610624565b60008281526020819052604081206103a9908363ffffffff61069316565b90505b92915050565b60008281526020819052604081206103a9908363ffffffff61069f16565b600081565b604080516420a226a4a760d91b815290519081900360050190206103f990336103b2565b610436576040805162461bcd60e51b81526020600482015260096024820152682737ba1020b236b4b760b91b604482015290519081900360640190fd5b600280546001600160a01b0319166001600160a01b0392909216919091179055565b60008181526020819052604081206103ac906106b4565b60008281526020819052604090206002015461048d906102dc6105b1565b6103815760405162461bcd60e51b81526004018080602001828103825260308152602001806108b66030913960400191505060405180910390fd5b6104d13361026e565b1561051c576040805162461bcd60e51b81526020600482015260166024820152754163636f756e7420616c72656164792065786973747360501b604482015290519081900360640190fd5b336000818152600160208190526040808320805460ff1916909217909155600254815163e450458b60e01b8152600481019490945290516001600160a01b039091169263e450458b92602480830193919282900301818387803b15801561058257600080fd5b505af1158015610596573d6000803e3d6000fd5b50505050565b60006103a9836001600160a01b0384166106bf565b3390565b60008281526020819052604090206105d3908263ffffffff61059c16565b15610326576105e06105b1565b6001600160a01b0316816001600160a01b0316837f2f8788117e7eff1d82e926ec794901d17c78024a50270940304540a733656f0d60405160405180910390a45050565b6000828152602081905260409020610642908263ffffffff61070916565b156103265761064f6105b1565b6001600160a01b0316816001600160a01b0316837ff6391f5c32d9c69d2a47ea670b442974b53935d1edc7fd64eb21e047a839171b60405160405180910390a45050565b60006103a9838361071e565b60006103a9836001600160a01b038416610782565b60006103ac8261079a565b60006106cb8383610782565b610701575081546001818101845560008481526020808220909301849055845484825282860190935260409020919091556103ac565b5060006103ac565b60006103a9836001600160a01b03841661079e565b815460009082106107605760405162461bcd60e51b81526004018080602001828103825260228152602001806108656022913960400191505060405180910390fd5b82600001828154811061076f57fe5b9060005260206000200154905092915050565b60009081526001919091016020526040902054151590565b5490565b6000818152600183016020526040812054801561085a57835460001980830191908101906000908790839081106107d157fe5b90600052602060002001549050808760000184815481106107ee57fe5b60009182526020808320909101929092558281526001898101909252604090209084019055865487908061081e57fe5b600190038181906000526020600020016000905590558660010160008781526020019081526020016000206000905560019450505050506103ac565b60009150506103ac56fe456e756d657261626c655365743a20696e646578206f7574206f6620626f756e6473416363657373436f6e74726f6c3a2073656e646572206d75737420626520616e2061646d696e20746f206772616e74416363657373436f6e74726f6c3a2073656e646572206d75737420626520616e2061646d696e20746f207265766f6b65416363657373436f6e74726f6c3a2063616e206f6e6c792072656e6f756e636520726f6c657320666f722073656c66a26469706673582212209a0e2a18a8e02a2f56378ea55f0c29c05d195a67fa37ecaf4e06e76e30a521dc64736f6c63430006080033",
  "devdoc": {
    "methods": {
      "getRoleAdmin(bytes32)": {
        "details": "Returns the admin role that controls `role`. See {grantRole} and {revokeRole}.     * To change a role's admin, use {_setRoleAdmin}."
      },
      "getRoleMember(bytes32,uint256)": {
        "details": "Returns one of the accounts that have `role`. `index` must be a value between 0 and {getRoleMemberCount}, non-inclusive.     * Role bearers are not sorted in any particular way, and their ordering may change at any point.     * WARNING: When using {getRoleMember} and {getRoleMemberCount}, make sure you perform all queries on the same block. See the following https://forum.openzeppelin.com/t/iterating-over-elements-on-enumerableset-in-openzeppelin-contracts/2296[forum post] for more information."
      },
      "getRoleMemberCount(bytes32)": {
        "details": "Returns the number of accounts that have `role`. Can be used together with {getRoleMember} to enumerate all bearers of a role."
      },
      "grantRole(bytes32,address)": {
        "details": "Grants `role` to `account`.     * If `account` had not been already granted `role`, emits a {RoleGranted} event.     * Requirements:     * - the caller must have ``role``'s admin role."
      },
      "hasRole(bytes32,address)": {
        "details": "Returns `true` if `account` has been granted `role`."
      },
      "renounceRole(bytes32,address)": {
        "details": "Revokes `role` from the calling account.     * Roles are often managed via {grantRole} and {revokeRole}: this function's purpose is to provide a mechanism for accounts to lose their privileges if they are compromised (such as when a trusted device is misplaced).     * If the calling account had been granted `role`, emits a {RoleRevoked} event.     * Requirements:     * - the caller must be `account`."
      },
      "revokeRole(bytes32,address)": {
        "details": "Revokes `role` from `account`.     * If `account` had been granted `role`, emits a {RoleRevoked} event.     * Requirements:     * - the caller must have ``role``'s admin role."
      }
    }
  },
  "userdoc": {
    "methods": {}
  },
  "storageLayout": {
    "storage": [
      {
        "astId": 45,
        "contract": "contracts/player/Player.sol:Player",
        "label": "_roles",
        "offset": 0,
        "slot": "0",
        "type": "t_mapping(t_bytes32,t_struct(RoleData)41_storage)"
      },
      {
        "astId": 4177,
        "contract": "contracts/player/Player.sol:Player",
        "label": "accounts",
        "offset": 0,
        "slot": "1",
        "type": "t_mapping(t_address,t_bool)"
      },
      {
        "astId": 4179,
        "contract": "contracts/player/Player.sol:Player",
        "label": "playerStats",
        "offset": 0,
        "slot": "2",
        "type": "t_address"
      }
    ],
    "types": {
      "t_address": {
        "encoding": "inplace",
        "label": "address",
        "numberOfBytes": "20"
      },
      "t_array(t_bytes32)dyn_storage": {
        "base": "t_bytes32",
        "encoding": "dynamic_array",
        "label": "bytes32[]",
        "numberOfBytes": "32"
      },
      "t_bool": {
        "encoding": "inplace",
        "label": "bool",
        "numberOfBytes": "1"
      },
      "t_bytes32": {
        "encoding": "inplace",
        "label": "bytes32",
        "numberOfBytes": "32"
      },
      "t_mapping(t_address,t_bool)": {
        "encoding": "mapping",
        "key": "t_address",
        "label": "mapping(address => bool)",
        "numberOfBytes": "32",
        "value": "t_bool"
      },
      "t_mapping(t_bytes32,t_struct(RoleData)41_storage)": {
        "encoding": "mapping",
        "key": "t_bytes32",
        "label": "mapping(bytes32 => struct AccessControl.RoleData)",
        "numberOfBytes": "32",
        "value": "t_struct(RoleData)41_storage"
      },
      "t_mapping(t_bytes32,t_uint256)": {
        "encoding": "mapping",
        "key": "t_bytes32",
        "label": "mapping(bytes32 => uint256)",
        "numberOfBytes": "32",
        "value": "t_uint256"
      },
      "t_struct(AddressSet)3357_storage": {
        "encoding": "inplace",
        "label": "struct EnumerableSet.AddressSet",
        "members": [
          {
            "astId": 3356,
            "contract": "contracts/player/Player.sol:Player",
            "label": "_inner",
            "offset": 0,
            "slot": "0",
            "type": "t_struct(Set)3092_storage"
          }
        ],
        "numberOfBytes": "64"
      },
      "t_struct(RoleData)41_storage": {
        "encoding": "inplace",
        "label": "struct AccessControl.RoleData",
        "members": [
          {
            "astId": 38,
            "contract": "contracts/player/Player.sol:Player",
            "label": "members",
            "offset": 0,
            "slot": "0",
            "type": "t_struct(AddressSet)3357_storage"
          },
          {
            "astId": 40,
            "contract": "contracts/player/Player.sol:Player",
            "label": "adminRole",
            "offset": 0,
            "slot": "2",
            "type": "t_bytes32"
          }
        ],
        "numberOfBytes": "96"
      },
      "t_struct(Set)3092_storage": {
        "encoding": "inplace",
        "label": "struct EnumerableSet.Set",
        "members": [
          {
            "astId": 3087,
            "contract": "contracts/player/Player.sol:Player",
            "label": "_values",
            "offset": 0,
            "slot": "0",
            "type": "t_array(t_bytes32)dyn_storage"
          },
          {
            "astId": 3091,
            "contract": "contracts/player/Player.sol:Player",
            "label": "_indexes",
            "offset": 0,
            "slot": "1",
            "type": "t_mapping(t_bytes32,t_uint256)"
          }
        ],
        "numberOfBytes": "64"
      },
      "t_uint256": {
        "encoding": "inplace",
        "label": "uint256",
        "numberOfBytes": "32"
      }
    }
  }
}