{
  "address": "0xDc64a140Aa3E981100a9becA4E685f962f0cF6C9",
  "abi": [
    {
      "inputs": [],
      "stateMutability": "nonpayable",
      "type": "constructor"
    },
    {
      "anonymous": false,
      "inputs": [
        {
          "indexed": false,
          "internalType": "address",
          "name": "schemeAddress",
          "type": "address"
        },
        {
          "indexed": false,
          "internalType": "uint256",
          "name": "id",
          "type": "uint256"
        },
        {
          "indexed": false,
          "internalType": "uint256",
          "name": "when",
          "type": "uint256"
        }
      ],
      "name": "SchemeAdded",
      "type": "event"
    },
    {
      "anonymous": false,
      "inputs": [
        {
          "indexed": false,
          "internalType": "address",
          "name": "schemeAddress",
          "type": "address"
        },
        {
          "indexed": false,
          "internalType": "address",
          "name": "who",
          "type": "address"
        },
        {
          "indexed": false,
          "internalType": "uint256",
          "name": "when",
          "type": "uint256"
        }
      ],
      "name": "SchemeStarted",
      "type": "event"
    },
    {
      "inputs": [
        {
          "internalType": "address",
          "name": "_schemeAddress",
          "type": "address"
        }
      ],
      "name": "addScheme",
      "outputs": [],
      "stateMutability": "nonpayable",
      "type": "function"
    },
    {
      "inputs": [],
      "name": "completeScheme",
      "outputs": [],
      "stateMutability": "nonpayable",
      "type": "function"
    },
    {
      "inputs": [
        {
          "internalType": "address",
          "name": "_who",
          "type": "address"
        }
      ],
      "name": "getOngoingScheme",
      "outputs": [
        {
          "internalType": "bool",
          "name": "_isOngoing",
          "type": "bool"
        },
        {
          "internalType": "uint256",
          "name": "_schemeId",
          "type": "uint256"
        },
        {
          "internalType": "address",
          "name": "_schemeAddress",
          "type": "address"
        },
        {
          "internalType": "uint256",
          "name": "_timeStarted",
          "type": "uint256"
        },
        {
          "internalType": "uint256",
          "name": "_timeCompleting",
          "type": "uint256"
        }
      ],
      "stateMutability": "view",
      "type": "function"
    },
    {
      "inputs": [],
      "name": "listSchemes",
      "outputs": [
        {
          "internalType": "bool[]",
          "name": "_schemes",
          "type": "bool[]"
        }
      ],
      "stateMutability": "view",
      "type": "function"
    },
    {
      "inputs": [],
      "name": "nextSchemeId",
      "outputs": [
        {
          "internalType": "uint256",
          "name": "",
          "type": "uint256"
        }
      ],
      "stateMutability": "view",
      "type": "function"
    },
    {
      "inputs": [
        {
          "internalType": "uint256",
          "name": "",
          "type": "uint256"
        }
      ],
      "name": "schemes",
      "outputs": [
        {
          "internalType": "address",
          "name": "schemeAddress",
          "type": "address"
        },
        {
          "internalType": "bool",
          "name": "isScheme",
          "type": "bool"
        }
      ],
      "stateMutability": "view",
      "type": "function"
    },
    {
      "inputs": [],
      "name": "skipScheme",
      "outputs": [],
      "stateMutability": "nonpayable",
      "type": "function"
    },
    {
      "inputs": [
        {
          "internalType": "uint256",
          "name": "_schemeId",
          "type": "uint256"
        }
      ],
      "name": "startScheme",
      "outputs": [],
      "stateMutability": "nonpayable",
      "type": "function"
    }
  ],
  "transactionHash": "0x180f7d0f0a2d4fb2726a2547aacecfe09cc67a21e80fe3c92f6b8c925936bd43",
  "args": [],
  "solcInputHash": "8f1eaf940c377f820c07e3c6dbeebcfa",
  "bytecode": "0x608060405234801561001057600080fd5b5060016000556109ac806100256000396000f3fe608060405234801561001057600080fd5b50600436106100885760003560e01c80638657fa791161005b5780638657fa7914610135578063b1f7c7e01461018d578063bb52085e146101a7578063cd8321c1146101e757610088565b806301f66ef41461008d57806351e65d64146100ac578063589de82d146100b45780635b510dbb146100da575b600080fd5b6100aa600480360360208110156100a357600080fd5b50356101ef565b005b6100aa610388565b6100aa600480360360208110156100ca57600080fd5b50356001600160a01b03166104cd565b610100600480360360208110156100f057600080fd5b50356001600160a01b0316610588565b60408051951515865260208601949094526001600160a01b039092168484015260608401526080830152519081900360a00190f35b61013d610617565b60408051602080825283518183015283519192839290830191858101910280838360005b83811015610179578181015183820152602001610161565b505050509050019250505060405180910390f35b6101956106b8565b60408051918252519081900360200190f35b6101c4600480360360208110156101bd57600080fd5b50356106be565b604080516001600160a01b03909316835290151560208301528051918290030190f35b6100aa6106e5565b600081815260036020526040902054600160a01b900460ff16610251576040805162461bcd60e51b815260206004820152601560248201527424b73b30b634b21039b1b432b6b29031b437b9b2b760591b604482015290519081900360640190fd5b3360009081526002602052604090205460ff16156102b6576040805162461bcd60e51b815260206004820152601f60248201527f4120736368656d6520697320616c726561647920696e2070726f677265737300604482015290519081900360640190fd5b600081815260036020526040808220548151636e85940f60e11b815233600482015291516001600160a01b039091169263dd0b281e926024808201939182900301818387803b15801561030857600080fd5b505af115801561031c573d6000803e3d6000fd5b5050505061032a3382610741565b6000818152600360209081526040918290205482516001600160a01b0390911681523391810191909152428183015290517f40cb373538b7861d93a435fa219ff941fb43218e6a163f4d76d175ba3c1d8c409181900360600190a150565b3360009081526002602052604090205460ff166103e4576040805162461bcd60e51b81526020600482015260156024820152744e6f20736368656d6520696e2070726f677265737360581b604482015290519081900360640190fd5b33600090815260016020526040902060020154421015610444576040805162461bcd60e51b8152602060048201526016602482015275536368656d65206973206e6f7420636f6d706c65746560501b604482015290519081900360640190fd5b3360008181526001602090815260408083205480845260039092528083205481516349d7814960e11b81526004810195909552905191936001600160a01b03909116926393af02929260248084019382900301818387803b1580156104a857600080fd5b505af11580156104bc573d6000803e3d6000fd5b505050506104ca338261087e565b50565b600054604080516001600160a01b038416815260208101929092524282820152517f1e674b98e7b5009696cddd1156cc26a69d6577667254d8b810d889d357128d9a9181900360600190a16040805180820182526001600160a01b0383811682526001602080840182815260008054815260039092529481209351845495516001600160a01b031990961693169290921760ff60a01b1916600160a01b94151594909402939093179091555461058291610915565b60005550565b6001600160a01b038116600090815260026020526040812054819081908190819060ff16156105fe57505050506001600160a01b0382811660008181526001602081815260408084208054808652600384529185205495909452908290528282015460029093015491955093929092169161060e565b5060009350839250829150819050805b91939590929450565b60608060005467ffffffffffffffff8111801561063357600080fd5b5060405190808252806020026020018201604052801561065d578160200160208202803683370190505b50905060005b6000548110156106b257600081815260036020526040902054600160a01b900460ff16156106aa57600182828151811061069957fe5b911515602092830291909101909101525b600101610663565b50905090565b60005481565b6003602052600090815260409020546001600160a01b03811690600160a01b900460ff1682565b3360009081526002602052604090205460ff16610444576040805162461bcd60e51b81526020600482015260156024820152744e6f20736368656d6520696e2070726f677265737360581b604482015290519081900360640190fd5b6001600160a01b03821660009081526002602052604090205460ff16156107af576040805162461bcd60e51b815260206004820152601f60248201527f4120736368656d6520697320616c726561647920696e2070726f677265737300604482015290519081900360640190fd5b6001600160a01b038083166000908152600260209081526040808320805460ff191660019081179091553384528083528184208681554291015584835260038252918290205482516303ed69ad60e21b81529251610867949190911692630fb5a6b4926004808301939192829003018186803b15801561082e57600080fd5b505afa158015610842573d6000803e3d6000fd5b505050506040513d602081101561085857600080fd5b5051429063ffffffff61091516565b336000908152600160205260409020600201555050565b3360009081526002602052604090205460ff166108da576040805162461bcd60e51b81526020600482015260156024820152744e6f20736368656d6520696e2070726f677265737360581b604482015290519081900360640190fd5b506001600160a01b03166000908152600260208181526040808420805460ff1916905533845260019182905283208381559081018390550155565b60008282018381101561096f576040805162461bcd60e51b815260206004820152601b60248201527f536166654d6174683a206164646974696f6e206f766572666c6f770000000000604482015290519081900360640190fd5b939250505056fea26469706673582212208afdba9f01e4d118d5df9fdfefe4def9ed5ce65c1e78b3e12208903dd2f2dc0464736f6c63430006080033",
  "devdoc": {
    "methods": {}
  },
  "userdoc": {
    "methods": {}
  },
  "storageLayout": {
    "storage": [
      {
        "astId": 5327,
        "contract": "contracts/schemes/SchemeManager.sol:SchemeManager",
        "label": "nextSchemeId",
        "offset": 0,
        "slot": "0",
        "type": "t_uint256"
      },
      {
        "astId": 5331,
        "contract": "contracts/schemes/SchemeManager.sol:SchemeManager",
        "label": "ongoingSchemes",
        "offset": 0,
        "slot": "1",
        "type": "t_mapping(t_address,t_struct(OngoingScheme)5325_storage)"
      },
      {
        "astId": 5335,
        "contract": "contracts/schemes/SchemeManager.sol:SchemeManager",
        "label": "hasOngoingScheme",
        "offset": 0,
        "slot": "2",
        "type": "t_mapping(t_address,t_bool)"
      },
      {
        "astId": 5339,
        "contract": "contracts/schemes/SchemeManager.sol:SchemeManager",
        "label": "schemes",
        "offset": 0,
        "slot": "3",
        "type": "t_mapping(t_uint256,t_struct(Scheme)5318_storage)"
      }
    ],
    "types": {
      "t_address": {
        "encoding": "inplace",
        "label": "address",
        "numberOfBytes": "20"
      },
      "t_bool": {
        "encoding": "inplace",
        "label": "bool",
        "numberOfBytes": "1"
      },
      "t_mapping(t_address,t_bool)": {
        "encoding": "mapping",
        "key": "t_address",
        "label": "mapping(address => bool)",
        "numberOfBytes": "32",
        "value": "t_bool"
      },
      "t_mapping(t_address,t_struct(OngoingScheme)5325_storage)": {
        "encoding": "mapping",
        "key": "t_address",
        "label": "mapping(address => struct SchemeManager.OngoingScheme)",
        "numberOfBytes": "32",
        "value": "t_struct(OngoingScheme)5325_storage"
      },
      "t_mapping(t_uint256,t_struct(Scheme)5318_storage)": {
        "encoding": "mapping",
        "key": "t_uint256",
        "label": "mapping(uint256 => struct SchemeManager.Scheme)",
        "numberOfBytes": "32",
        "value": "t_struct(Scheme)5318_storage"
      },
      "t_struct(OngoingScheme)5325_storage": {
        "encoding": "inplace",
        "label": "struct SchemeManager.OngoingScheme",
        "members": [
          {
            "astId": 5320,
            "contract": "contracts/schemes/SchemeManager.sol:SchemeManager",
            "label": "schemeId",
            "offset": 0,
            "slot": "0",
            "type": "t_uint256"
          },
          {
            "astId": 5322,
            "contract": "contracts/schemes/SchemeManager.sol:SchemeManager",
            "label": "timeStarted",
            "offset": 0,
            "slot": "1",
            "type": "t_uint256"
          },
          {
            "astId": 5324,
            "contract": "contracts/schemes/SchemeManager.sol:SchemeManager",
            "label": "timeCompleting",
            "offset": 0,
            "slot": "2",
            "type": "t_uint256"
          }
        ],
        "numberOfBytes": "96"
      },
      "t_struct(Scheme)5318_storage": {
        "encoding": "inplace",
        "label": "struct SchemeManager.Scheme",
        "members": [
          {
            "astId": 5315,
            "contract": "contracts/schemes/SchemeManager.sol:SchemeManager",
            "label": "schemeAddress",
            "offset": 0,
            "slot": "0",
            "type": "t_address"
          },
          {
            "astId": 5317,
            "contract": "contracts/schemes/SchemeManager.sol:SchemeManager",
            "label": "isScheme",
            "offset": 20,
            "slot": "0",
            "type": "t_bool"
          }
        ],
        "numberOfBytes": "32"
      },
      "t_uint256": {
        "encoding": "inplace",
        "label": "uint256",
        "numberOfBytes": "32"
      }
    }
  }
}