{
  "address": "0x0165878A594ca255338adfa4d48449f69242Eb8F",
  "abi": [
    {
      "inputs": [],
      "stateMutability": "nonpayable",
      "type": "constructor"
    },
    {
      "anonymous": false,
      "inputs": [
        {
          "indexed": false,
          "internalType": "address",
          "name": "schemeAddress",
          "type": "address"
        },
        {
          "indexed": false,
          "internalType": "uint256",
          "name": "id",
          "type": "uint256"
        },
        {
          "indexed": false,
          "internalType": "uint256",
          "name": "when",
          "type": "uint256"
        }
      ],
      "name": "SchemeAdded",
      "type": "event"
    },
    {
      "anonymous": false,
      "inputs": [
        {
          "indexed": false,
          "internalType": "address",
          "name": "schemeAddress",
          "type": "address"
        },
        {
          "indexed": false,
          "internalType": "address",
          "name": "who",
          "type": "address"
        },
        {
          "indexed": false,
          "internalType": "uint256",
          "name": "when",
          "type": "uint256"
        }
      ],
      "name": "SchemeStarted",
      "type": "event"
    },
    {
      "inputs": [
        {
          "internalType": "address",
          "name": "_schemeAddress",
          "type": "address"
        }
      ],
      "name": "addScheme",
      "outputs": [],
      "stateMutability": "nonpayable",
      "type": "function"
    },
    {
      "inputs": [],
      "name": "completeScheme",
      "outputs": [],
      "stateMutability": "nonpayable",
      "type": "function"
    },
    {
      "inputs": [
        {
          "internalType": "address",
          "name": "_who",
          "type": "address"
        }
      ],
      "name": "getOngoingScheme",
      "outputs": [
        {
          "internalType": "bool",
          "name": "_isOngoing",
          "type": "bool"
        },
        {
          "internalType": "uint256",
          "name": "_schemeId",
          "type": "uint256"
        },
        {
          "internalType": "address",
          "name": "_schemeAddress",
          "type": "address"
        },
        {
          "internalType": "uint256",
          "name": "_timeStarted",
          "type": "uint256"
        },
        {
          "internalType": "uint256",
          "name": "_timeCompleting",
          "type": "uint256"
        }
      ],
      "stateMutability": "view",
      "type": "function"
    },
    {
      "inputs": [],
      "name": "listSchemes",
      "outputs": [
        {
          "internalType": "bool[]",
          "name": "_schemes",
          "type": "bool[]"
        },
        {
          "internalType": "address[]",
          "name": "_schemeAddress",
          "type": "address[]"
        }
      ],
      "stateMutability": "view",
      "type": "function"
    },
    {
      "inputs": [],
      "name": "nextSchemeId",
      "outputs": [
        {
          "internalType": "uint256",
          "name": "",
          "type": "uint256"
        }
      ],
      "stateMutability": "view",
      "type": "function"
    },
    {
      "inputs": [
        {
          "internalType": "uint256",
          "name": "",
          "type": "uint256"
        }
      ],
      "name": "schemes",
      "outputs": [
        {
          "internalType": "address",
          "name": "schemeAddress",
          "type": "address"
        },
        {
          "internalType": "bool",
          "name": "isScheme",
          "type": "bool"
        }
      ],
      "stateMutability": "view",
      "type": "function"
    },
    {
      "inputs": [],
      "name": "skipScheme",
      "outputs": [],
      "stateMutability": "nonpayable",
      "type": "function"
    },
    {
      "inputs": [
        {
          "internalType": "uint256",
          "name": "_schemeId",
          "type": "uint256"
        }
      ],
      "name": "startScheme",
      "outputs": [],
      "stateMutability": "nonpayable",
      "type": "function"
    }
  ],
  "transactionHash": "0x813a8c9901545d5ceecc0344776396f334bdadf3dcf1bf27196994d3d1428bb0",
  "args": [],
  "numDeployments": 1,
  "solcInputHash": "777582a7632d8a2f42216c352c8ef720",
  "bytecode": "0x608060405234801561001057600080fd5b506001600055610a6e806100256000396000f3fe608060405234801561001057600080fd5b50600436106100885760003560e01c80638657fa791161005b5780638657fa791461010d578063b1f7c7e014610123578063bb52085e1461013a578063cd8321c11461018e57600080fd5b806301f66ef41461008d57806351e65d64146100a2578063589de82d146100aa5780635b510dbb146100bd575b600080fd5b6100a061009b3660046108b3565b610196565b005b6100a061032a565b6100a06100b83660046108cc565b61043d565b6100d06100cb3660046108cc565b6104ed565b60408051951515865260208601949094526001600160a01b03909216928401929092526060830191909152608082015260a0015b60405180910390f35b61011561057c565b6040516101049291906108f5565b61012c60005481565b604051908152602001610104565b61016f6101483660046108b3565b6003602052600090815260409020546001600160a01b03811690600160a01b900460ff1682565b604080516001600160a01b039093168352901515602083015201610104565b6100a06106c9565b600081815260036020526040902054600160a01b900460ff166101f85760405162461bcd60e51b815260206004820152601560248201527424b73b30b634b21039b1b432b6b29031b437b9b2b760591b60448201526064015b60405180910390fd5b3360009081526002602052604090205460ff16156102585760405162461bcd60e51b815260206004820152601f60248201527f4120736368656d6520697320616c726561647920696e2070726f67726573730060448201526064016101ef565b60008181526003602052604090819020549051636e85940f60e11b81523360048201526001600160a01b039091169063dd0b281e90602401600060405180830381600087803b1580156102aa57600080fd5b505af11580156102be573d6000803e3d6000fd5b505050506102cc33826106f8565b6000818152600360209081526040918290205482516001600160a01b0390911681523391810191909152428183015290517f40cb373538b7861d93a435fa219ff941fb43218e6a163f4d76d175ba3c1d8c409181900360600190a150565b3360009081526002602052604090205460ff166103595760405162461bcd60e51b81526004016101ef9061097b565b336000908152600160205260409020600201544210156103b45760405162461bcd60e51b8152602060048201526016602482015275536368656d65206973206e6f7420636f6d706c65746560501b60448201526064016101ef565b336000818152600160209081526040808320548084526003909252918290205491516349d7814960e11b81526004810193909352916001600160a01b03909116906393af029290602401600060405180830381600087803b15801561041857600080fd5b505af115801561042c573d6000803e3d6000fd5b5050505061043a3382610836565b50565b600054604080516001600160a01b038416815260208101929092524282820152517f1e674b98e7b5009696cddd1156cc26a69d6577667254d8b810d889d357128d9a9181900360600190a16040805180820182526001600160a01b0380841682526001602080840182815260008054815260039092529481209351845495511515600160a01b026001600160a81b031990961693169290921793909317909155546104e7916108a0565b60005550565b6001600160a01b038116600090815260026020526040812054819081908190819060ff161561056357505050506001600160a01b03828116600081815260016020818152604080842080548086526003845291852054959094529082905282820154600290930154919550939290921691610573565b5060009350839250829150819050805b91939590929450565b6060806000805467ffffffffffffffff81111561059b5761059b6109aa565b6040519080825280602002602001820160405280156105c4578160200160208202803683370190505b5090506000805467ffffffffffffffff8111156105e3576105e36109aa565b60405190808252806020026020018201604052801561060c578160200160208202803683370190505b50905060005b6000548110156106bf57600081815260036020526040902054600160a01b900460ff16156106ad57600183828151811061064e5761064e6109c0565b91151560209283029190910182015260008281526003909152604090205482516001600160a01b039091169083908390811061068c5761068c6109c0565b60200260200101906001600160a01b031690816001600160a01b0316815250505b806106b7816109ec565b915050610612565b5090939092509050565b3360009081526002602052604090205460ff166103b45760405162461bcd60e51b81526004016101ef9061097b565b6001600160a01b03821660009081526002602052604090205460ff16156107615760405162461bcd60e51b815260206004820152601f60248201527f4120736368656d6520697320616c726561647920696e2070726f67726573730060448201526064016101ef565b6001600160a01b038083166000908152600260209081526040808320805460ff191660019081179091553384528083528184208681554291015584835260038252918290205482516303ed69ad60e21b8152925161081f949190911692630fb5a6b4926004808301939192829003018186803b1580156107e057600080fd5b505afa1580156107f4573d6000803e3d6000fd5b505050506040513d601f19601f820116820180604052508101906108189190610a07565b42906108a0565b336000908152600160205260409020600201555050565b3360009081526002602052604090205460ff166108655760405162461bcd60e51b81526004016101ef9061097b565b506001600160a01b03166000908152600260208181526040808420805460ff1916905533845260019182905283208381559081018390550155565b60006108ac8284610a20565b9392505050565b6000602082840312156108c557600080fd5b5035919050565b6000602082840312156108de57600080fd5b81356001600160a01b03811681146108ac57600080fd5b604080825283519082018190526000906020906060840190828701845b82811015610930578151151584529284019290840190600101610912565b5050508381038285015284518082528583019183019060005b8181101561096e5783516001600160a01b031683529284019291840191600101610949565b5090979650505050505050565b6020808252601590820152744e6f20736368656d6520696e2070726f677265737360581b604082015260600190565b634e487b7160e01b600052604160045260246000fd5b634e487b7160e01b600052603260045260246000fd5b634e487b7160e01b600052601160045260246000fd5b6000600019821415610a0057610a006109d6565b5060010190565b600060208284031215610a1957600080fd5b5051919050565b60008219821115610a3357610a336109d6565b50019056fea264697066735822122013d1f2ee2e249b6a0f1306e78d9d0d42e01bb26d60411a993b087ee46a09a76064736f6c63430008090033",
  "devdoc": {
    "kind": "dev",
    "methods": {},
    "version": 1
  },
  "userdoc": {
    "kind": "user",
    "methods": {},
    "version": 1
  },
  "storageLayout": {
    "storage": [
      {
        "astId": 5345,
        "contract": "contracts/schemes/SchemeManager.sol:SchemeManager",
        "label": "nextSchemeId",
        "offset": 0,
        "slot": "0",
        "type": "t_uint256"
      },
      {
        "astId": 5350,
        "contract": "contracts/schemes/SchemeManager.sol:SchemeManager",
        "label": "ongoingSchemes",
        "offset": 0,
        "slot": "1",
        "type": "t_mapping(t_address,t_struct(OngoingScheme)5343_storage)"
      },
      {
        "astId": 5354,
        "contract": "contracts/schemes/SchemeManager.sol:SchemeManager",
        "label": "hasOngoingScheme",
        "offset": 0,
        "slot": "2",
        "type": "t_mapping(t_address,t_bool)"
      },
      {
        "astId": 5359,
        "contract": "contracts/schemes/SchemeManager.sol:SchemeManager",
        "label": "schemes",
        "offset": 0,
        "slot": "3",
        "type": "t_mapping(t_uint256,t_struct(Scheme)5336_storage)"
      }
    ],
    "types": {
      "t_address": {
        "encoding": "inplace",
        "label": "address",
        "numberOfBytes": "20"
      },
      "t_bool": {
        "encoding": "inplace",
        "label": "bool",
        "numberOfBytes": "1"
      },
      "t_mapping(t_address,t_bool)": {
        "encoding": "mapping",
        "key": "t_address",
        "label": "mapping(address => bool)",
        "numberOfBytes": "32",
        "value": "t_bool"
      },
      "t_mapping(t_address,t_struct(OngoingScheme)5343_storage)": {
        "encoding": "mapping",
        "key": "t_address",
        "label": "mapping(address => struct SchemeManager.OngoingScheme)",
        "numberOfBytes": "32",
        "value": "t_struct(OngoingScheme)5343_storage"
      },
      "t_mapping(t_uint256,t_struct(Scheme)5336_storage)": {
        "encoding": "mapping",
        "key": "t_uint256",
        "label": "mapping(uint256 => struct SchemeManager.Scheme)",
        "numberOfBytes": "32",
        "value": "t_struct(Scheme)5336_storage"
      },
      "t_struct(OngoingScheme)5343_storage": {
        "encoding": "inplace",
        "label": "struct SchemeManager.OngoingScheme",
        "members": [
          {
            "astId": 5338,
            "contract": "contracts/schemes/SchemeManager.sol:SchemeManager",
            "label": "schemeId",
            "offset": 0,
            "slot": "0",
            "type": "t_uint256"
          },
          {
            "astId": 5340,
            "contract": "contracts/schemes/SchemeManager.sol:SchemeManager",
            "label": "timeStarted",
            "offset": 0,
            "slot": "1",
            "type": "t_uint256"
          },
          {
            "astId": 5342,
            "contract": "contracts/schemes/SchemeManager.sol:SchemeManager",
            "label": "timeCompleting",
            "offset": 0,
            "slot": "2",
            "type": "t_uint256"
          }
        ],
        "numberOfBytes": "96"
      },
      "t_struct(Scheme)5336_storage": {
        "encoding": "inplace",
        "label": "struct SchemeManager.Scheme",
        "members": [
          {
            "astId": 5333,
            "contract": "contracts/schemes/SchemeManager.sol:SchemeManager",
            "label": "schemeAddress",
            "offset": 0,
            "slot": "0",
            "type": "t_address"
          },
          {
            "astId": 5335,
            "contract": "contracts/schemes/SchemeManager.sol:SchemeManager",
            "label": "isScheme",
            "offset": 20,
            "slot": "0",
            "type": "t_bool"
          }
        ],
        "numberOfBytes": "32"
      },
      "t_uint256": {
        "encoding": "inplace",
        "label": "uint256",
        "numberOfBytes": "32"
      }
    }
  }
}