{
  "address": "0xDc64a140Aa3E981100a9becA4E685f962f0cF6C9",
  "abi": [
    {
      "inputs": [],
      "stateMutability": "nonpayable",
      "type": "constructor"
    },
    {
      "inputs": [
        {
          "internalType": "address",
          "name": "_schemeAddress",
          "type": "address"
        }
      ],
      "name": "addScheme",
      "outputs": [],
      "stateMutability": "nonpayable",
      "type": "function"
    },
    {
      "inputs": [],
      "name": "completeScheme",
      "outputs": [],
      "stateMutability": "nonpayable",
      "type": "function"
    },
    {
      "inputs": [
        {
          "internalType": "address",
          "name": "_who",
          "type": "address"
        }
      ],
      "name": "getOngoingScheme",
      "outputs": [
        {
          "internalType": "bool",
          "name": "_isOngoing",
          "type": "bool"
        },
        {
          "internalType": "uint256",
          "name": "_schemeId",
          "type": "uint256"
        },
        {
          "internalType": "address",
          "name": "_schemeAddress",
          "type": "address"
        },
        {
          "internalType": "uint256",
          "name": "_timeStarted",
          "type": "uint256"
        },
        {
          "internalType": "uint256",
          "name": "_timeCompleting",
          "type": "uint256"
        }
      ],
      "stateMutability": "view",
      "type": "function"
    },
    {
      "inputs": [],
      "name": "listSchemes",
      "outputs": [
        {
          "internalType": "bool[]",
          "name": "_schemes",
          "type": "bool[]"
        }
      ],
      "stateMutability": "view",
      "type": "function"
    },
    {
      "inputs": [],
      "name": "nextSchemeId",
      "outputs": [
        {
          "internalType": "uint256",
          "name": "",
          "type": "uint256"
        }
      ],
      "stateMutability": "view",
      "type": "function"
    },
    {
      "inputs": [
        {
          "internalType": "uint256",
          "name": "",
          "type": "uint256"
        }
      ],
      "name": "schemes",
      "outputs": [
        {
          "internalType": "address",
          "name": "schemeAddress",
          "type": "address"
        },
        {
          "internalType": "bool",
          "name": "isScheme",
          "type": "bool"
        }
      ],
      "stateMutability": "view",
      "type": "function"
    },
    {
      "inputs": [
        {
          "internalType": "uint256",
          "name": "_schemeId",
          "type": "uint256"
        }
      ],
      "name": "startScheme",
      "outputs": [],
      "stateMutability": "nonpayable",
      "type": "function"
    }
  ],
  "transactionHash": "0x30cc4be919643a4b9f64e4b66ecf1fa0eacc22af9feddd970fa8982d49b04a67",
  "args": [],
  "solcInputHash": "95edde3b810702dab6b59778bcd41322",
  "bytecode": "0x608060405234801561001057600080fd5b506001600055610894806100256000396000f3fe608060405234801561001057600080fd5b506004361061007d5760003560e01c80635b510dbb1161005b5780635b510dbb146100cf5780638657fa791461012a578063b1f7c7e014610182578063bb52085e1461019c5761007d565b806301f66ef41461008257806351e65d64146100a1578063589de82d146100a9575b600080fd5b61009f6004803603602081101561009857600080fd5b50356101dc565b005b61009f61031a565b61009f600480360360208110156100bf57600080fd5b50356001600160a01b031661045c565b6100f5600480360360208110156100e557600080fd5b50356001600160a01b03166104cc565b60408051951515865260208601949094526001600160a01b039092168484015260608401526080830152519081900360a00190f35b61013261055b565b60408051602080825283518183015283519192839290830191858101910280838360005b8381101561016e578181015183820152602001610156565b505050509050019250505060405180910390f35b61018a6105fc565b60408051918252519081900360200190f35b6101b9600480360360208110156101b257600080fd5b5035610602565b604080516001600160a01b03909316835290151560208301528051918290030190f35b600081815260036020526040902054600160a01b900460ff1661023e576040805162461bcd60e51b815260206004820152601560248201527424b73b30b634b21039b1b432b6b29031b437b9b2b760591b604482015290519081900360640190fd5b3360009081526002602052604090205460ff16156102a3576040805162461bcd60e51b815260206004820152601f60248201527f4120736368656d6520697320616c726561647920696e2070726f677265737300604482015290519081900360640190fd5b600081815260036020526040808220548151636e85940f60e11b815233600482015291516001600160a01b039091169263dd0b281e926024808201939182900301818387803b1580156102f557600080fd5b505af1158015610309573d6000803e3d6000fd5b505050506103173382610629565b50565b3360009081526002602052604090205460ff16610376576040805162461bcd60e51b81526020600482015260156024820152744e6f20736368656d6520696e2070726f677265737360581b604482015290519081900360640190fd5b336000908152600160205260409020600201544210156103d6576040805162461bcd60e51b8152602060048201526016602482015275536368656d65206973206e6f7420636f6d706c65746560501b604482015290519081900360640190fd5b3360008181526001602090815260408083205480845260039092528083205481516349d7814960e11b81526004810195909552905191936001600160a01b03909116926393af02929260248084019382900301818387803b15801561043a57600080fd5b505af115801561044e573d6000803e3d6000fd5b505050506103173382610766565b6040805180820182526001600160a01b0383811682526001602080840182815260008054815260039092529481209351845495516001600160a01b031990961693169290921760ff60a01b1916600160a01b9415159490940293909317909155546104c6916107fd565b60005550565b6001600160a01b038116600090815260026020526040812054819081908190819060ff161561054257505050506001600160a01b03828116600081815260016020818152604080842080548086526003845291852054959094529082905282820154600290930154919550939290921691610552565b5060009350839250829150819050805b91939590929450565b60608060005467ffffffffffffffff8111801561057757600080fd5b506040519080825280602002602001820160405280156105a1578160200160208202803683370190505b50905060005b6000548110156105f657600081815260036020526040902054600160a01b900460ff16156105ee5760018282815181106105dd57fe5b911515602092830291909101909101525b6001016105a7565b50905090565b60005481565b6003602052600090815260409020546001600160a01b03811690600160a01b900460ff1682565b6001600160a01b03821660009081526002602052604090205460ff1615610697576040805162461bcd60e51b815260206004820152601f60248201527f4120736368656d6520697320616c726561647920696e2070726f677265737300604482015290519081900360640190fd5b6001600160a01b038083166000908152600260209081526040808320805460ff191660019081179091553384528083528184208681554291015584835260038252918290205482516303ed69ad60e21b8152925161074f949190911692630fb5a6b4926004808301939192829003018186803b15801561071657600080fd5b505afa15801561072a573d6000803e3d6000fd5b505050506040513d602081101561074057600080fd5b5051429063ffffffff6107fd16565b336000908152600160205260409020600201555050565b3360009081526002602052604090205460ff166107c2576040805162461bcd60e51b81526020600482015260156024820152744e6f20736368656d6520696e2070726f677265737360581b604482015290519081900360640190fd5b506001600160a01b03166000908152600260208181526040808420805460ff1916905533845260019182905283208381559081018390550155565b600082820183811015610857576040805162461bcd60e51b815260206004820152601b60248201527f536166654d6174683a206164646974696f6e206f766572666c6f770000000000604482015290519081900360640190fd5b939250505056fea26469706673582212205e2b624bb8a8601deda2042eb9697f3be42fdd13eb00a78e002ea2ebed11a7e464736f6c63430006080033",
  "devdoc": {
    "methods": {}
  },
  "userdoc": {
    "methods": {}
  },
  "storageLayout": {
    "storage": [
      {
        "astId": 4400,
        "contract": "contracts/schemes/Schemes.sol:Schemes",
        "label": "nextSchemeId",
        "offset": 0,
        "slot": "0",
        "type": "t_uint256"
      },
      {
        "astId": 4404,
        "contract": "contracts/schemes/Schemes.sol:Schemes",
        "label": "ongoingSchemes",
        "offset": 0,
        "slot": "1",
        "type": "t_mapping(t_address,t_struct(OngoingScheme)4398_storage)"
      },
      {
        "astId": 4408,
        "contract": "contracts/schemes/Schemes.sol:Schemes",
        "label": "hasOngoingScheme",
        "offset": 0,
        "slot": "2",
        "type": "t_mapping(t_address,t_bool)"
      },
      {
        "astId": 4412,
        "contract": "contracts/schemes/Schemes.sol:Schemes",
        "label": "schemes",
        "offset": 0,
        "slot": "3",
        "type": "t_mapping(t_uint256,t_struct(Scheme)4391_storage)"
      }
    ],
    "types": {
      "t_address": {
        "encoding": "inplace",
        "label": "address",
        "numberOfBytes": "20"
      },
      "t_bool": {
        "encoding": "inplace",
        "label": "bool",
        "numberOfBytes": "1"
      },
      "t_mapping(t_address,t_bool)": {
        "encoding": "mapping",
        "key": "t_address",
        "label": "mapping(address => bool)",
        "numberOfBytes": "32",
        "value": "t_bool"
      },
      "t_mapping(t_address,t_struct(OngoingScheme)4398_storage)": {
        "encoding": "mapping",
        "key": "t_address",
        "label": "mapping(address => struct Schemes.OngoingScheme)",
        "numberOfBytes": "32",
        "value": "t_struct(OngoingScheme)4398_storage"
      },
      "t_mapping(t_uint256,t_struct(Scheme)4391_storage)": {
        "encoding": "mapping",
        "key": "t_uint256",
        "label": "mapping(uint256 => struct Schemes.Scheme)",
        "numberOfBytes": "32",
        "value": "t_struct(Scheme)4391_storage"
      },
      "t_struct(OngoingScheme)4398_storage": {
        "encoding": "inplace",
        "label": "struct Schemes.OngoingScheme",
        "members": [
          {
            "astId": 4393,
            "contract": "contracts/schemes/Schemes.sol:Schemes",
            "label": "schemeId",
            "offset": 0,
            "slot": "0",
            "type": "t_uint256"
          },
          {
            "astId": 4395,
            "contract": "contracts/schemes/Schemes.sol:Schemes",
            "label": "timeStarted",
            "offset": 0,
            "slot": "1",
            "type": "t_uint256"
          },
          {
            "astId": 4397,
            "contract": "contracts/schemes/Schemes.sol:Schemes",
            "label": "timeCompleting",
            "offset": 0,
            "slot": "2",
            "type": "t_uint256"
          }
        ],
        "numberOfBytes": "96"
      },
      "t_struct(Scheme)4391_storage": {
        "encoding": "inplace",
        "label": "struct Schemes.Scheme",
        "members": [
          {
            "astId": 4388,
            "contract": "contracts/schemes/Schemes.sol:Schemes",
            "label": "schemeAddress",
            "offset": 0,
            "slot": "0",
            "type": "t_address"
          },
          {
            "astId": 4390,
            "contract": "contracts/schemes/Schemes.sol:Schemes",
            "label": "isScheme",
            "offset": 20,
            "slot": "0",
            "type": "t_bool"
          }
        ],
        "numberOfBytes": "32"
      },
      "t_uint256": {
        "encoding": "inplace",
        "label": "uint256",
        "numberOfBytes": "32"
      }
    }
  }
}