{
  "address": "0x3C15538ED063e688c8DF3d571Cb7a0062d2fB18D",
  "abi": [
    {
      "anonymous": false,
      "inputs": [
        {
          "indexed": false,
          "internalType": "uint256",
          "name": "itemId",
          "type": "uint256"
        },
        {
          "indexed": false,
          "internalType": "uint256",
          "name": "price",
          "type": "uint256"
        },
        {
          "indexed": false,
          "internalType": "uint256",
          "name": "when",
          "type": "uint256"
        }
      ],
      "name": "ItemAdded",
      "type": "event"
    },
    {
      "anonymous": false,
      "inputs": [
        {
          "indexed": false,
          "internalType": "address",
          "name": "who",
          "type": "address"
        },
        {
          "indexed": false,
          "internalType": "uint256",
          "name": "itemId",
          "type": "uint256"
        },
        {
          "indexed": false,
          "internalType": "uint256",
          "name": "amount",
          "type": "uint256"
        },
        {
          "indexed": false,
          "internalType": "uint256",
          "name": "when",
          "type": "uint256"
        }
      ],
      "name": "ItemPurchased",
      "type": "event"
    },
    {
      "anonymous": false,
      "inputs": [
        {
          "indexed": false,
          "internalType": "uint256",
          "name": "itemId",
          "type": "uint256"
        },
        {
          "indexed": false,
          "internalType": "uint256",
          "name": "when",
          "type": "uint256"
        }
      ],
      "name": "ItemRemoved",
      "type": "event"
    },
    {
      "anonymous": false,
      "inputs": [
        {
          "indexed": false,
          "internalType": "uint256",
          "name": "itemId",
          "type": "uint256"
        },
        {
          "indexed": false,
          "internalType": "uint256",
          "name": "price",
          "type": "uint256"
        },
        {
          "indexed": false,
          "internalType": "uint256",
          "name": "when",
          "type": "uint256"
        }
      ],
      "name": "ItemUpdated",
      "type": "event"
    },
    {
      "anonymous": false,
      "inputs": [
        {
          "indexed": true,
          "internalType": "address",
          "name": "previousOwner",
          "type": "address"
        },
        {
          "indexed": true,
          "internalType": "address",
          "name": "newOwner",
          "type": "address"
        }
      ],
      "name": "OwnershipTransferred",
      "type": "event"
    },
    {
      "inputs": [],
      "name": "getItemCount",
      "outputs": [
        {
          "internalType": "uint256",
          "name": "itemCount",
          "type": "uint256"
        }
      ],
      "stateMutability": "view",
      "type": "function"
    },
    {
      "inputs": [],
      "name": "getItems",
      "outputs": [
        {
          "internalType": "uint256[]",
          "name": "",
          "type": "uint256[]"
        },
        {
          "internalType": "uint256[]",
          "name": "",
          "type": "uint256[]"
        }
      ],
      "stateMutability": "view",
      "type": "function"
    },
    {
      "inputs": [
        {
          "internalType": "uint256",
          "name": "_itemId",
          "type": "uint256"
        }
      ],
      "name": "isEntity",
      "outputs": [
        {
          "internalType": "bool",
          "name": "",
          "type": "bool"
        }
      ],
      "stateMutability": "view",
      "type": "function"
    },
    {
      "inputs": [],
      "name": "itemContractAddress",
      "outputs": [
        {
          "internalType": "address",
          "name": "",
          "type": "address"
        }
      ],
      "stateMutability": "view",
      "type": "function"
    },
    {
      "inputs": [
        {
          "internalType": "uint256",
          "name": "",
          "type": "uint256"
        }
      ],
      "name": "itemList",
      "outputs": [
        {
          "internalType": "uint256",
          "name": "",
          "type": "uint256"
        }
      ],
      "stateMutability": "view",
      "type": "function"
    },
    {
      "inputs": [
        {
          "internalType": "uint256",
          "name": "",
          "type": "uint256"
        }
      ],
      "name": "itemStructs",
      "outputs": [
        {
          "internalType": "uint256",
          "name": "price",
          "type": "uint256"
        },
        {
          "internalType": "uint256",
          "name": "listPointer",
          "type": "uint256"
        }
      ],
      "stateMutability": "view",
      "type": "function"
    },
    {
      "inputs": [
        {
          "internalType": "uint256",
          "name": "_itemId",
          "type": "uint256"
        },
        {
          "internalType": "uint256",
          "name": "_itemPrice",
          "type": "uint256"
        }
      ],
      "name": "list",
      "outputs": [],
      "stateMutability": "nonpayable",
      "type": "function"
    },
    {
      "inputs": [],
      "name": "owner",
      "outputs": [
        {
          "internalType": "address",
          "name": "",
          "type": "address"
        }
      ],
      "stateMutability": "view",
      "type": "function"
    },
    {
      "inputs": [
        {
          "internalType": "uint256",
          "name": "_itemId",
          "type": "uint256"
        },
        {
          "internalType": "uint256",
          "name": "_amount",
          "type": "uint256"
        }
      ],
      "name": "purchase",
      "outputs": [],
      "stateMutability": "nonpayable",
      "type": "function"
    },
    {
      "inputs": [
        {
          "internalType": "uint256",
          "name": "_itemId",
          "type": "uint256"
        }
      ],
      "name": "remove",
      "outputs": [],
      "stateMutability": "nonpayable",
      "type": "function"
    },
    {
      "inputs": [],
      "name": "renounceOwnership",
      "outputs": [],
      "stateMutability": "nonpayable",
      "type": "function"
    },
    {
      "inputs": [
        {
          "internalType": "address",
          "name": "_itemContractAddress",
          "type": "address"
        }
      ],
      "name": "setItemContract",
      "outputs": [],
      "stateMutability": "nonpayable",
      "type": "function"
    },
    {
      "inputs": [
        {
          "internalType": "address",
          "name": "_treasuryContractAddress",
          "type": "address"
        }
      ],
      "name": "setTreasuryContract",
      "outputs": [],
      "stateMutability": "nonpayable",
      "type": "function"
    },
    {
      "inputs": [
        {
          "internalType": "address",
          "name": "newOwner",
          "type": "address"
        }
      ],
      "name": "transferOwnership",
      "outputs": [],
      "stateMutability": "nonpayable",
      "type": "function"
    },
    {
      "inputs": [],
      "name": "treasuryContract",
      "outputs": [
        {
          "internalType": "address",
          "name": "",
          "type": "address"
        }
      ],
      "stateMutability": "view",
      "type": "function"
    },
    {
      "inputs": [
        {
          "internalType": "uint256",
          "name": "_itemId",
          "type": "uint256"
        },
        {
          "internalType": "uint256",
          "name": "_itemPrice",
          "type": "uint256"
        }
      ],
      "name": "update",
      "outputs": [],
      "stateMutability": "nonpayable",
      "type": "function"
    }
  ],
  "transactionHash": "0x8ea027d050f84d6d9b6b489c0fc510a9afc2ce17a6f1a44370474066060749f6",
  "args": [],
  "numDeployments": 1,
  "solcInputHash": "37b95ca224cde79ad518368e637cbc4f",
  "bytecode": "0x608060405234801561001057600080fd5b5061001a3361001f565b61006f565b600080546001600160a01b038381166001600160a01b0319831681178455604051919092169283917f8be0079c531659141344cd1fd0a4f28419497f9722a3daafe3b4186f6b6457e09190a35050565b610c8f8061007e6000396000f3fe608060405234801561001057600080fd5b50600436106101005760003560e01c806370876c9811610097578063a712043311610066578063a71204331461021e578063c10250a01461024e578063d7a42b541461028a578063f2fde38b146102ad57600080fd5b806370876c98146101ea578063715018a6146101fd5780637749cf23146102055780638da5cb5b1461020d57600080fd5b80633d4d3600116100d35780633d4d36001461018d578063410d59cc146101ae5780634cc82215146101c457806350fd7367146101d757600080fd5b806318da0011146101055780631ed65110146101355780632fb565e8146101675780633089f68f1461017a575b600080fd5b600154610118906001600160a01b031681565b6040516001600160a01b0390911681526020015b60405180910390f35b610165610143366004610aca565b600180546001600160a01b0319166001600160a01b0392909216919091179055565b005b610165610175366004610af3565b6102c0565b600254610118906001600160a01b031681565b6101a061019b366004610b15565b610365565b60405190815260200161012c565b6101b6610386565b60405161012c929190610b69565b6101656101d2366004610b15565b6104b9565b6101656101e5366004610af3565b6105f3565b6101656101f8366004610af3565b6106dd565b6101656108ea565b6004546101a0565b6000546001600160a01b0316610118565b61016561022c366004610aca565b600280546001600160a01b0319166001600160a01b0392909216919091179055565b61027561025c366004610b15565b6003602052600090815260409020805460019091015482565b6040805192835260208301919091520161012c565b61029d610298366004610b15565b610950565b604051901515815260200161012c565b6101656102bb366004610aca565b61099c565b6102c982610950565b61030b5760405162461bcd60e51b815260206004820152600e60248201526d125d195b481b9bdd08199bdd5b9960921b60448201526064015b60405180910390fd5b600082815260036020908152604091829020839055815184815290810183905242918101919091527fe2c5373cce601c06f5dba3359950780f4af385925b22bf61f04c1eb60850e797906060015b60405180910390a15050565b6004818154811061037557600080fd5b600091825260209091200154905081565b606080600060048054905067ffffffffffffffff8111156103a9576103a9610b97565b6040519080825280602002602001820160405280156103d2578160200160208202803683370190505b5060045490915060009067ffffffffffffffff8111156103f4576103f4610b97565b60405190808252806020026020018201604052801561041d578160200160208202803683370190505b50905060005b6004548110156104af578083828151811061044057610440610bad565b602002602001018181525050600360006004838154811061046357610463610bad565b906000526020600020015481526020019081526020016000206000015482828151811061049257610492610bad565b6020908102919091010152806104a781610bd9565b915050610423565b5090939092509050565b6104c281610950565b6104ff5760405162461bcd60e51b815260206004820152600e60248201526d125d195b481b9bdd08199bdd5b9960921b6044820152606401610302565b60008181526003602052604090206001908101546004549091108015610533575060045461052f90600190610bf4565b8114155b1561057c57600480546000919061054c90600190610bf4565b8154811061055c5761055c610bad565b600091825260208083209091015482526003905260409020600101829055505b600480548061058d5761058d610c0b565b60008281526020808220600019908401810183905590920190925583825260038152604080832083815560010192909255815184815242918101919091527ff6b7785072084000d80554abaf4d438ec9bce827d71b6ac74a0c6d24843770dc9101610359565b6105fc82610950565b1561063f5760405162461bcd60e51b81526020600482015260136024820152724974656d20616c72656164792065786973747360681b6044820152606401610302565b604080518082018252828152600480546020808401918252600087815260038252858120945185559151600194850155825493840183559190527f8a35acfbc15ff81a39ae7d344fd709f28e8600b4aa8c65c6b64bfe7fe36bd19b909101849055815184815290810183905242918101919091527f89c7e27f6c541c27162118063d2f8cfa86e3081872ec9d9559d3ed1c2b5cc98990606001610359565b60008281526003602090815260408083208151808301835281548152600191820154938101939093525490516327e235e360e01b81523260048201529192916001600160a01b03909116906327e235e39060240160206040518083038186803b15801561074957600080fd5b505afa15801561075d573d6000803e3d6000fd5b505050506040513d601f19601f820116820180604052508101906107819190610c21565b82519091506000906107939085610a67565b9050808210156107d85760405162461bcd60e51b815260206004820152601060248201526f4e6f7420656e6f7567682066756e647360801b6044820152606401610302565b60015460405163cabdae7b60e01b8152336004820152602481018390526001600160a01b039091169063cabdae7b90604401600060405180830381600087803b15801561082457600080fd5b505af1158015610838573d6000803e3d6000fd5b5050604051630ab714fb60e11b815233600482015260248101889052604481018790526000925063156e29f69150606401600060405180830381600087803b15801561088357600080fd5b505af1158015610897573d6000803e3d6000fd5b505060408051338152602081018990529081018790524260608201527f2ff487d8fb1812f5d8a4602a340c48ce2d129f0ba25d788a2796fcdbcff930f69250608001905060405180910390a15050505050565b6000546001600160a01b031633146109445760405162461bcd60e51b815260206004820181905260248201527f4f776e61626c653a2063616c6c6572206973206e6f7420746865206f776e65726044820152606401610302565b61094e6000610a7a565b565b60045460009061096257506000919050565b60008281526003602052604090206001015460048054849290811061098957610989610bad565b9060005260206000200154149050919050565b6000546001600160a01b031633146109f65760405162461bcd60e51b815260206004820181905260248201527f4f776e61626c653a2063616c6c6572206973206e6f7420746865206f776e65726044820152606401610302565b6001600160a01b038116610a5b5760405162461bcd60e51b815260206004820152602660248201527f4f776e61626c653a206e6577206f776e657220697320746865207a65726f206160448201526564647265737360d01b6064820152608401610302565b610a6481610a7a565b50565b6000610a738284610c3a565b9392505050565b600080546001600160a01b038381166001600160a01b0319831681178455604051919092169283917f8be0079c531659141344cd1fd0a4f28419497f9722a3daafe3b4186f6b6457e09190a35050565b600060208284031215610adc57600080fd5b81356001600160a01b0381168114610a7357600080fd5b60008060408385031215610b0657600080fd5b50508035926020909101359150565b600060208284031215610b2757600080fd5b5035919050565b600081518084526020808501945080840160005b83811015610b5e57815187529582019590820190600101610b42565b509495945050505050565b604081526000610b7c6040830185610b2e565b8281036020840152610b8e8185610b2e565b95945050505050565b634e487b7160e01b600052604160045260246000fd5b634e487b7160e01b600052603260045260246000fd5b634e487b7160e01b600052601160045260246000fd5b6000600019821415610bed57610bed610bc3565b5060010190565b600082821015610c0657610c06610bc3565b500390565b634e487b7160e01b600052603160045260246000fd5b600060208284031215610c3357600080fd5b5051919050565b6000816000190483118215151615610c5457610c54610bc3565b50029056fea2646970667358221220ca3bc6aedd2c199dd50b3f81b40a1ef3ea238e918a0cf217e931a845a1e5d26a64736f6c63430008090033",
  "devdoc": {
    "kind": "dev",
    "methods": {
      "owner()": {
        "details": "Returns the address of the current owner."
      },
      "renounceOwnership()": {
        "details": "Leaves the contract without owner. It will not be possible to call `onlyOwner` functions anymore. Can only be called by the current owner. NOTE: Renouncing ownership will leave the contract without an owner, thereby removing any functionality that is only available to the owner."
      },
      "transferOwnership(address)": {
        "details": "Transfers ownership of the contract to a new account (`newOwner`). Can only be called by the current owner."
      }
    },
    "version": 1
  },
  "userdoc": {
    "kind": "user",
    "methods": {},
    "version": 1
  },
  "storageLayout": {
    "storage": [
      {
        "astId": 400,
        "contract": "contracts/Shop.sol:Shop",
        "label": "_owner",
        "offset": 0,
        "slot": "0",
        "type": "t_address"
      },
      {
        "astId": 3607,
        "contract": "contracts/Shop.sol:Shop",
        "label": "treasuryContract",
        "offset": 0,
        "slot": "1",
        "type": "t_address"
      },
      {
        "astId": 3609,
        "contract": "contracts/Shop.sol:Shop",
        "label": "itemContractAddress",
        "offset": 0,
        "slot": "2",
        "type": "t_address"
      },
      {
        "astId": 3619,
        "contract": "contracts/Shop.sol:Shop",
        "label": "itemStructs",
        "offset": 0,
        "slot": "3",
        "type": "t_mapping(t_uint256,t_struct(Item)3614_storage)"
      },
      {
        "astId": 3622,
        "contract": "contracts/Shop.sol:Shop",
        "label": "itemList",
        "offset": 0,
        "slot": "4",
        "type": "t_array(t_uint256)dyn_storage"
      }
    ],
    "types": {
      "t_address": {
        "encoding": "inplace",
        "label": "address",
        "numberOfBytes": "20"
      },
      "t_array(t_uint256)dyn_storage": {
        "base": "t_uint256",
        "encoding": "dynamic_array",
        "label": "uint256[]",
        "numberOfBytes": "32"
      },
      "t_mapping(t_uint256,t_struct(Item)3614_storage)": {
        "encoding": "mapping",
        "key": "t_uint256",
        "label": "mapping(uint256 => struct Shop.Item)",
        "numberOfBytes": "32",
        "value": "t_struct(Item)3614_storage"
      },
      "t_struct(Item)3614_storage": {
        "encoding": "inplace",
        "label": "struct Shop.Item",
        "members": [
          {
            "astId": 3611,
            "contract": "contracts/Shop.sol:Shop",
            "label": "price",
            "offset": 0,
            "slot": "0",
            "type": "t_uint256"
          },
          {
            "astId": 3613,
            "contract": "contracts/Shop.sol:Shop",
            "label": "listPointer",
            "offset": 0,
            "slot": "1",
            "type": "t_uint256"
          }
        ],
        "numberOfBytes": "64"
      },
      "t_uint256": {
        "encoding": "inplace",
        "label": "uint256",
        "numberOfBytes": "32"
      }
    }
  }
}