{
  "address": "0x8A791620dd6260079BF849Dc5567aDC3F2FdC318",
  "abi": [
    {
      "anonymous": false,
      "inputs": [
        {
          "indexed": true,
          "internalType": "address",
          "name": "previousOwner",
          "type": "address"
        },
        {
          "indexed": true,
          "internalType": "address",
          "name": "newOwner",
          "type": "address"
        }
      ],
      "name": "OwnershipTransferred",
      "type": "event"
    },
    {
      "inputs": [],
      "name": "BASE_STAT_MULTIPLIER",
      "outputs": [
        {
          "internalType": "uint8",
          "name": "",
          "type": "uint8"
        }
      ],
      "stateMutability": "view",
      "type": "function"
    },
    {
      "inputs": [
        {
          "internalType": "uint256",
          "name": "_initialStat",
          "type": "uint256"
        },
        {
          "internalType": "enum Training.Duration",
          "name": "_duration",
          "type": "uint8"
        }
      ],
      "name": "calculateStatIncrease",
      "outputs": [
        {
          "internalType": "uint256",
          "name": "",
          "type": "uint256"
        }
      ],
      "stateMutability": "view",
      "type": "function"
    },
    {
      "inputs": [],
      "name": "finish",
      "outputs": [],
      "stateMutability": "nonpayable",
      "type": "function"
    },
    {
      "inputs": [],
      "name": "owner",
      "outputs": [
        {
          "internalType": "address",
          "name": "",
          "type": "address"
        }
      ],
      "stateMutability": "view",
      "type": "function"
    },
    {
      "inputs": [],
      "name": "renounceOwnership",
      "outputs": [],
      "stateMutability": "nonpayable",
      "type": "function"
    },
    {
      "inputs": [
        {
          "internalType": "address",
          "name": "_playerStatsAddress",
          "type": "address"
        }
      ],
      "name": "setPlayerStats",
      "outputs": [],
      "stateMutability": "nonpayable",
      "type": "function"
    },
    {
      "inputs": [],
      "name": "skipFinish",
      "outputs": [],
      "stateMutability": "nonpayable",
      "type": "function"
    },
    {
      "inputs": [
        {
          "internalType": "enum Training.Stat",
          "name": "_stat",
          "type": "uint8"
        },
        {
          "internalType": "enum Training.Duration",
          "name": "_duration",
          "type": "uint8"
        }
      ],
      "name": "start",
      "outputs": [],
      "stateMutability": "nonpayable",
      "type": "function"
    },
    {
      "inputs": [
        {
          "internalType": "address",
          "name": "",
          "type": "address"
        }
      ],
      "name": "trainingMapping",
      "outputs": [
        {
          "internalType": "enum Training.Stat",
          "name": "stat",
          "type": "uint8"
        },
        {
          "internalType": "uint256",
          "name": "startTime",
          "type": "uint256"
        },
        {
          "internalType": "uint256",
          "name": "stopTime",
          "type": "uint256"
        },
        {
          "internalType": "enum Training.Duration",
          "name": "duration",
          "type": "uint8"
        },
        {
          "internalType": "bool",
          "name": "isTraining",
          "type": "bool"
        }
      ],
      "stateMutability": "view",
      "type": "function"
    },
    {
      "inputs": [
        {
          "internalType": "address",
          "name": "newOwner",
          "type": "address"
        }
      ],
      "name": "transferOwnership",
      "outputs": [],
      "stateMutability": "nonpayable",
      "type": "function"
    }
  ],
  "transactionHash": "0x60b0e121ea31b9dc9026c4954e275fd040cb46b9f253a15ba8d4e39cbb333b15",
  "args": [],
  "solcInputHash": "25d6df4598b0de10a52cb66f2281d623",
  "bytecode": "0x608060405234801561001057600080fd5b5060006100246001600160e01b0361007316565b600080546001600160a01b0319166001600160a01b0383169081178255604051929350917f8be0079c531659141344cd1fd0a4f28419497f9722a3daafe3b4186f6b6457e0908290a350610077565b3390565b610f12806100866000396000f3fe608060405234801561001057600080fd5b506004361061009e5760003560e01c80638da5cb5b116100665780638da5cb5b1461019e5780639264b250146101c25780639bc3b9df146101ca578063d56b2889146101f2578063f2fde38b146101fa5761009e565b80631d3ea5fe146100a3578063334182c21461011857806333d2ee661461013657806350fc29641461016e578063715018a614610196575b600080fd5b6100c9600480360360208110156100b957600080fd5b50356001600160a01b0316610220565b604051808660048111156100d957fe5b60ff1681526020018581526020018481526020018360088111156100f957fe5b60ff168152911515602083015250604080519182900301945092505050f35b610120610258565b6040805160ff9092168252519081900360200190f35b61015c6004803603604081101561014c57600080fd5b508035906020013560ff1661025d565b60408051918252519081900360200190f35b6101946004803603602081101561018457600080fd5b50356001600160a01b0316610296565b005b6101946102b8565b6101a661036c565b604080516001600160a01b039092168252519081900360200190f35b61019461037b565b610194600480360360408110156101e057600080fd5b5060ff8135811691602001351661094b565b610194610ad2565b6101946004803603602081101561021057600080fd5b50356001600160a01b0316610ba0565b6001602081905260009182526040909120805491810154600282015460039092015460ff938416939192918181169161010090041685565b600381565b600080600061026b84610caa565b915091506000610e10838161027c57fe5b620f42409097049092029190950402600302949350505050565b600280546001600160a01b0319166001600160a01b0392909216919091179055565b6102c0610e1b565b6000546001600160a01b03908116911614610322576040805162461bcd60e51b815260206004820181905260248201527f4f776e61626c653a2063616c6c6572206973206e6f7420746865206f776e6572604482015290519081900360640190fd5b600080546040516001600160a01b03909116907f8be0079c531659141344cd1fd0a4f28419497f9722a3daafe3b4186f6b6457e0908390a3600080546001600160a01b0319169055565b6000546001600160a01b031690565b33600090815260016020526040902060030154610100900460ff166103e2576040805162461bcd60e51b8152602060048201526018602482015277547261696e696e6720696e206e6f742070726f677265737360401b604482015290519081900360640190fd5b3360009081526001602052604090205460ff16600481111561040057fe5b60011415610534576002546040805163ab53bf0160e01b815233600482015290516000926001600160a01b03169163ab53bf01916024808301926080929190829003018186803b15801561045357600080fd5b505afa158015610467573d6000803e3d6000fd5b505050506040513d608081101561047d57600080fd5b5051600254336000818152600160205260409020600301549293506001600160a01b0390911691634ae76f7891906104b990859060ff1661025d565b604080516001600160e01b031960e086901b1681526001600160a01b03909316600484015260248301919091526000604483018190526064830181905260848301819052905160a48084019382900301818387803b15801561051a57600080fd5b505af115801561052e573d6000803e3d6000fd5b50505050505b3360009081526001602052604090205460ff16600481111561055257fe5b60021415610688576002546040805163ab53bf0160e01b815233600482015290516000926001600160a01b03169163ab53bf01916024808301926080929190829003018186803b1580156105a557600080fd5b505afa1580156105b9573d6000803e3d6000fd5b505050506040513d60808110156105cf57600080fd5b50602090810151600254336000818152600190945260408420600301549294506001600160a01b0390911692634ae76f789261060f90869060ff1661025d565b604080516001600160e01b031960e087901b1681526001600160a01b0390941660048501526024840192909252604483015260006064830181905260848301819052905160a48084019382900301818387803b15801561066e57600080fd5b505af1158015610682573d6000803e3d6000fd5b50505050505b3360009081526001602052604090205460ff1660048111156106a657fe5b600314156107e4576002546040805163ab53bf0160e01b815233600482015290516000926001600160a01b03169163ab53bf01916024808301926080929190829003018186803b1580156106f957600080fd5b505afa15801561070d573d6000803e3d6000fd5b505050506040513d608081101561072357600080fd5b506040908101516002543360008181526001602052938420600301549294506001600160a01b0390911692634ae76f7892819061076490879060ff1661025d565b60006040518663ffffffff1660e01b815260040180866001600160a01b03166001600160a01b0316815260200185815260200184815260200183815260200182815260200195505050505050600060405180830381600087803b1580156107ca57600080fd5b505af11580156107de573d6000803e3d6000fd5b50505050505b3360009081526001602052604090205460ff16600481111561080257fe5b60041415610940576002546040805163ab53bf0160e01b815233600482015290516000926001600160a01b03169163ab53bf01916024808301926080929190829003018186803b15801561085557600080fd5b505afa158015610869573d6000803e3d6000fd5b505050506040513d608081101561087f57600080fd5b5060600151600254336000818152600160205260408120600301549394506001600160a01b0390921692634ae76f789290819081906108c290889060ff1661025d565b6040518663ffffffff1660e01b815260040180866001600160a01b03166001600160a01b0316815260200185815260200184815260200183815260200182815260200195505050505050600060405180830381600087803b15801561092657600080fd5b505af115801561093a573d6000803e3d6000fd5b50505050505b61094933610e1f565b565b33600090815260016020526040902060030154610100900460ff16156109af576040805162461bcd60e51b8152602060048201526014602482015273547261696e696e6720696e2070726f677265737360601b604482015290519081900360640190fd5b8160048111156109bb57fe5b610a0c576040805162461bcd60e51b815260206004820152601760248201527f54686973206973206e6f742061207265616c2073746174000000000000000000604482015290519081900360640190fd5b6000610a1782610caa565b5033600090815260016020819052604090912080549293508592909160ff1990911690836004811115610a4657fe5b0217905550336000908152600160208190526040909120429101819055610a73908263ffffffff610e5516565b336000908152600160208190526040909120600281019290925560039091018054849260ff1990911690836008811115610aa957fe5b021790555050336000908152600160205260409020600301805461ff0019166101001790555050565b33600090815260016020526040902060030154610100900460ff16610b39576040805162461bcd60e51b8152602060048201526018602482015277547261696e696e6720696e206e6f742070726f677265737360401b604482015290519081900360640190fd5b336000908152600160205260409020600201544210156103e2576040805162461bcd60e51b815260206004820152601960248201527f547261696e696e6720686173206e6f742066696e697368656400000000000000604482015290519081900360640190fd5b610ba8610e1b565b6000546001600160a01b03908116911614610c0a576040805162461bcd60e51b815260206004820181905260248201527f4f776e61626c653a2063616c6c6572206973206e6f7420746865206f776e6572604482015290519081900360640190fd5b6001600160a01b038116610c4f5760405162461bcd60e51b8152600401808060200182810382526026815260200180610eb76026913960400191505060405180910390fd5b600080546040516001600160a01b03808516939216917f8be0079c531659141344cd1fd0a4f28419497f9722a3daafe3b4186f6b6457e091a3600080546001600160a01b0319166001600160a01b0392909216919091179055565b600080826008811115610cb957fe5b610cca5750610e1090506064610e16565b826008811115610cd657fe5b60011415610ceb5750611c2090506064610e16565b826008811115610cf757fe5b60021415610d0c575061384090506066610e16565b826008811115610d1857fe5b60031415610d2d575061708090506068610e16565b826008811115610d3957fe5b60041415610d4e575061a8c09050606a610e16565b826008811115610d5a57fe5b60051415610d705750620151809050606c610e16565b826008811115610d7c57fe5b60061415610d9257506202a3009050606e610e16565b826008811115610d9e57fe5b60071415610db457506205460090506078610e16565b826008811115610dc057fe5b60081415610dd6575062093a809050607d610e16565b6040805162461bcd60e51b815260206004820152601060248201526f24b73b30b634b210323ab930ba34b7b760811b604482015290519081900360640190fd5b915091565b3390565b503360009081526001602081905260408220805460ff191681559081018290556002810191909155600301805461ff0019169055565b600082820183811015610eaf576040805162461bcd60e51b815260206004820152601b60248201527f536166654d6174683a206164646974696f6e206f766572666c6f770000000000604482015290519081900360640190fd5b939250505056fe4f776e61626c653a206e6577206f776e657220697320746865207a65726f2061646472657373a2646970667358221220d980431bb66f0d236003b56b277ca8205ca3472f4dc8491c669aa8b26b7ec62b64736f6c63430006080033",
  "devdoc": {
    "methods": {
      "owner()": {
        "details": "Returns the address of the current owner."
      },
      "renounceOwnership()": {
        "details": "Leaves the contract without owner. It will not be possible to call `onlyOwner` functions anymore. Can only be called by the current owner.     * NOTE: Renouncing ownership will leave the contract without an owner, thereby removing any functionality that is only available to the owner."
      },
      "transferOwnership(address)": {
        "details": "Transfers ownership of the contract to a new account (`newOwner`). Can only be called by the current owner."
      }
    }
  },
  "userdoc": {
    "methods": {}
  },
  "storageLayout": {
    "storage": [
      {
        "astId": 313,
        "contract": "contracts/training/Training.sol:Training",
        "label": "_owner",
        "offset": 0,
        "slot": "0",
        "type": "t_address"
      },
      {
        "astId": 5757,
        "contract": "contracts/training/Training.sol:Training",
        "label": "trainingMapping",
        "offset": 0,
        "slot": "1",
        "type": "t_mapping(t_address,t_struct(Training)5737_storage)"
      },
      {
        "astId": 5759,
        "contract": "contracts/training/Training.sol:Training",
        "label": "playerStatsAddress",
        "offset": 0,
        "slot": "2",
        "type": "t_address"
      }
    ],
    "types": {
      "t_address": {
        "encoding": "inplace",
        "label": "address",
        "numberOfBytes": "20"
      },
      "t_bool": {
        "encoding": "inplace",
        "label": "bool",
        "numberOfBytes": "1"
      },
      "t_enum(Duration)5753": {
        "encoding": "inplace",
        "label": "enum Training.Duration",
        "numberOfBytes": "1"
      },
      "t_enum(Stat)5743": {
        "encoding": "inplace",
        "label": "enum Training.Stat",
        "numberOfBytes": "1"
      },
      "t_mapping(t_address,t_struct(Training)5737_storage)": {
        "encoding": "mapping",
        "key": "t_address",
        "label": "mapping(address => struct Training.Training)",
        "numberOfBytes": "32",
        "value": "t_struct(Training)5737_storage"
      },
      "t_struct(Training)5737_storage": {
        "encoding": "inplace",
        "label": "struct Training.Training",
        "members": [
          {
            "astId": 5728,
            "contract": "contracts/training/Training.sol:Training",
            "label": "stat",
            "offset": 0,
            "slot": "0",
            "type": "t_enum(Stat)5743"
          },
          {
            "astId": 5730,
            "contract": "contracts/training/Training.sol:Training",
            "label": "startTime",
            "offset": 0,
            "slot": "1",
            "type": "t_uint256"
          },
          {
            "astId": 5732,
            "contract": "contracts/training/Training.sol:Training",
            "label": "stopTime",
            "offset": 0,
            "slot": "2",
            "type": "t_uint256"
          },
          {
            "astId": 5734,
            "contract": "contracts/training/Training.sol:Training",
            "label": "duration",
            "offset": 0,
            "slot": "3",
            "type": "t_enum(Duration)5753"
          },
          {
            "astId": 5736,
            "contract": "contracts/training/Training.sol:Training",
            "label": "isTraining",
            "offset": 1,
            "slot": "3",
            "type": "t_bool"
          }
        ],
        "numberOfBytes": "128"
      },
      "t_uint256": {
        "encoding": "inplace",
        "label": "uint256",
        "numberOfBytes": "32"
      }
    }
  }
}