{
  "address": "0x8A791620dd6260079BF849Dc5567aDC3F2FdC318",
  "abi": [
    {
      "inputs": [],
      "stateMutability": "nonpayable",
      "type": "constructor"
    },
    {
      "anonymous": false,
      "inputs": [
        {
          "indexed": true,
          "internalType": "bytes32",
          "name": "role",
          "type": "bytes32"
        },
        {
          "indexed": true,
          "internalType": "bytes32",
          "name": "previousAdminRole",
          "type": "bytes32"
        },
        {
          "indexed": true,
          "internalType": "bytes32",
          "name": "newAdminRole",
          "type": "bytes32"
        }
      ],
      "name": "RoleAdminChanged",
      "type": "event"
    },
    {
      "anonymous": false,
      "inputs": [
        {
          "indexed": true,
          "internalType": "bytes32",
          "name": "role",
          "type": "bytes32"
        },
        {
          "indexed": true,
          "internalType": "address",
          "name": "account",
          "type": "address"
        },
        {
          "indexed": true,
          "internalType": "address",
          "name": "sender",
          "type": "address"
        }
      ],
      "name": "RoleGranted",
      "type": "event"
    },
    {
      "anonymous": false,
      "inputs": [
        {
          "indexed": true,
          "internalType": "bytes32",
          "name": "role",
          "type": "bytes32"
        },
        {
          "indexed": true,
          "internalType": "address",
          "name": "account",
          "type": "address"
        },
        {
          "indexed": true,
          "internalType": "address",
          "name": "sender",
          "type": "address"
        }
      ],
      "name": "RoleRevoked",
      "type": "event"
    },
    {
      "inputs": [],
      "name": "ADMIN",
      "outputs": [
        {
          "internalType": "bytes32",
          "name": "",
          "type": "bytes32"
        }
      ],
      "stateMutability": "view",
      "type": "function"
    },
    {
      "inputs": [],
      "name": "CASH_SPENDER",
      "outputs": [
        {
          "internalType": "bytes32",
          "name": "",
          "type": "bytes32"
        }
      ],
      "stateMutability": "view",
      "type": "function"
    },
    {
      "inputs": [],
      "name": "DEFAULT_ADMIN_ROLE",
      "outputs": [
        {
          "internalType": "bytes32",
          "name": "",
          "type": "bytes32"
        }
      ],
      "stateMutability": "view",
      "type": "function"
    },
    {
      "inputs": [
        {
          "internalType": "address",
          "name": "",
          "type": "address"
        }
      ],
      "name": "balances",
      "outputs": [
        {
          "internalType": "uint256",
          "name": "",
          "type": "uint256"
        }
      ],
      "stateMutability": "view",
      "type": "function"
    },
    {
      "inputs": [
        {
          "internalType": "uint256",
          "name": "_amount",
          "type": "uint256"
        }
      ],
      "name": "depositCash",
      "outputs": [],
      "stateMutability": "nonpayable",
      "type": "function"
    },
    {
      "inputs": [
        {
          "internalType": "address",
          "name": "_who",
          "type": "address"
        },
        {
          "internalType": "uint256",
          "name": "_amount",
          "type": "uint256"
        }
      ],
      "name": "depositCashTo",
      "outputs": [],
      "stateMutability": "nonpayable",
      "type": "function"
    },
    {
      "inputs": [
        {
          "internalType": "bytes32",
          "name": "role",
          "type": "bytes32"
        }
      ],
      "name": "getRoleAdmin",
      "outputs": [
        {
          "internalType": "bytes32",
          "name": "",
          "type": "bytes32"
        }
      ],
      "stateMutability": "view",
      "type": "function"
    },
    {
      "inputs": [
        {
          "internalType": "bytes32",
          "name": "role",
          "type": "bytes32"
        },
        {
          "internalType": "address",
          "name": "account",
          "type": "address"
        }
      ],
      "name": "grantRole",
      "outputs": [],
      "stateMutability": "nonpayable",
      "type": "function"
    },
    {
      "inputs": [
        {
          "internalType": "bytes32",
          "name": "role",
          "type": "bytes32"
        },
        {
          "internalType": "address",
          "name": "account",
          "type": "address"
        }
      ],
      "name": "hasRole",
      "outputs": [
        {
          "internalType": "bool",
          "name": "",
          "type": "bool"
        }
      ],
      "stateMutability": "view",
      "type": "function"
    },
    {
      "inputs": [
        {
          "internalType": "bytes32",
          "name": "role",
          "type": "bytes32"
        },
        {
          "internalType": "address",
          "name": "account",
          "type": "address"
        }
      ],
      "name": "renounceRole",
      "outputs": [],
      "stateMutability": "nonpayable",
      "type": "function"
    },
    {
      "inputs": [
        {
          "internalType": "bytes32",
          "name": "role",
          "type": "bytes32"
        },
        {
          "internalType": "address",
          "name": "account",
          "type": "address"
        }
      ],
      "name": "revokeRole",
      "outputs": [],
      "stateMutability": "nonpayable",
      "type": "function"
    },
    {
      "inputs": [
        {
          "internalType": "address",
          "name": "_cashAddress",
          "type": "address"
        }
      ],
      "name": "setCashAddress",
      "outputs": [],
      "stateMutability": "nonpayable",
      "type": "function"
    },
    {
      "inputs": [
        {
          "internalType": "address",
          "name": "_who",
          "type": "address"
        }
      ],
      "name": "setCashSpender",
      "outputs": [],
      "stateMutability": "nonpayable",
      "type": "function"
    },
    {
      "inputs": [
        {
          "internalType": "address",
          "name": "_who",
          "type": "address"
        },
        {
          "internalType": "uint256",
          "name": "_amount",
          "type": "uint256"
        }
      ],
      "name": "spendCash",
      "outputs": [],
      "stateMutability": "nonpayable",
      "type": "function"
    },
    {
      "inputs": [
        {
          "internalType": "bytes4",
          "name": "interfaceId",
          "type": "bytes4"
        }
      ],
      "name": "supportsInterface",
      "outputs": [
        {
          "internalType": "bool",
          "name": "",
          "type": "bool"
        }
      ],
      "stateMutability": "view",
      "type": "function"
    }
  ],
  "transactionHash": "0xf9482086395fc781b1b15951763067a5fe6d3c8920525d4248523cd5e0406255",
  "args": [],
  "numDeployments": 1,
  "solcInputHash": "777582a7632d8a2f42216c352c8ef720",
  "bytecode": "0x608060405234801561001057600080fd5b506100296000805160206110ea83398151915233610066565b6100617f376de48394d1421643e79d0b137a7965cab921c7926a2800d2ebe97274aedb926000805160206110ea833981519152610074565b61015d565b61007082826100bf565b5050565b600082815260208190526040808220600101805490849055905190918391839186917fbd79b86ffe0ab8e8776151514217cd7cacd52c909f66475c3af44e129f0b00ff9190a4505050565b6000828152602081815260408083206001600160a01b038516845290915290205460ff16610070576000828152602081815260408083206001600160a01b03851684529091529020805460ff191660011790556101193390565b6001600160a01b0316816001600160a01b0316837f2f8788117e7eff1d82e926ec794901d17c78024a50270940304540a733656f0d60405160405180910390a45050565b610f7e8061016c6000396000f3fe608060405234801561001057600080fd5b50600436106100f55760003560e01c80633743089a11610097578063a44ee31411610066578063a44ee31414610218578063bdf752bb1461022b578063cabdae7b1461023e578063d547741f1461025157600080fd5b80633743089a146101d75780633fdcc03c146101ea57806391d14854146101fd578063a217fddf1461021057600080fd5b806327e235e3116100d357806327e235e3146101685780632a0acc6a146101885780632f2ff15d146101af57806336568abe146101c457600080fd5b806301ffc9a7146100fa57806311b1b28514610122578063248a9ca314610145575b600080fd5b61010d610108366004610c89565b610264565b60405190151581526020015b60405180910390f35b610137600080516020610f2983398151915281565b604051908152602001610119565b610137610153366004610cb3565b60009081526020819052604090206001015490565b610137610176366004610ce8565b60026020526000908152604090205481565b6101377fdf8b4c520ffe197c5343c6f5aec59570151ef9a492f2c624fd45ddde6135ec4281565b6101c26101bd366004610d03565b61029b565b005b6101c26101d2366004610d03565b6102c5565b6101c26101e5366004610ce8565b610348565b6101c26101f8366004610cb3565b6103c5565b61010d61020b366004610d03565b61056d565b610137600081565b6101c2610226366004610d2f565b610596565b6101c2610239366004610ce8565b6106fd565b6101c261024c366004610d2f565b610781565b6101c261025f366004610d03565b61095e565b60006001600160e01b03198216637965db0b60e01b148061029557506301ffc9a760e01b6001600160e01b03198316145b92915050565b6000828152602081905260409020600101546102b681610983565b6102c0838361098d565b505050565b6001600160a01b038116331461033a5760405162461bcd60e51b815260206004820152602f60248201527f416363657373436f6e74726f6c3a2063616e206f6e6c792072656e6f756e636560448201526e103937b632b9903337b91039b2b63360891b60648201526084015b60405180910390fd5b6103448282610a11565b5050565b6103727fdf8b4c520ffe197c5343c6f5aec59570151ef9a492f2c624fd45ddde6135ec423361056d565b6103aa5760405162461bcd60e51b81526020600482015260096024820152682737ba1020b236b4b760b91b6044820152606401610331565b6103c2600080516020610f298339815191528261029b565b50565b6103dd600080516020610f298339815191523361056d565b61041c5760405162461bcd60e51b815260206004820152601060248201526f2737ba1021b0b9b41029b832b73232b960811b6044820152606401610331565b6001546040516370a0823160e01b815232600482015282916001600160a01b0316906370a082319060240160206040518083038186803b15801561045f57600080fd5b505afa158015610473573d6000803e3d6000fd5b505050506040513d601f19601f820116820180604052508101906104979190610d59565b10156104b55760405162461bcd60e51b815260040161033190610d72565b6001546040516323b872dd60e01b8152336004820152306024820152604481018390526001600160a01b03909116906323b872dd90606401602060405180830381600087803b15801561050757600080fd5b505af115801561051b573d6000803e3d6000fd5b505050506040513d601f19601f8201168201806040525081019061053f9190610d9e565b503360009081526002602052604090205461055a9082610a76565b3360009081526002602052604090205550565b6000918252602082815260408084206001600160a01b0393909316845291905290205460ff1690565b6001546040516370a0823160e01b815233600482015282916001600160a01b0316906370a082319060240160206040518083038186803b1580156105d957600080fd5b505afa1580156105ed573d6000803e3d6000fd5b505050506040513d601f19601f820116820180604052508101906106119190610d59565b101561062f5760405162461bcd60e51b815260040161033190610d72565b6001546040516323b872dd60e01b8152336004820152306024820152604481018390526001600160a01b03909116906323b872dd90606401602060405180830381600087803b15801561068157600080fd5b505af1158015610695573d6000803e3d6000fd5b505050506040513d601f19601f820116820180604052508101906106b99190610d9e565b506001600160a01b0382166000908152600260205260409020546106dd9082610a76565b6001600160a01b0390921660009081526002602052604090209190915550565b6107277fdf8b4c520ffe197c5343c6f5aec59570151ef9a492f2c624fd45ddde6135ec423361056d565b61075f5760405162461bcd60e51b81526020600482015260096024820152682737ba1020b236b4b760b91b6044820152606401610331565b600180546001600160a01b0319166001600160a01b0392909216919091179055565b610799600080516020610f298339815191523361056d565b6107d85760405162461bcd60e51b815260206004820152601060248201526f2737ba1021b0b9b41029b832b73232b960811b6044820152606401610331565b6001546040516370a0823160e01b815232600482015282916001600160a01b0316906370a082319060240160206040518083038186803b15801561081b57600080fd5b505afa15801561082f573d6000803e3d6000fd5b505050506040513d601f19601f820116820180604052508101906108539190610d59565b10156108715760405162461bcd60e51b815260040161033190610d72565b6001546040516323b872dd60e01b8152326004820152306024820152604481018390526001600160a01b03909116906323b872dd90606401602060405180830381600087803b1580156108c357600080fd5b505af11580156108d7573d6000803e3d6000fd5b505050506040513d601f19601f820116820180604052508101906108fb9190610d9e565b50600154604051630852cd8d60e31b8152600481018390526001600160a01b03909116906342966c6890602401600060405180830381600087803b15801561094257600080fd5b505af1158015610956573d6000803e3d6000fd5b505050505050565b60008281526020819052604090206001015461097981610983565b6102c08383610a11565b6103c28133610a89565b610997828261056d565b610344576000828152602081815260408083206001600160a01b03851684529091529020805460ff191660011790556109cd3390565b6001600160a01b0316816001600160a01b0316837f2f8788117e7eff1d82e926ec794901d17c78024a50270940304540a733656f0d60405160405180910390a45050565b610a1b828261056d565b15610344576000828152602081815260408083206001600160a01b0385168085529252808320805460ff1916905551339285917ff6391f5c32d9c69d2a47ea670b442974b53935d1edc7fd64eb21e047a839171b9190a45050565b6000610a828284610dd6565b9392505050565b610a93828261056d565b61034457610aab816001600160a01b03166014610aed565b610ab6836020610aed565b604051602001610ac7929190610e1e565b60408051601f198184030181529082905262461bcd60e51b825261033191600401610e93565b60606000610afc836002610ec6565b610b07906002610dd6565b67ffffffffffffffff811115610b1f57610b1f610ee5565b6040519080825280601f01601f191660200182016040528015610b49576020820181803683370190505b509050600360fc1b81600081518110610b6457610b64610efb565b60200101906001600160f81b031916908160001a905350600f60fb1b81600181518110610b9357610b93610efb565b60200101906001600160f81b031916908160001a9053506000610bb7846002610ec6565b610bc2906001610dd6565b90505b6001811115610c3a576f181899199a1a9b1b9c1cb0b131b232b360811b85600f1660108110610bf657610bf6610efb565b1a60f81b828281518110610c0c57610c0c610efb565b60200101906001600160f81b031916908160001a90535060049490941c93610c3381610f11565b9050610bc5565b508315610a825760405162461bcd60e51b815260206004820181905260248201527f537472696e67733a20686578206c656e67746820696e73756666696369656e746044820152606401610331565b600060208284031215610c9b57600080fd5b81356001600160e01b031981168114610a8257600080fd5b600060208284031215610cc557600080fd5b5035919050565b80356001600160a01b0381168114610ce357600080fd5b919050565b600060208284031215610cfa57600080fd5b610a8282610ccc565b60008060408385031215610d1657600080fd5b82359150610d2660208401610ccc565b90509250929050565b60008060408385031215610d4257600080fd5b610d4b83610ccc565b946020939093013593505050565b600060208284031215610d6b57600080fd5b5051919050565b602080825260129082015271496e73756666696369656e742066756e647360701b604082015260600190565b600060208284031215610db057600080fd5b81518015158114610a8257600080fd5b634e487b7160e01b600052601160045260246000fd5b60008219821115610de957610de9610dc0565b500190565b60005b83811015610e09578181015183820152602001610df1565b83811115610e18576000848401525b50505050565b7f416363657373436f6e74726f6c3a206163636f756e7420000000000000000000815260008351610e56816017850160208801610dee565b7001034b99036b4b9b9b4b733903937b6329607d1b6017918401918201528351610e87816028840160208801610dee565b01602801949350505050565b6020815260008251806020840152610eb2816040850160208701610dee565b601f01601f19169190910160400192915050565b6000816000190483118215151615610ee057610ee0610dc0565b500290565b634e487b7160e01b600052604160045260246000fd5b634e487b7160e01b600052603260045260246000fd5b600081610f2057610f20610dc0565b50600019019056fe376de48394d1421643e79d0b137a7965cab921c7926a2800d2ebe97274aedb92a26469706673582212205717aba9ffa1c84487b6a37931157e1c997e5ca9c15b9487170463bbd616daee64736f6c63430008090033df8b4c520ffe197c5343c6f5aec59570151ef9a492f2c624fd45ddde6135ec42",
  "devdoc": {
    "kind": "dev",
    "methods": {
      "getRoleAdmin(bytes32)": {
        "details": "Returns the admin role that controls `role`. See {grantRole} and {revokeRole}. To change a role's admin, use {_setRoleAdmin}."
      },
      "grantRole(bytes32,address)": {
        "details": "Grants `role` to `account`. If `account` had not been already granted `role`, emits a {RoleGranted} event. Requirements: - the caller must have ``role``'s admin role."
      },
      "hasRole(bytes32,address)": {
        "details": "Returns `true` if `account` has been granted `role`."
      },
      "renounceRole(bytes32,address)": {
        "details": "Revokes `role` from the calling account. Roles are often managed via {grantRole} and {revokeRole}: this function's purpose is to provide a mechanism for accounts to lose their privileges if they are compromised (such as when a trusted device is misplaced). If the calling account had been revoked `role`, emits a {RoleRevoked} event. Requirements: - the caller must be `account`."
      },
      "revokeRole(bytes32,address)": {
        "details": "Revokes `role` from `account`. If `account` had been granted `role`, emits a {RoleRevoked} event. Requirements: - the caller must have ``role``'s admin role."
      },
      "supportsInterface(bytes4)": {
        "details": "See {IERC165-supportsInterface}."
      }
    },
    "version": 1
  },
  "userdoc": {
    "kind": "user",
    "methods": {},
    "version": 1
  },
  "storageLayout": {
    "storage": [
      {
        "astId": 24,
        "contract": "contracts/player/Treasury.sol:Treasury",
        "label": "_roles",
        "offset": 0,
        "slot": "0",
        "type": "t_mapping(t_bytes32,t_struct(RoleData)19_storage)"
      },
      {
        "astId": 4875,
        "contract": "contracts/player/Treasury.sol:Treasury",
        "label": "cashAddress",
        "offset": 0,
        "slot": "1",
        "type": "t_address"
      },
      {
        "astId": 4879,
        "contract": "contracts/player/Treasury.sol:Treasury",
        "label": "balances",
        "offset": 0,
        "slot": "2",
        "type": "t_mapping(t_address,t_uint256)"
      }
    ],
    "types": {
      "t_address": {
        "encoding": "inplace",
        "label": "address",
        "numberOfBytes": "20"
      },
      "t_bool": {
        "encoding": "inplace",
        "label": "bool",
        "numberOfBytes": "1"
      },
      "t_bytes32": {
        "encoding": "inplace",
        "label": "bytes32",
        "numberOfBytes": "32"
      },
      "t_mapping(t_address,t_bool)": {
        "encoding": "mapping",
        "key": "t_address",
        "label": "mapping(address => bool)",
        "numberOfBytes": "32",
        "value": "t_bool"
      },
      "t_mapping(t_address,t_uint256)": {
        "encoding": "mapping",
        "key": "t_address",
        "label": "mapping(address => uint256)",
        "numberOfBytes": "32",
        "value": "t_uint256"
      },
      "t_mapping(t_bytes32,t_struct(RoleData)19_storage)": {
        "encoding": "mapping",
        "key": "t_bytes32",
        "label": "mapping(bytes32 => struct AccessControl.RoleData)",
        "numberOfBytes": "32",
        "value": "t_struct(RoleData)19_storage"
      },
      "t_struct(RoleData)19_storage": {
        "encoding": "inplace",
        "label": "struct AccessControl.RoleData",
        "members": [
          {
            "astId": 16,
            "contract": "contracts/player/Treasury.sol:Treasury",
            "label": "members",
            "offset": 0,
            "slot": "0",
            "type": "t_mapping(t_address,t_bool)"
          },
          {
            "astId": 18,
            "contract": "contracts/player/Treasury.sol:Treasury",
            "label": "adminRole",
            "offset": 0,
            "slot": "1",
            "type": "t_bytes32"
          }
        ],
        "numberOfBytes": "64"
      },
      "t_uint256": {
        "encoding": "inplace",
        "label": "uint256",
        "numberOfBytes": "32"
      }
    }
  }
}