{
  "address": "0xa513E6E4b8f2a923D98304ec87F64353C4D5C853",
  "abi": [
    {
      "inputs": [],
      "stateMutability": "nonpayable",
      "type": "constructor"
    },
    {
      "anonymous": false,
      "inputs": [
        {
          "indexed": true,
          "internalType": "bytes32",
          "name": "role",
          "type": "bytes32"
        },
        {
          "indexed": true,
          "internalType": "bytes32",
          "name": "previousAdminRole",
          "type": "bytes32"
        },
        {
          "indexed": true,
          "internalType": "bytes32",
          "name": "newAdminRole",
          "type": "bytes32"
        }
      ],
      "name": "RoleAdminChanged",
      "type": "event"
    },
    {
      "anonymous": false,
      "inputs": [
        {
          "indexed": true,
          "internalType": "bytes32",
          "name": "role",
          "type": "bytes32"
        },
        {
          "indexed": true,
          "internalType": "address",
          "name": "account",
          "type": "address"
        },
        {
          "indexed": true,
          "internalType": "address",
          "name": "sender",
          "type": "address"
        }
      ],
      "name": "RoleGranted",
      "type": "event"
    },
    {
      "anonymous": false,
      "inputs": [
        {
          "indexed": true,
          "internalType": "bytes32",
          "name": "role",
          "type": "bytes32"
        },
        {
          "indexed": true,
          "internalType": "address",
          "name": "account",
          "type": "address"
        },
        {
          "indexed": true,
          "internalType": "address",
          "name": "sender",
          "type": "address"
        }
      ],
      "name": "RoleRevoked",
      "type": "event"
    },
    {
      "inputs": [],
      "name": "ADMIN",
      "outputs": [
        {
          "internalType": "bytes32",
          "name": "",
          "type": "bytes32"
        }
      ],
      "stateMutability": "view",
      "type": "function"
    },
    {
      "inputs": [],
      "name": "CASH_SPENDER",
      "outputs": [
        {
          "internalType": "bytes32",
          "name": "",
          "type": "bytes32"
        }
      ],
      "stateMutability": "view",
      "type": "function"
    },
    {
      "inputs": [],
      "name": "DEFAULT_ADMIN_ROLE",
      "outputs": [
        {
          "internalType": "bytes32",
          "name": "",
          "type": "bytes32"
        }
      ],
      "stateMutability": "view",
      "type": "function"
    },
    {
      "inputs": [
        {
          "internalType": "address",
          "name": "",
          "type": "address"
        }
      ],
      "name": "balances",
      "outputs": [
        {
          "internalType": "uint256",
          "name": "",
          "type": "uint256"
        }
      ],
      "stateMutability": "view",
      "type": "function"
    },
    {
      "inputs": [
        {
          "internalType": "uint256",
          "name": "_amount",
          "type": "uint256"
        }
      ],
      "name": "depositCash",
      "outputs": [],
      "stateMutability": "nonpayable",
      "type": "function"
    },
    {
      "inputs": [
        {
          "internalType": "address",
          "name": "_who",
          "type": "address"
        },
        {
          "internalType": "uint256",
          "name": "_amount",
          "type": "uint256"
        }
      ],
      "name": "depositCashTo",
      "outputs": [],
      "stateMutability": "nonpayable",
      "type": "function"
    },
    {
      "inputs": [
        {
          "internalType": "bytes32",
          "name": "role",
          "type": "bytes32"
        }
      ],
      "name": "getRoleAdmin",
      "outputs": [
        {
          "internalType": "bytes32",
          "name": "",
          "type": "bytes32"
        }
      ],
      "stateMutability": "view",
      "type": "function"
    },
    {
      "inputs": [
        {
          "internalType": "bytes32",
          "name": "role",
          "type": "bytes32"
        },
        {
          "internalType": "uint256",
          "name": "index",
          "type": "uint256"
        }
      ],
      "name": "getRoleMember",
      "outputs": [
        {
          "internalType": "address",
          "name": "",
          "type": "address"
        }
      ],
      "stateMutability": "view",
      "type": "function"
    },
    {
      "inputs": [
        {
          "internalType": "bytes32",
          "name": "role",
          "type": "bytes32"
        }
      ],
      "name": "getRoleMemberCount",
      "outputs": [
        {
          "internalType": "uint256",
          "name": "",
          "type": "uint256"
        }
      ],
      "stateMutability": "view",
      "type": "function"
    },
    {
      "inputs": [
        {
          "internalType": "bytes32",
          "name": "role",
          "type": "bytes32"
        },
        {
          "internalType": "address",
          "name": "account",
          "type": "address"
        }
      ],
      "name": "grantRole",
      "outputs": [],
      "stateMutability": "nonpayable",
      "type": "function"
    },
    {
      "inputs": [
        {
          "internalType": "bytes32",
          "name": "role",
          "type": "bytes32"
        },
        {
          "internalType": "address",
          "name": "account",
          "type": "address"
        }
      ],
      "name": "hasRole",
      "outputs": [
        {
          "internalType": "bool",
          "name": "",
          "type": "bool"
        }
      ],
      "stateMutability": "view",
      "type": "function"
    },
    {
      "inputs": [
        {
          "internalType": "bytes32",
          "name": "role",
          "type": "bytes32"
        },
        {
          "internalType": "address",
          "name": "account",
          "type": "address"
        }
      ],
      "name": "renounceRole",
      "outputs": [],
      "stateMutability": "nonpayable",
      "type": "function"
    },
    {
      "inputs": [
        {
          "internalType": "bytes32",
          "name": "role",
          "type": "bytes32"
        },
        {
          "internalType": "address",
          "name": "account",
          "type": "address"
        }
      ],
      "name": "revokeRole",
      "outputs": [],
      "stateMutability": "nonpayable",
      "type": "function"
    },
    {
      "inputs": [
        {
          "internalType": "address",
          "name": "_cashAddress",
          "type": "address"
        }
      ],
      "name": "setCashAddress",
      "outputs": [],
      "stateMutability": "nonpayable",
      "type": "function"
    },
    {
      "inputs": [
        {
          "internalType": "address",
          "name": "_who",
          "type": "address"
        }
      ],
      "name": "setCashSpender",
      "outputs": [],
      "stateMutability": "nonpayable",
      "type": "function"
    },
    {
      "inputs": [
        {
          "internalType": "address",
          "name": "_who",
          "type": "address"
        },
        {
          "internalType": "uint256",
          "name": "_amount",
          "type": "uint256"
        }
      ],
      "name": "spendCash",
      "outputs": [],
      "stateMutability": "nonpayable",
      "type": "function"
    }
  ],
  "transactionHash": "0x2f1e59c18431a47dd1f9ed6c643728a848dd8e37499a0008d0dd0b6397e5c982",
  "args": [],
  "solcInputHash": "8f1eaf940c377f820c07e3c6dbeebcfa",
  "bytecode": "0x60806040523480156200001157600080fd5b50604080516420a226a4a760d91b815290519081900360050190206200004190336001600160e01b036200009316565b604080516b21a0a9a42fa9a822a72222a960a11b8152815190819003600c0181206420a226a4a760d91b825291519081900360050190206200008d91906001600160e01b03620000ac16565b6200021d565b620000a882826001600160e01b03620000fe16565b5050565b600082815260208190526040808220600201549051839285917fbd79b86ffe0ab8e8776151514217cd7cacd52c909f66475c3af44e129f0b00ff9190a460009182526020829052604090912060020155565b6000828152602081815260409091206200012391839062000a8e62000180821b17901c565b15620000a8576200013c6001600160e01b03620001a916565b6001600160a01b0316816001600160a01b0316837f2f8788117e7eff1d82e926ec794901d17c78024a50270940304540a733656f0d60405160405180910390a45050565b6000620001a0836001600160a01b0384166001600160e01b03620001ad16565b90505b92915050565b3390565b6000620001c483836001600160e01b036200020516565b620001fc57508154600181810184556000848152602080822090930184905584548482528286019093526040902091909155620001a3565b506000620001a3565b60009081526001919091016020526040902054151590565b610f6f806200022d6000396000f3fe608060405234801561001057600080fd5b50600436106101005760003560e01c80639010d07c11610097578063bdf752bb11610066578063bdf752bb146102ba578063ca15c873146102e0578063cabdae7b146102fd578063d547741f1461032957610100565b80639010d07c1461020757806391d1485414610246578063a217fddf14610286578063a44ee3141461028e57610100565b80632f2ff15d116100d35780632f2ff15d1461016a57806336568abe146101985780633743089a146101c45780633fdcc03c146101ea57610100565b806311b1b28514610105578063248a9ca31461011f57806327e235e31461013c5780632a0acc6a14610162575b600080fd5b61010d610355565b60408051918252519081900360200190f35b61010d6004803603602081101561013557600080fd5b5035610379565b61010d6004803603602081101561015257600080fd5b50356001600160a01b031661038e565b61010d6103a0565b6101966004803603604081101561018057600080fd5b50803590602001356001600160a01b03166103bd565b005b610196600480360360408110156101ae57600080fd5b50803590602001356001600160a01b0316610429565b610196600480360360208110156101da57600080fd5b50356001600160a01b031661048a565b6101966004803603602081101561020057600080fd5b5035610519565b61022a6004803603604081101561021d57600080fd5b5080359060200135610690565b604080516001600160a01b039092168252519081900360200190f35b6102726004803603604081101561025c57600080fd5b50803590602001356001600160a01b03166106b7565b604080519115158252519081900360200190f35b61010d6106d5565b610196600480360360408110156102a457600080fd5b506001600160a01b0381351690602001356106da565b610196600480360360208110156102d057600080fd5b50356001600160a01b0316610867565b61010d600480360360208110156102f657600080fd5b50356108ea565b6101966004803603604081101561031357600080fd5b506001600160a01b038135169060200135610901565b6101966004803603604081101561033f57600080fd5b50803590602001356001600160a01b0316610a35565b604080516b21a0a9a42fa9a822a72222a960a11b8152905190819003600c01902081565b60009081526020819052604090206002015490565b60026020526000908152604090205481565b604080516420a226a4a760d91b8152905190819003600501902081565b6000828152602081905260409020600201546103e0906103db610aa3565b6106b7565b61041b5760405162461bcd60e51b815260040180806020018281038252602f815260200180610eac602f913960400191505060405180910390fd5b6104258282610aa7565b5050565b610431610aa3565b6001600160a01b0316816001600160a01b0316146104805760405162461bcd60e51b815260040180806020018281038252602f815260200180610f0b602f913960400191505060405180910390fd5b6104258282610b16565b604080516420a226a4a760d91b815290519081900360050190206104ae90336106b7565b6104eb576040805162461bcd60e51b81526020600482015260096024820152682737ba1020b236b4b760b91b604482015290519081900360640190fd5b604080516b21a0a9a42fa9a822a72222a960a11b8152905190819003600c01902061051690826103bd565b50565b600154604080516370a0823160e01b8152336004820152905183926001600160a01b0316916370a08231916024808301926020929190829003018186803b15801561056357600080fd5b505afa158015610577573d6000803e3d6000fd5b505050506040513d602081101561058d57600080fd5b505110156105d7576040805162461bcd60e51b8152602060048201526012602482015271496e73756666696369656e742066756e647360701b604482015290519081900360640190fd5b600154604080516323b872dd60e01b81523360048201523060248201526044810184905290516001600160a01b03909216916323b872dd916064808201926020929091908290030181600087803b15801561063157600080fd5b505af1158015610645573d6000803e3d6000fd5b505050506040513d602081101561065b57600080fd5b50503360009081526002602052604090205461067d908263ffffffff610b8516565b3360009081526002602052604090205550565b60008281526020819052604081206106ae908363ffffffff610bdf16565b90505b92915050565b60008281526020819052604081206106ae908363ffffffff610beb16565b600081565b600154604080516370a0823160e01b8152336004820152905183926001600160a01b0316916370a08231916024808301926020929190829003018186803b15801561072457600080fd5b505afa158015610738573d6000803e3d6000fd5b505050506040513d602081101561074e57600080fd5b50511015610798576040805162461bcd60e51b8152602060048201526012602482015271496e73756666696369656e742066756e647360701b604482015290519081900360640190fd5b600154604080516323b872dd60e01b81523360048201523060248201526044810184905290516001600160a01b03909216916323b872dd916064808201926020929091908290030181600087803b1580156107f257600080fd5b505af1158015610806573d6000803e3d6000fd5b505050506040513d602081101561081c57600080fd5b50506001600160a01b038216600090815260026020526040902054610847908263ffffffff610b8516565b6001600160a01b0390921660009081526002602052604090209190915550565b604080516420a226a4a760d91b8152905190819003600501902061088b90336106b7565b6108c8576040805162461bcd60e51b81526020600482015260096024820152682737ba1020b236b4b760b91b604482015290519081900360640190fd5b600180546001600160a01b0319166001600160a01b0392909216919091179055565b60008181526020819052604081206106b190610c00565b604080516b21a0a9a42fa9a822a72222a960a11b8152905190819003600c01902061092c90336106b7565b610970576040805162461bcd60e51b815260206004820152601060248201526f2737ba1021b0b9b41029b832b73232b960811b604482015290519081900360640190fd5b6001600160a01b03821660009081526002602052604090205481111561099557600080fd5b6001600160a01b0382166000908152600260205260409020546109be908263ffffffff610c0b16565b6001600160a01b03808416600090815260026020526040808220939093556001548351630852cd8d60e31b81526004810186905293519216926342966c68926024808301939282900301818387803b158015610a1957600080fd5b505af1158015610a2d573d6000803e3d6000fd5b505050505050565b600082815260208190526040902060020154610a53906103db610aa3565b6104805760405162461bcd60e51b8152600401808060200182810382526030815260200180610edb6030913960400191505060405180910390fd5b60006106ae836001600160a01b038416610c4d565b3390565b6000828152602081905260409020610ac5908263ffffffff610a8e16565b1561042557610ad2610aa3565b6001600160a01b0316816001600160a01b0316837f2f8788117e7eff1d82e926ec794901d17c78024a50270940304540a733656f0d60405160405180910390a45050565b6000828152602081905260409020610b34908263ffffffff610c9716565b1561042557610b41610aa3565b6001600160a01b0316816001600160a01b0316837ff6391f5c32d9c69d2a47ea670b442974b53935d1edc7fd64eb21e047a839171b60405160405180910390a45050565b6000828201838110156106ae576040805162461bcd60e51b815260206004820152601b60248201527f536166654d6174683a206164646974696f6e206f766572666c6f770000000000604482015290519081900360640190fd5b60006106ae8383610cac565b60006106ae836001600160a01b038416610d10565b60006106b182610d28565b60006106ae83836040518060400160405280601e81526020017f536166654d6174683a207375627472616374696f6e206f766572666c6f770000815250610d2c565b6000610c598383610d10565b610c8f575081546001818101845560008481526020808220909301849055845484825282860190935260409020919091556106b1565b5060006106b1565b60006106ae836001600160a01b038416610dc3565b81546000908210610cee5760405162461bcd60e51b8152600401808060200182810382526022815260200180610e8a6022913960400191505060405180910390fd5b826000018281548110610cfd57fe5b9060005260206000200154905092915050565b60009081526001919091016020526040902054151590565b5490565b60008184841115610dbb5760405162461bcd60e51b81526004018080602001828103825283818151815260200191508051906020019080838360005b83811015610d80578181015183820152602001610d68565b50505050905090810190601f168015610dad5780820380516001836020036101000a031916815260200191505b509250505060405180910390fd5b505050900390565b60008181526001830160205260408120548015610e7f5783546000198083019190810190600090879083908110610df657fe5b9060005260206000200154905080876000018481548110610e1357fe5b600091825260208083209091019290925582815260018981019092526040902090840190558654879080610e4357fe5b600190038181906000526020600020016000905590558660010160008781526020019081526020016000206000905560019450505050506106b1565b60009150506106b156fe456e756d657261626c655365743a20696e646578206f7574206f6620626f756e6473416363657373436f6e74726f6c3a2073656e646572206d75737420626520616e2061646d696e20746f206772616e74416363657373436f6e74726f6c3a2073656e646572206d75737420626520616e2061646d696e20746f207265766f6b65416363657373436f6e74726f6c3a2063616e206f6e6c792072656e6f756e636520726f6c657320666f722073656c66a2646970667358221220c26b02ca5bd7e029dfb8c6426996d48174c5d2ad3931b0ae324344ff4ba7d97c64736f6c63430006080033",
  "devdoc": {
    "methods": {
      "getRoleAdmin(bytes32)": {
        "details": "Returns the admin role that controls `role`. See {grantRole} and {revokeRole}.     * To change a role's admin, use {_setRoleAdmin}."
      },
      "getRoleMember(bytes32,uint256)": {
        "details": "Returns one of the accounts that have `role`. `index` must be a value between 0 and {getRoleMemberCount}, non-inclusive.     * Role bearers are not sorted in any particular way, and their ordering may change at any point.     * WARNING: When using {getRoleMember} and {getRoleMemberCount}, make sure you perform all queries on the same block. See the following https://forum.openzeppelin.com/t/iterating-over-elements-on-enumerableset-in-openzeppelin-contracts/2296[forum post] for more information."
      },
      "getRoleMemberCount(bytes32)": {
        "details": "Returns the number of accounts that have `role`. Can be used together with {getRoleMember} to enumerate all bearers of a role."
      },
      "grantRole(bytes32,address)": {
        "details": "Grants `role` to `account`.     * If `account` had not been already granted `role`, emits a {RoleGranted} event.     * Requirements:     * - the caller must have ``role``'s admin role."
      },
      "hasRole(bytes32,address)": {
        "details": "Returns `true` if `account` has been granted `role`."
      },
      "renounceRole(bytes32,address)": {
        "details": "Revokes `role` from the calling account.     * Roles are often managed via {grantRole} and {revokeRole}: this function's purpose is to provide a mechanism for accounts to lose their privileges if they are compromised (such as when a trusted device is misplaced).     * If the calling account had been granted `role`, emits a {RoleRevoked} event.     * Requirements:     * - the caller must be `account`."
      },
      "revokeRole(bytes32,address)": {
        "details": "Revokes `role` from `account`.     * If `account` had been granted `role`, emits a {RoleRevoked} event.     * Requirements:     * - the caller must have ``role``'s admin role."
      }
    }
  },
  "userdoc": {
    "methods": {}
  },
  "storageLayout": {
    "storage": [
      {
        "astId": 45,
        "contract": "contracts/player/Treasury.sol:Treasury",
        "label": "_roles",
        "offset": 0,
        "slot": "0",
        "type": "t_mapping(t_bytes32,t_struct(RoleData)41_storage)"
      },
      {
        "astId": 4871,
        "contract": "contracts/player/Treasury.sol:Treasury",
        "label": "cashAddress",
        "offset": 0,
        "slot": "1",
        "type": "t_address"
      },
      {
        "astId": 4875,
        "contract": "contracts/player/Treasury.sol:Treasury",
        "label": "balances",
        "offset": 0,
        "slot": "2",
        "type": "t_mapping(t_address,t_uint256)"
      }
    ],
    "types": {
      "t_address": {
        "encoding": "inplace",
        "label": "address",
        "numberOfBytes": "20"
      },
      "t_array(t_bytes32)dyn_storage": {
        "base": "t_bytes32",
        "encoding": "dynamic_array",
        "label": "bytes32[]",
        "numberOfBytes": "32"
      },
      "t_bytes32": {
        "encoding": "inplace",
        "label": "bytes32",
        "numberOfBytes": "32"
      },
      "t_mapping(t_address,t_uint256)": {
        "encoding": "mapping",
        "key": "t_address",
        "label": "mapping(address => uint256)",
        "numberOfBytes": "32",
        "value": "t_uint256"
      },
      "t_mapping(t_bytes32,t_struct(RoleData)41_storage)": {
        "encoding": "mapping",
        "key": "t_bytes32",
        "label": "mapping(bytes32 => struct AccessControl.RoleData)",
        "numberOfBytes": "32",
        "value": "t_struct(RoleData)41_storage"
      },
      "t_mapping(t_bytes32,t_uint256)": {
        "encoding": "mapping",
        "key": "t_bytes32",
        "label": "mapping(bytes32 => uint256)",
        "numberOfBytes": "32",
        "value": "t_uint256"
      },
      "t_struct(AddressSet)3357_storage": {
        "encoding": "inplace",
        "label": "struct EnumerableSet.AddressSet",
        "members": [
          {
            "astId": 3356,
            "contract": "contracts/player/Treasury.sol:Treasury",
            "label": "_inner",
            "offset": 0,
            "slot": "0",
            "type": "t_struct(Set)3092_storage"
          }
        ],
        "numberOfBytes": "64"
      },
      "t_struct(RoleData)41_storage": {
        "encoding": "inplace",
        "label": "struct AccessControl.RoleData",
        "members": [
          {
            "astId": 38,
            "contract": "contracts/player/Treasury.sol:Treasury",
            "label": "members",
            "offset": 0,
            "slot": "0",
            "type": "t_struct(AddressSet)3357_storage"
          },
          {
            "astId": 40,
            "contract": "contracts/player/Treasury.sol:Treasury",
            "label": "adminRole",
            "offset": 0,
            "slot": "2",
            "type": "t_bytes32"
          }
        ],
        "numberOfBytes": "96"
      },
      "t_struct(Set)3092_storage": {
        "encoding": "inplace",
        "label": "struct EnumerableSet.Set",
        "members": [
          {
            "astId": 3087,
            "contract": "contracts/player/Treasury.sol:Treasury",
            "label": "_values",
            "offset": 0,
            "slot": "0",
            "type": "t_array(t_bytes32)dyn_storage"
          },
          {
            "astId": 3091,
            "contract": "contracts/player/Treasury.sol:Treasury",
            "label": "_indexes",
            "offset": 0,
            "slot": "1",
            "type": "t_mapping(t_bytes32,t_uint256)"
          }
        ],
        "numberOfBytes": "64"
      },
      "t_uint256": {
        "encoding": "inplace",
        "label": "uint256",
        "numberOfBytes": "32"
      }
    }
  }
}