{
  "address": "0x5FC8d32690cc91D4c39d9d3abcBD16989F875707",
  "abi": [
    {
      "inputs": [
        {
          "internalType": "uint256",
          "name": "_duration",
          "type": "uint256"
        },
        {
          "internalType": "uint256",
          "name": "_experience",
          "type": "uint256"
        },
        {
          "internalType": "uint256",
          "name": "_chanceOfSuccess",
          "type": "uint256"
        },
        {
          "internalType": "uint256",
          "name": "_baseEarning",
          "type": "uint256"
        },
        {
          "internalType": "uint256",
          "name": "_earningBonus",
          "type": "uint256"
        }
      ],
      "stateMutability": "nonpayable",
      "type": "constructor"
    },
    {
      "anonymous": false,
      "inputs": [
        {
          "indexed": false,
          "internalType": "string",
          "name": "name",
          "type": "string"
        },
        {
          "indexed": false,
          "internalType": "address",
          "name": "who",
          "type": "address"
        },
        {
          "indexed": false,
          "internalType": "uint256",
          "name": "when",
          "type": "uint256"
        }
      ],
      "name": "SchemeStarted",
      "type": "event"
    },
    {
      "inputs": [
        {
          "internalType": "address",
          "name": "_who",
          "type": "address"
        }
      ],
      "name": "complete",
      "outputs": [],
      "stateMutability": "nonpayable",
      "type": "function"
    },
    {
      "inputs": [],
      "name": "duration",
      "outputs": [
        {
          "internalType": "uint256",
          "name": "",
          "type": "uint256"
        }
      ],
      "stateMutability": "view",
      "type": "function"
    },
    {
      "inputs": [],
      "name": "getScheme",
      "outputs": [
        {
          "internalType": "uint256",
          "name": "_duration",
          "type": "uint256"
        },
        {
          "internalType": "string",
          "name": "_name",
          "type": "string"
        }
      ],
      "stateMutability": "view",
      "type": "function"
    },
    {
      "inputs": [
        {
          "internalType": "address",
          "name": "_cashContractAddress",
          "type": "address"
        }
      ],
      "name": "setCashContract",
      "outputs": [],
      "stateMutability": "nonpayable",
      "type": "function"
    },
    {
      "inputs": [
        {
          "internalType": "address",
          "name": "_randomNumberGenerator",
          "type": "address"
        }
      ],
      "name": "setRandomNumberGenerator",
      "outputs": [],
      "stateMutability": "nonpayable",
      "type": "function"
    },
    {
      "inputs": [
        {
          "internalType": "address",
          "name": "_who",
          "type": "address"
        }
      ],
      "name": "start",
      "outputs": [],
      "stateMutability": "nonpayable",
      "type": "function"
    }
  ],
  "transactionHash": "0xdd62bffffdef3805de6617c4fb12e2cee9274c5e9346bb48b04146f469c8cf32",
  "args": [
    43200,
    500,
    33,
    1000,
    750
  ],
  "solcInputHash": "95edde3b810702dab6b59778bcd41322",
  "bytecode": "0x608060405234801561001057600080fd5b506040516104b73803806104b7833981810160405260a081101561003357600080fd5b508051602082015160408301516060840151608090940151600093909355600191909155600255600591909155600655610445806100726000396000f3fe608060405234801561001057600080fd5b50600436106100625760003560e01c80630fb5a6b41461006757806393af0292146100815780639ecb7c41146100a9578063d07f8a43146100cf578063dd0b281e146100f5578063ff83298a1461011b575b600080fd5b61006f6101a2565b60408051918252519081900360200190f35b6100a76004803603602081101561009757600080fd5b50356001600160a01b03166101a8565b005b6100a7600480360360208110156100bf57600080fd5b50356001600160a01b03166101cc565b6100a7600480360360208110156100e557600080fd5b50356001600160a01b03166101ee565b6100a76004803603602081101561010b57600080fd5b50356001600160a01b0316610210565b61012361021c565b6040518083815260200180602001828103825283818151815260200191508051906020019080838360005b8381101561016657818101518382015260200161014e565b50505050905090810190601f1680156101935780820380516001836020036101000a031916815260200191505b50935050505060405180910390f35b60005481565b60006101b2610233565b905080600254106101c8576101c88260216102b1565b5050565b600480546001600160a01b0319166001600160a01b0392909216919091179055565b600380546001600160a01b0319166001600160a01b0392909216919091179055565b61021981610326565b50565b6000606060005461022b6103eb565b915091509091565b60035460408051631a1a799360e01b81526064600482015290516000926001600160a01b031691631a1a799391602480830192602092919082900301818787803b15801561028057600080fd5b505af1158015610294573d6000803e3d6000fd5b505050506040513d60208110156102aa57600080fd5b5051905090565b60048054604080516340c10f1960e01b81526001600160a01b038681169482019490945260248101859052905192909116916340c10f199160448082019260009290919082900301818387803b15801561030a57600080fd5b505af115801561031e573d6000803e3d6000fd5b505050505050565b7f770ec39a627afda6de8b8d68f80104e297a2cd74a7544ee4f52b4912705c260861034f6103eb565b82426040518080602001846001600160a01b03166001600160a01b03168152602001838152602001828103825285818151815260200191508051906020019080838360005b838110156103ac578181015183820152602001610394565b50505050905090810190601f1680156103d95780820380516001836020036101000a031916815260200191505b5094505050505060405180910390a150565b60408051808201909152600a8152695969656c64206661726d60b01b60208201529056fea264697066735822122054d9fd9af06c43b3bb8833eba2a62db05058473aa6d94c42e47db9a38f4f18d964736f6c63430006080033",
  "devdoc": {
    "methods": {}
  },
  "userdoc": {
    "methods": {}
  },
  "storageLayout": {
    "storage": [
      {
        "astId": 4248,
        "contract": "contracts/schemes/YieldFarm.sol:YieldFarm",
        "label": "duration",
        "offset": 0,
        "slot": "0",
        "type": "t_uint256"
      },
      {
        "astId": 4250,
        "contract": "contracts/schemes/YieldFarm.sol:YieldFarm",
        "label": "experience",
        "offset": 0,
        "slot": "1",
        "type": "t_uint256"
      },
      {
        "astId": 4252,
        "contract": "contracts/schemes/YieldFarm.sol:YieldFarm",
        "label": "successChance",
        "offset": 0,
        "slot": "2",
        "type": "t_uint256"
      },
      {
        "astId": 4254,
        "contract": "contracts/schemes/YieldFarm.sol:YieldFarm",
        "label": "randomNumberGenerator",
        "offset": 0,
        "slot": "3",
        "type": "t_address"
      },
      {
        "astId": 4256,
        "contract": "contracts/schemes/YieldFarm.sol:YieldFarm",
        "label": "cashContract",
        "offset": 0,
        "slot": "4",
        "type": "t_address"
      },
      {
        "astId": 4853,
        "contract": "contracts/schemes/YieldFarm.sol:YieldFarm",
        "label": "baseEarning",
        "offset": 0,
        "slot": "5",
        "type": "t_uint256"
      },
      {
        "astId": 4855,
        "contract": "contracts/schemes/YieldFarm.sol:YieldFarm",
        "label": "earningBonus",
        "offset": 0,
        "slot": "6",
        "type": "t_uint256"
      }
    ],
    "types": {
      "t_address": {
        "encoding": "inplace",
        "label": "address",
        "numberOfBytes": "20"
      },
      "t_uint256": {
        "encoding": "inplace",
        "label": "uint256",
        "numberOfBytes": "32"
      }
    }
  }
}