{
  "address": "0x5FC8d32690cc91D4c39d9d3abcBD16989F875707",
  "abi": [
    {
      "inputs": [
        {
          "internalType": "uint256",
          "name": "_duration",
          "type": "uint256"
        },
        {
          "internalType": "uint256",
          "name": "_experience",
          "type": "uint256"
        },
        {
          "internalType": "uint256",
          "name": "_chanceOfSuccess",
          "type": "uint256"
        },
        {
          "internalType": "uint256",
          "name": "_baseEarning",
          "type": "uint256"
        },
        {
          "internalType": "uint256",
          "name": "_earningBonus",
          "type": "uint256"
        }
      ],
      "stateMutability": "nonpayable",
      "type": "constructor"
    },
    {
      "anonymous": false,
      "inputs": [
        {
          "indexed": false,
          "internalType": "string",
          "name": "name",
          "type": "string"
        },
        {
          "indexed": false,
          "internalType": "address",
          "name": "who",
          "type": "address"
        },
        {
          "indexed": false,
          "internalType": "uint256",
          "name": "when",
          "type": "uint256"
        }
      ],
      "name": "SchemeStarted",
      "type": "event"
    },
    {
      "inputs": [
        {
          "internalType": "address",
          "name": "_who",
          "type": "address"
        }
      ],
      "name": "complete",
      "outputs": [],
      "stateMutability": "nonpayable",
      "type": "function"
    },
    {
      "inputs": [],
      "name": "duration",
      "outputs": [
        {
          "internalType": "uint256",
          "name": "",
          "type": "uint256"
        }
      ],
      "stateMutability": "view",
      "type": "function"
    },
    {
      "inputs": [],
      "name": "getScheme",
      "outputs": [
        {
          "internalType": "uint256",
          "name": "_duration",
          "type": "uint256"
        },
        {
          "internalType": "string",
          "name": "_name",
          "type": "string"
        }
      ],
      "stateMutability": "view",
      "type": "function"
    },
    {
      "inputs": [
        {
          "internalType": "address",
          "name": "_cashContractAddress",
          "type": "address"
        }
      ],
      "name": "setCashContract",
      "outputs": [],
      "stateMutability": "nonpayable",
      "type": "function"
    },
    {
      "inputs": [
        {
          "internalType": "address",
          "name": "_playerStatsAddress",
          "type": "address"
        }
      ],
      "name": "setPlayerStats",
      "outputs": [],
      "stateMutability": "nonpayable",
      "type": "function"
    },
    {
      "inputs": [
        {
          "internalType": "address",
          "name": "_randomNumberGenerator",
          "type": "address"
        }
      ],
      "name": "setRandomNumberGenerator",
      "outputs": [],
      "stateMutability": "nonpayable",
      "type": "function"
    },
    {
      "inputs": [
        {
          "internalType": "address",
          "name": "_treasuryAddress",
          "type": "address"
        }
      ],
      "name": "setTreasury",
      "outputs": [],
      "stateMutability": "nonpayable",
      "type": "function"
    },
    {
      "inputs": [
        {
          "internalType": "address",
          "name": "_who",
          "type": "address"
        }
      ],
      "name": "start",
      "outputs": [],
      "stateMutability": "nonpayable",
      "type": "function"
    }
  ],
  "transactionHash": "0x0427042470d55e32ba318d20288aecbfd6b5872bc9c4bc95d42c4913341681e4",
  "args": [
    43200,
    500,
    33,
    1000,
    750
  ],
  "solcInputHash": "8f1eaf940c377f820c07e3c6dbeebcfa",
  "bytecode": "0x608060405234801561001057600080fd5b50604051610651380380610651833981810160405260a081101561003357600080fd5b5080516020820151604083015160608401516080909401516000939093556001919091556002556007919091556008556105df806100726000396000f3fe608060405234801561001057600080fd5b50600436106100885760003560e01c8063d07f8a431161005b578063d07f8a431461011b578063dd0b281e14610141578063f0f4426014610167578063ff83298a1461018d57610088565b80630fb5a6b41461008d57806350fc2964146100a757806393af0292146100cf5780639ecb7c41146100f5575b600080fd5b610095610214565b60408051918252519081900360200190f35b6100cd600480360360208110156100bd57600080fd5b50356001600160a01b031661021a565b005b6100cd600480360360208110156100e557600080fd5b50356001600160a01b031661023c565b6100cd6004803603602081101561010b57600080fd5b50356001600160a01b0316610260565b6100cd6004803603602081101561013157600080fd5b50356001600160a01b03166102fe565b6100cd6004803603602081101561015757600080fd5b50356001600160a01b0316610320565b6100cd6004803603602081101561017d57600080fd5b50356001600160a01b031661032c565b61019561034e565b6040518083815260200180602001828103825283818151815260200191508051906020019080838360005b838110156101d85781810151838201526020016101c0565b50505050905090810190601f1680156102055780820380516001836020036101000a031916815260200191505b50935050505060405180910390f35b60005481565b600680546001600160a01b0319166001600160a01b0392909216919091179055565b6000610246610365565b9050806002541061025c5761025c8260216103e3565b5050565b600480546001600160a01b0319166001600160a01b03838116919091178083556005546040805163095ea7b360e01b8152918416948201949094526000196024820152925191169163095ea7b39160448083019260209291908290030181600087803b1580156102cf57600080fd5b505af11580156102e3573d6000803e3d6000fd5b505050506040513d60208110156102f957600080fd5b505050565b600380546001600160a01b0319166001600160a01b0392909216919091179055565b610329816104c0565b50565b600580546001600160a01b0319166001600160a01b0392909216919091179055565b6000606060005461035d610585565b915091509091565b60035460408051631a1a799360e01b81526064600482015290516000926001600160a01b031691631a1a799391602480830192602092919082900301818787803b1580156103b257600080fd5b505af11580156103c6573d6000803e3d6000fd5b505050506040513d60208110156103dc57600080fd5b5051905090565b60048054604080516340c10f1960e01b8152309381019390935260248301849052516001600160a01b03909116916340c10f1991604480830192600092919082900301818387803b15801561043757600080fd5b505af115801561044b573d6000803e3d6000fd5b505060055460408051632913b8c560e21b81526001600160a01b03878116600483015260248201879052915191909216935063a44ee3149250604480830192600092919082900301818387803b1580156104a457600080fd5b505af11580156104b8573d6000803e3d6000fd5b505050505050565b7f770ec39a627afda6de8b8d68f80104e297a2cd74a7544ee4f52b4912705c26086104e9610585565b82426040518080602001846001600160a01b03166001600160a01b03168152602001838152602001828103825285818151815260200191508051906020019080838360005b8381101561054657818101518382015260200161052e565b50505050905090810190601f1680156105735780820380516001836020036101000a031916815260200191505b5094505050505060405180910390a150565b60408051808201909152600a8152695969656c64206661726d60b01b60208201529056fea264697066735822122050a01366c22d61dc9634820e03f83b1656ebc5de5f10ee7774b58e6df9ee50bb64736f6c63430006080033",
  "devdoc": {
    "methods": {}
  },
  "userdoc": {
    "methods": {}
  },
  "storageLayout": {
    "storage": [
      {
        "astId": 5091,
        "contract": "contracts/schemes/YieldFarm.sol:YieldFarm",
        "label": "duration",
        "offset": 0,
        "slot": "0",
        "type": "t_uint256"
      },
      {
        "astId": 5093,
        "contract": "contracts/schemes/YieldFarm.sol:YieldFarm",
        "label": "experience",
        "offset": 0,
        "slot": "1",
        "type": "t_uint256"
      },
      {
        "astId": 5095,
        "contract": "contracts/schemes/YieldFarm.sol:YieldFarm",
        "label": "successChance",
        "offset": 0,
        "slot": "2",
        "type": "t_uint256"
      },
      {
        "astId": 5097,
        "contract": "contracts/schemes/YieldFarm.sol:YieldFarm",
        "label": "randomNumberGenerator",
        "offset": 0,
        "slot": "3",
        "type": "t_address"
      },
      {
        "astId": 5099,
        "contract": "contracts/schemes/YieldFarm.sol:YieldFarm",
        "label": "cashContract",
        "offset": 0,
        "slot": "4",
        "type": "t_address"
      },
      {
        "astId": 5101,
        "contract": "contracts/schemes/YieldFarm.sol:YieldFarm",
        "label": "treasuryAddress",
        "offset": 0,
        "slot": "5",
        "type": "t_address"
      },
      {
        "astId": 5103,
        "contract": "contracts/schemes/YieldFarm.sol:YieldFarm",
        "label": "playerStatsAddress",
        "offset": 0,
        "slot": "6",
        "type": "t_address"
      },
      {
        "astId": 5843,
        "contract": "contracts/schemes/YieldFarm.sol:YieldFarm",
        "label": "baseEarning",
        "offset": 0,
        "slot": "7",
        "type": "t_uint256"
      },
      {
        "astId": 5845,
        "contract": "contracts/schemes/YieldFarm.sol:YieldFarm",
        "label": "earningBonus",
        "offset": 0,
        "slot": "8",
        "type": "t_uint256"
      }
    ],
    "types": {
      "t_address": {
        "encoding": "inplace",
        "label": "address",
        "numberOfBytes": "20"
      },
      "t_uint256": {
        "encoding": "inplace",
        "label": "uint256",
        "numberOfBytes": "32"
      }
    }
  }
}