{
  "_format": "hh-sol-artifact-1",
  "contractName": "Cash",
  "sourceName": "contracts/Cash.sol",
  "abi": [
    {
      "inputs": [],
      "stateMutability": "nonpayable",
      "type": "constructor"
    },
    {
      "anonymous": false,
      "inputs": [
        {
          "indexed": true,
          "internalType": "address",
          "name": "owner",
          "type": "address"
        },
        {
          "indexed": true,
          "internalType": "address",
          "name": "spender",
          "type": "address"
        },
        {
          "indexed": false,
          "internalType": "uint256",
          "name": "value",
          "type": "uint256"
        }
      ],
      "name": "Approval",
      "type": "event"
    },
    {
      "anonymous": false,
      "inputs": [
        {
          "indexed": true,
          "internalType": "address",
          "name": "from",
          "type": "address"
        },
        {
          "indexed": true,
          "internalType": "address",
          "name": "to",
          "type": "address"
        },
        {
          "indexed": false,
          "internalType": "uint256",
          "name": "value",
          "type": "uint256"
        }
      ],
      "name": "Transfer",
      "type": "event"
    },
    {
      "inputs": [
        {
          "internalType": "address",
          "name": "owner",
          "type": "address"
        },
        {
          "internalType": "address",
          "name": "spender",
          "type": "address"
        }
      ],
      "name": "allowance",
      "outputs": [
        {
          "internalType": "uint256",
          "name": "",
          "type": "uint256"
        }
      ],
      "stateMutability": "view",
      "type": "function"
    },
    {
      "inputs": [
        {
          "internalType": "address",
          "name": "spender",
          "type": "address"
        },
        {
          "internalType": "uint256",
          "name": "amount",
          "type": "uint256"
        }
      ],
      "name": "approve",
      "outputs": [
        {
          "internalType": "bool",
          "name": "",
          "type": "bool"
        }
      ],
      "stateMutability": "nonpayable",
      "type": "function"
    },
    {
      "inputs": [
        {
          "internalType": "address",
          "name": "account",
          "type": "address"
        }
      ],
      "name": "balanceOf",
      "outputs": [
        {
          "internalType": "uint256",
          "name": "",
          "type": "uint256"
        }
      ],
      "stateMutability": "view",
      "type": "function"
    },
    {
      "inputs": [
        {
          "internalType": "uint256",
          "name": "_amount",
          "type": "uint256"
        }
      ],
      "name": "burn",
      "outputs": [],
      "stateMutability": "nonpayable",
      "type": "function"
    },
    {
      "inputs": [],
      "name": "decimals",
      "outputs": [
        {
          "internalType": "uint8",
          "name": "",
          "type": "uint8"
        }
      ],
      "stateMutability": "view",
      "type": "function"
    },
    {
      "inputs": [
        {
          "internalType": "address",
          "name": "spender",
          "type": "address"
        },
        {
          "internalType": "uint256",
          "name": "subtractedValue",
          "type": "uint256"
        }
      ],
      "name": "decreaseAllowance",
      "outputs": [
        {
          "internalType": "bool",
          "name": "",
          "type": "bool"
        }
      ],
      "stateMutability": "nonpayable",
      "type": "function"
    },
    {
      "inputs": [
        {
          "internalType": "address",
          "name": "spender",
          "type": "address"
        },
        {
          "internalType": "uint256",
          "name": "addedValue",
          "type": "uint256"
        }
      ],
      "name": "increaseAllowance",
      "outputs": [
        {
          "internalType": "bool",
          "name": "",
          "type": "bool"
        }
      ],
      "stateMutability": "nonpayable",
      "type": "function"
    },
    {
      "inputs": [
        {
          "internalType": "address",
          "name": "_who",
          "type": "address"
        },
        {
          "internalType": "uint256",
          "name": "_amount",
          "type": "uint256"
        }
      ],
      "name": "mint",
      "outputs": [],
      "stateMutability": "nonpayable",
      "type": "function"
    },
    {
      "inputs": [],
      "name": "name",
      "outputs": [
        {
          "internalType": "string",
          "name": "",
          "type": "string"
        }
      ],
      "stateMutability": "view",
      "type": "function"
    },
    {
      "inputs": [],
      "name": "symbol",
      "outputs": [
        {
          "internalType": "string",
          "name": "",
          "type": "string"
        }
      ],
      "stateMutability": "view",
      "type": "function"
    },
    {
      "inputs": [],
      "name": "totalSupply",
      "outputs": [
        {
          "internalType": "uint256",
          "name": "",
          "type": "uint256"
        }
      ],
      "stateMutability": "view",
      "type": "function"
    },
    {
      "inputs": [
        {
          "internalType": "address",
          "name": "recipient",
          "type": "address"
        },
        {
          "internalType": "uint256",
          "name": "amount",
          "type": "uint256"
        }
      ],
      "name": "transfer",
      "outputs": [
        {
          "internalType": "bool",
          "name": "",
          "type": "bool"
        }
      ],
      "stateMutability": "nonpayable",
      "type": "function"
    },
    {
      "inputs": [
        {
          "internalType": "address",
          "name": "sender",
          "type": "address"
        },
        {
          "internalType": "address",
          "name": "recipient",
          "type": "address"
        },
        {
          "internalType": "uint256",
          "name": "amount",
          "type": "uint256"
        }
      ],
      "name": "transferFrom",
      "outputs": [
        {
          "internalType": "bool",
          "name": "",
          "type": "bool"
        }
      ],
      "stateMutability": "nonpayable",
      "type": "function"
    }
  ],
  "bytecode": "0x608060405234801561001057600080fd5b506040518060400160405280600481526020016308682a6960e31b815250604051806040016040528060048152602001630868248960e31b815250816003908051906020019061006192919061008a565b50805161007590600490602084019061008a565b50506005805460ff1916601217905550610125565b828054600181600116156101000203166002900490600052602060002090601f016020900481019282601f106100cb57805160ff19168380011785556100f8565b828001600101855582156100f8579182015b828111156100f85782518255916020019190600101906100dd565b50610104929150610108565b5090565b61012291905b80821115610104576000815560010161010e565b90565b610d25806101346000396000f3fe608060405234801561001057600080fd5b50600436106100cf5760003560e01c806340c10f191161008c57806395d89b411161006657806395d89b411461029c578063a457c2d7146102a4578063a9059cbb146102d0578063dd62ed3e146102fc576100cf565b806340c10f191461022b57806342966c681461025957806370a0823114610276576100cf565b806306fdde03146100d4578063095ea7b31461015157806318160ddd1461019157806323b872dd146101ab578063313ce567146101e157806339509351146101ff575b600080fd5b6100dc61032a565b6040805160208082528351818301528351919283929083019185019080838360005b838110156101165781810151838201526020016100fe565b50505050905090810190601f1680156101435780820380516001836020036101000a031916815260200191505b509250505060405180910390f35b61017d6004803603604081101561016757600080fd5b506001600160a01b0381351690602001356103c0565b604080519115158252519081900360200190f35b6101996103dd565b60408051918252519081900360200190f35b61017d600480360360608110156101c157600080fd5b506001600160a01b038135811691602081013590911690604001356103e3565b6101e9610470565b6040805160ff9092168252519081900360200190f35b61017d6004803603604081101561021557600080fd5b506001600160a01b038135169060200135610479565b6102576004803603604081101561024157600080fd5b506001600160a01b0381351690602001356104cd565b005b6102576004803603602081101561026f57600080fd5b50356104db565b6101996004803603602081101561028c57600080fd5b50356001600160a01b03166104e8565b6100dc610503565b61017d600480360360408110156102ba57600080fd5b506001600160a01b038135169060200135610564565b61017d600480360360408110156102e657600080fd5b506001600160a01b0381351690602001356105d2565b6101996004803603604081101561031257600080fd5b506001600160a01b03813581169160200135166105e6565b60038054604080516020601f60026000196101006001881615020190951694909404938401819004810282018101909252828152606093909290918301828280156103b65780601f1061038b576101008083540402835291602001916103b6565b820191906000526020600020905b81548152906001019060200180831161039957829003601f168201915b5050505050905090565b60006103d46103cd610611565b8484610615565b50600192915050565b60025490565b60006103f0848484610701565b610466846103fc610611565b61046185604051806060016040528060288152602001610c39602891396001600160a01b038a1660009081526001602052604081209061043a610611565b6001600160a01b03168152602081019190915260400160002054919063ffffffff61086816565b610615565b5060019392505050565b60055460ff1690565b60006103d4610486610611565b846104618560016000610497610611565b6001600160a01b03908116825260208083019390935260409182016000908120918c16815292529020549063ffffffff6108ff16565b6104d78282610960565b5050565b6104e53382610a5c565b50565b6001600160a01b031660009081526020819052604090205490565b60048054604080516020601f60026000196101006001881615020190951694909404938401819004810282018101909252828152606093909290918301828280156103b65780601f1061038b576101008083540402835291602001916103b6565b60006103d4610571610611565b8461046185604051806060016040528060258152602001610ccb602591396001600061059b610611565b6001600160a01b03908116825260208083019390935260409182016000908120918d1681529252902054919063ffffffff61086816565b60006103d46105df610611565b8484610701565b6001600160a01b03918216600090815260016020908152604080832093909416825291909152205490565b3390565b6001600160a01b03831661065a5760405162461bcd60e51b8152600401808060200182810382526024815260200180610ca76024913960400191505060405180910390fd5b6001600160a01b03821661069f5760405162461bcd60e51b8152600401808060200182810382526022815260200180610bf16022913960400191505060405180910390fd5b6001600160a01b03808416600081815260016020908152604080832094871680845294825291829020859055815185815291517f8c5be1e5ebec7d5bd14f71427d1e84f3dd0314c0f7b2291e5b200ac8c7c3b9259281900390910190a3505050565b6001600160a01b0383166107465760405162461bcd60e51b8152600401808060200182810382526025815260200180610c826025913960400191505060405180910390fd5b6001600160a01b03821661078b5760405162461bcd60e51b8152600401808060200182810382526023815260200180610bac6023913960400191505060405180910390fd5b610796838383610b64565b6107d981604051806060016040528060268152602001610c13602691396001600160a01b038616600090815260208190526040902054919063ffffffff61086816565b6001600160a01b03808516600090815260208190526040808220939093559084168152205461080e908263ffffffff6108ff16565b6001600160a01b038084166000818152602081815260409182902094909455805185815290519193928716927fddf252ad1be2c89b69c2b068fc378daa952ba7f163c4a11628f55a4df523b3ef92918290030190a3505050565b600081848411156108f75760405162461bcd60e51b81526004018080602001828103825283818151815260200191508051906020019080838360005b838110156108bc5781810151838201526020016108a4565b50505050905090810190601f1680156108e95780820380516001836020036101000a031916815260200191505b509250505060405180910390fd5b505050900390565b600082820183811015610959576040805162461bcd60e51b815260206004820152601b60248201527f536166654d6174683a206164646974696f6e206f766572666c6f770000000000604482015290519081900360640190fd5b9392505050565b6001600160a01b0382166109bb576040805162461bcd60e51b815260206004820152601f60248201527f45524332303a206d696e7420746f20746865207a65726f206164647265737300604482015290519081900360640190fd5b6109c760008383610b64565b6002546109da908263ffffffff6108ff16565b6002556001600160a01b038216600090815260208190526040902054610a06908263ffffffff6108ff16565b6001600160a01b0383166000818152602081815260408083209490945583518581529351929391927fddf252ad1be2c89b69c2b068fc378daa952ba7f163c4a11628f55a4df523b3ef9281900390910190a35050565b6001600160a01b038216610aa15760405162461bcd60e51b8152600401808060200182810382526021815260200180610c616021913960400191505060405180910390fd5b610aad82600083610b64565b610af081604051806060016040528060228152602001610bcf602291396001600160a01b038516600090815260208190526040902054919063ffffffff61086816565b6001600160a01b038316600090815260208190526040902055600254610b1c908263ffffffff610b6916565b6002556040805182815290516000916001600160a01b038516917fddf252ad1be2c89b69c2b068fc378daa952ba7f163c4a11628f55a4df523b3ef9181900360200190a35050565b505050565b600061095983836040518060400160405280601e81526020017f536166654d6174683a207375627472616374696f6e206f766572666c6f77000081525061086856fe45524332303a207472616e7366657220746f20746865207a65726f206164647265737345524332303a206275726e20616d6f756e7420657863656564732062616c616e636545524332303a20617070726f766520746f20746865207a65726f206164647265737345524332303a207472616e7366657220616d6f756e7420657863656564732062616c616e636545524332303a207472616e7366657220616d6f756e74206578636565647320616c6c6f77616e636545524332303a206275726e2066726f6d20746865207a65726f206164647265737345524332303a207472616e736665722066726f6d20746865207a65726f206164647265737345524332303a20617070726f76652066726f6d20746865207a65726f206164647265737345524332303a2064656372656173656420616c6c6f77616e63652062656c6f77207a65726fa2646970667358221220c54b9a19915549f4b52067a9ab77d8cefae8bd90fdac820f8307b95796bbadd064736f6c63430006080033",
  "linkReferences": {},
  "deployedLinkReferences": {}
}