{
  "_format": "hh-sol-artifact-1",
  "contractName": "Schemes",
  "sourceName": "contracts/schemes/Schemes.sol",
  "abi": [
    {
      "inputs": [],
      "stateMutability": "nonpayable",
      "type": "constructor"
    },
    {
      "inputs": [
        {
          "internalType": "address",
          "name": "_schemeAddress",
          "type": "address"
        }
      ],
      "name": "addScheme",
      "outputs": [],
      "stateMutability": "nonpayable",
      "type": "function"
    },
    {
      "inputs": [
        {
          "internalType": "uint256",
          "name": "_schemeId",
          "type": "uint256"
        }
      ],
      "name": "completeScheme",
      "outputs": [],
      "stateMutability": "nonpayable",
      "type": "function"
    },
    {
      "inputs": [
        {
          "internalType": "address",
          "name": "_who",
          "type": "address"
        }
      ],
      "name": "getOngoingScheme",
      "outputs": [
        {
          "internalType": "bool",
          "name": "_isOngoing",
          "type": "bool"
        },
        {
          "internalType": "uint256",
          "name": "_schemeId",
          "type": "uint256"
        },
        {
          "internalType": "address",
          "name": "_schemeAddress",
          "type": "address"
        },
        {
          "internalType": "uint256",
          "name": "_timeStarted",
          "type": "uint256"
        },
        {
          "internalType": "uint256",
          "name": "_timeCompleting",
          "type": "uint256"
        }
      ],
      "stateMutability": "view",
      "type": "function"
    },
    {
      "inputs": [],
      "name": "listSchemes",
      "outputs": [
        {
          "internalType": "bool[]",
          "name": "_schemes",
          "type": "bool[]"
        }
      ],
      "stateMutability": "view",
      "type": "function"
    },
    {
      "inputs": [],
      "name": "nextSchemeId",
      "outputs": [
        {
          "internalType": "uint256",
          "name": "",
          "type": "uint256"
        }
      ],
      "stateMutability": "view",
      "type": "function"
    },
    {
      "inputs": [
        {
          "internalType": "uint256",
          "name": "",
          "type": "uint256"
        }
      ],
      "name": "schemes",
      "outputs": [
        {
          "internalType": "address",
          "name": "schemeAddress",
          "type": "address"
        },
        {
          "internalType": "bool",
          "name": "isScheme",
          "type": "bool"
        }
      ],
      "stateMutability": "view",
      "type": "function"
    },
    {
      "inputs": [
        {
          "internalType": "uint256",
          "name": "_schemeId",
          "type": "uint256"
        }
      ],
      "name": "startScheme",
      "outputs": [],
      "stateMutability": "nonpayable",
      "type": "function"
    }
  ],
  "bytecode": "0x608060405234801561001057600080fd5b506001600055610897806100256000396000f3fe608060405234801561001057600080fd5b506004361061007d5760003560e01c80637b7111481161005b5780637b711148146101225780638657fa791461013f578063b1f7c7e014610197578063bb52085e146101b15761007d565b806301f66ef414610082578063589de82d146100a15780635b510dbb146100c7575b600080fd5b61009f6004803603602081101561009857600080fd5b50356101f1565b005b61009f600480360360208110156100b757600080fd5b50356001600160a01b031661032f565b6100ed600480360360208110156100dd57600080fd5b50356001600160a01b031661039f565b60408051951515865260208601949094526001600160a01b039092168484015260608401526080830152519081900360a00190f35b61009f6004803603602081101561013857600080fd5b503561042e565b61014761055e565b60408051602080825283518183015283519192839290830191858101910280838360005b8381101561018357818101518382015260200161016b565b505050509050019250505060405180910390f35b61019f6105ff565b60408051918252519081900360200190f35b6101ce600480360360208110156101c757600080fd5b5035610605565b604080516001600160a01b03909316835290151560208301528051918290030190f35b600081815260036020526040902054600160a01b900460ff16610253576040805162461bcd60e51b815260206004820152601560248201527424b73b30b634b21039b1b432b6b29031b437b9b2b760591b604482015290519081900360640190fd5b3360009081526002602052604090205460ff16156102b8576040805162461bcd60e51b815260206004820152601f60248201527f4120736368656d6520697320616c726561647920696e2070726f677265737300604482015290519081900360640190fd5b600081815260036020526040808220548151636e85940f60e11b815233600482015291516001600160a01b039091169263dd0b281e926024808201939182900301818387803b15801561030a57600080fd5b505af115801561031e573d6000803e3d6000fd5b5050505061032c338261062c565b50565b6040805180820182526001600160a01b0383811682526001602080840182815260008054815260039092529481209351845495516001600160a01b031990961693169290921760ff60a01b1916600160a01b94151594909402939093179091555461039991610769565b60005550565b6001600160a01b038116600090815260026020526040812054819081908190819060ff161561041557505050506001600160a01b03828116600081815260016020818152604080842080548086526003845291852054959094529082905282820154600290930154919550939290921691610425565b5060009350839250829150819050805b91939590929450565b3360009081526002602052604090205460ff1661048a576040805162461bcd60e51b81526020600482015260156024820152744e6f20736368656d6520696e2070726f677265737360581b604482015290519081900360640190fd5b336000908152600160205260409020600201544210156104ea576040805162461bcd60e51b8152602060048201526016602482015275536368656d65206973206e6f7420636f6d706c65746560501b604482015290519081900360640190fd5b6000818152600360205260408082205481516349d7814960e11b815233600482015291516001600160a01b03909116926393af0292926024808201939182900301818387803b15801561053c57600080fd5b505af1158015610550573d6000803e3d6000fd5b5050505061032c33826107ca565b60608060005467ffffffffffffffff8111801561057a57600080fd5b506040519080825280602002602001820160405280156105a4578160200160208202803683370190505b50905060005b6000548110156105f957600081815260036020526040902054600160a01b900460ff16156105f15760018282815181106105e057fe5b911515602092830291909101909101525b6001016105aa565b50905090565b60005481565b6003602052600090815260409020546001600160a01b03811690600160a01b900460ff1682565b6001600160a01b03821660009081526002602052604090205460ff161561069a576040805162461bcd60e51b815260206004820152601f60248201527f4120736368656d6520697320616c726561647920696e2070726f677265737300604482015290519081900360640190fd5b6001600160a01b038083166000908152600260209081526040808320805460ff191660019081179091553384528083528184208681554291015584835260038252918290205482516303ed69ad60e21b81529251610752949190911692630fb5a6b4926004808301939192829003018186803b15801561071957600080fd5b505afa15801561072d573d6000803e3d6000fd5b505050506040513d602081101561074357600080fd5b5051429063ffffffff61076916565b336000908152600160205260409020600201555050565b6000828201838110156107c3576040805162461bcd60e51b815260206004820152601b60248201527f536166654d6174683a206164646974696f6e206f766572666c6f770000000000604482015290519081900360640190fd5b9392505050565b3360009081526002602052604090205460ff16610826576040805162461bcd60e51b81526020600482015260156024820152744e6f20736368656d6520696e2070726f677265737360581b604482015290519081900360640190fd5b506001600160a01b03166000908152600260208181526040808420805460ff191690553384526001918290528320838155908101839055015556fea264697066735822122097187b518d89fe62a39313e2b90799b9cce67b2339f5cfe86b0433076804d50564736f6c63430006080033",
  "linkReferences": {},
  "deployedLinkReferences": {}
}