{
  "_format": "hh-sol-artifact-1",
  "contractName": "Schemes",
  "sourceName": "contracts/schemes/Schemes.sol",
  "abi": [
    {
      "inputs": [],
      "stateMutability": "nonpayable",
      "type": "constructor"
    },
    {
      "inputs": [
        {
          "internalType": "address",
          "name": "_schemeAddress",
          "type": "address"
        }
      ],
      "name": "addScheme",
      "outputs": [],
      "stateMutability": "nonpayable",
      "type": "function"
    },
    {
      "inputs": [
        {
          "internalType": "uint256",
          "name": "_schemeId",
          "type": "uint256"
        }
      ],
      "name": "completeScheme",
      "outputs": [],
      "stateMutability": "nonpayable",
      "type": "function"
    },
    {
      "inputs": [],
      "name": "listSchemes",
      "outputs": [
        {
          "internalType": "bool[]",
          "name": "_schemes",
          "type": "bool[]"
        }
      ],
      "stateMutability": "view",
      "type": "function"
    },
    {
      "inputs": [],
      "name": "nextSchemeId",
      "outputs": [
        {
          "internalType": "uint256",
          "name": "",
          "type": "uint256"
        }
      ],
      "stateMutability": "view",
      "type": "function"
    },
    {
      "inputs": [
        {
          "internalType": "address",
          "name": "",
          "type": "address"
        }
      ],
      "name": "ongoingSchemes",
      "outputs": [
        {
          "internalType": "uint256",
          "name": "scheme",
          "type": "uint256"
        },
        {
          "internalType": "uint256",
          "name": "timeStarted",
          "type": "uint256"
        },
        {
          "internalType": "uint256",
          "name": "timeCompleting",
          "type": "uint256"
        },
        {
          "internalType": "bool",
          "name": "hasActiveScheme",
          "type": "bool"
        }
      ],
      "stateMutability": "view",
      "type": "function"
    },
    {
      "inputs": [
        {
          "internalType": "uint256",
          "name": "",
          "type": "uint256"
        }
      ],
      "name": "schemes",
      "outputs": [
        {
          "internalType": "address",
          "name": "schemeAddress",
          "type": "address"
        },
        {
          "internalType": "bool",
          "name": "isScheme",
          "type": "bool"
        }
      ],
      "stateMutability": "view",
      "type": "function"
    },
    {
      "inputs": [
        {
          "internalType": "uint256",
          "name": "_schemeId",
          "type": "uint256"
        }
      ],
      "name": "startScheme",
      "outputs": [],
      "stateMutability": "nonpayable",
      "type": "function"
    }
  ],
  "bytecode": "0x608060405234801561001057600080fd5b50600160025561073b806100256000396000f3fe608060405234801561001057600080fd5b506004361061007d5760003560e01c80638657fa791161005b5780638657fa79146100e4578063b1f7c7e01461013c578063bb52085e14610156578063c980778a146101965761007d565b806301f66ef414610082578063589de82d146100a15780637b711148146100c7575b600080fd5b61009f6004803603602081101561009857600080fd5b50356101e4565b005b61009f600480360360208110156100b757600080fd5b50356001600160a01b03166103dd565b61009f600480360360208110156100dd57600080fd5b5035610455565b6100ec6105ab565b60408051602080825283518183015283519192839290830191858101910280838360005b83811015610128578181015183820152602001610110565b505050509050019250505060405180910390f35b61014461064c565b60408051918252519081900360200190f35b6101736004803603602081101561016c57600080fd5b5035610652565b604080516001600160a01b03909316835290151560208301528051918290030190f35b6101bc600480360360208110156101ac57600080fd5b50356001600160a01b0316610679565b6040805194855260208501939093528383019190915215156060830152519081900360800190f35b600081815260208190526040902054600160a01b900460ff16610246576040805162461bcd60e51b815260206004820152601560248201527424b73b30b634b21039b1b432b6b29031b437b9b2b760591b604482015290519081900360640190fd5b3360009081526001602052604090206003015460ff16156102ae576040805162461bcd60e51b815260206004820181905260248201527f416e20736368656d6520697320616c726561647920696e2070726f6772657373604482015290519081900360640190fd5b600081815260208190526040808220548151636e85940f60e11b815233600482015291516001600160a01b039091169263dd0b281e926024808201939182900301818387803b15801561030057600080fd5b505af1158015610314573d6000803e3d6000fd5b505033600090815260016020818152604080842060038101805460ff19168517905587815542930192909255858352828152918190205481516303ed69ad60e21b815291516103c795506001600160a01b039091169350630fb5a6b492600480840193919291829003018186803b15801561038e57600080fd5b505afa1580156103a2573d6000803e3d6000fd5b505050506040513d60208110156103b857600080fd5b5051429063ffffffff6106a416565b3360009081526001602052604090206002015550565b6040805180820182526001600160a01b0380841682526001602080840182815260028054600090815292839052959091209351845491511515600160a01b0260ff60a01b19919094166001600160a01b0319909216919091171691909117909155905461044f9163ffffffff6106a416565b60025550565b3360009081526001602052604090206003015460ff166104b4576040805162461bcd60e51b81526020600482015260156024820152744e6f20736368656d6520696e2070726f677265737360581b604482015290519081900360640190fd5b33600090815260016020526040902060020154421015610514576040805162461bcd60e51b8152602060048201526016602482015275536368656d65206973206e6f7420636f6d706c65746560501b604482015290519081900360640190fd5b6000818152602081905260408082205481516349d7814960e11b815233600482015291516001600160a01b03909116926393af0292926024808201939182900301818387803b15801561056657600080fd5b505af115801561057a573d6000803e3d6000fd5b5050336000908152600160208190526040822060038101805460ff1916905582815590810182905560020155505050565b60608060025467ffffffffffffffff811180156105c757600080fd5b506040519080825280602002602001820160405280156105f1578160200160208202803683370190505b50905060005b60025481101561064657600081815260208190526040902054600160a01b900460ff161561063e57600182828151811061062d57fe5b911515602092830291909101909101525b6001016105f7565b50905090565b60025481565b6000602081905290815260409020546001600160a01b03811690600160a01b900460ff1682565b6001602081905260009182526040909120805491810154600282015460039092015490919060ff1684565b6000828201838110156106fe576040805162461bcd60e51b815260206004820152601b60248201527f536166654d6174683a206164646974696f6e206f766572666c6f770000000000604482015290519081900360640190fd5b939250505056fea2646970667358221220aea6f782dc74f9f3bfce339d995d232454f507c2b012d670d75f600fbae869a264736f6c63430006080033",
  "linkReferences": {},
  "deployedLinkReferences": {}
}