{
  "_format": "hh-sol-artifact-1",
  "contractName": "Activities",
  "sourceName": "contracts/activities/Activities.sol",
  "abi": [
    {
      "inputs": [],
      "stateMutability": "nonpayable",
      "type": "constructor"
    },
    {
      "inputs": [
        {
          "internalType": "uint256",
          "name": "",
          "type": "uint256"
        }
      ],
      "name": "activities",
      "outputs": [
        {
          "internalType": "address",
          "name": "activityAddress",
          "type": "address"
        },
        {
          "internalType": "bool",
          "name": "isActivity",
          "type": "bool"
        }
      ],
      "stateMutability": "view",
      "type": "function"
    },
    {
      "inputs": [
        {
          "internalType": "address",
          "name": "activityAddress",
          "type": "address"
        }
      ],
      "name": "addActivity",
      "outputs": [],
      "stateMutability": "nonpayable",
      "type": "function"
    },
    {
      "inputs": [
        {
          "internalType": "uint256",
          "name": "_activityId",
          "type": "uint256"
        }
      ],
      "name": "completeActivity",
      "outputs": [],
      "stateMutability": "nonpayable",
      "type": "function"
    },
    {
      "inputs": [],
      "name": "listActivities",
      "outputs": [
        {
          "internalType": "uint256[]",
          "name": "",
          "type": "uint256[]"
        }
      ],
      "stateMutability": "view",
      "type": "function"
    },
    {
      "inputs": [
        {
          "internalType": "address",
          "name": "",
          "type": "address"
        }
      ],
      "name": "ongoingActivities",
      "outputs": [
        {
          "internalType": "uint256",
          "name": "activity",
          "type": "uint256"
        },
        {
          "internalType": "uint256",
          "name": "timeStarted",
          "type": "uint256"
        },
        {
          "internalType": "uint256",
          "name": "timeCompleting",
          "type": "uint256"
        },
        {
          "internalType": "bool",
          "name": "hasActiveActivity",
          "type": "bool"
        }
      ],
      "stateMutability": "view",
      "type": "function"
    },
    {
      "inputs": [
        {
          "internalType": "uint256",
          "name": "_activityId",
          "type": "uint256"
        }
      ],
      "name": "startActivity",
      "outputs": [],
      "stateMutability": "nonpayable",
      "type": "function"
    }
  ],
  "bytecode": "0x608060405234801561001057600080fd5b5060016002556106d8806100256000396000f3fe608060405234801561001057600080fd5b50600436106100625760003560e01c80630d1657e8146100675780631fdb5307146100a75780633dccc167146100cf578063c6ec93be14610127578063c888de4414610175578063fd0c986014610192575b600080fd5b6100846004803603602081101561007d57600080fd5b50356101af565b604080516001600160a01b03909316835290151560208301528051918290030190f35b6100cd600480360360208110156100bd57600080fd5b50356001600160a01b03166101d6565b005b6100d761024e565b60408051602080825283518183015283519192839290830191858101910280838360005b838110156101135781810151838201526020016100fb565b505050509050019250505060405180910390f35b61014d6004803603602081101561013d57600080fd5b50356001600160a01b03166102a4565b6040805194855260208501939093528383019190915215156060830152519081900360800190f35b6100cd6004803603602081101561018b57600080fd5b50356102cf565b6100cd600480360360208110156101a857600080fd5b5035610434565b6000602081905290815260409020546001600160a01b03811690600160a01b900460ff1682565b6040805180820182526001600160a01b0380841682526001602080840182815260028054600090815292839052959091209351845491511515600160a01b0260ff60a01b19919094166001600160a01b031990921691909117169190911790915590546102489163ffffffff61061f16565b60025550565b60608060005b60025481101561029e57600081815260208190526040902054600160a01b900460ff1615610296578082828151811061028957fe5b6020026020010181815250505b600101610254565b50905090565b6001602081905260009182526040909120805491810154600282015460039092015490919060ff1684565b3360009081526001602052604090206003015460ff16610336576040805162461bcd60e51b815260206004820152601760248201527f4e6f20616374697669747920696e2070726f6772657373000000000000000000604482015290519081900360640190fd5b3360009081526001602052604090206002015442101561039d576040805162461bcd60e51b815260206004820152601860248201527f4163746976697479206973206e6f7420636f6d706c6574650000000000000000604482015290519081900360640190fd5b6000818152602081905260408082205481516349d7814960e11b815233600482015291516001600160a01b03909116926393af0292926024808201939182900301818387803b1580156103ef57600080fd5b505af1158015610403573d6000803e3d6000fd5b5050336000908152600160208190526040822060038101805460ff1916905582815590810182905560020155505050565b600081815260208190526040902054600160a01b900460ff1661049e576040805162461bcd60e51b815260206004820152601760248201527f496e76616c69642061637469766974792063686f73656e000000000000000000604482015290519081900360640190fd5b3360009081526001602052604090206003015460ff16156104f05760405162461bcd60e51b81526004018080602001828103825260228152602001806106816022913960400191505060405180910390fd5b600081815260208190526040808220548151636e85940f60e11b815233600482015291516001600160a01b039091169263dd0b281e926024808201939182900301818387803b15801561054257600080fd5b505af1158015610556573d6000803e3d6000fd5b505033600090815260016020818152604080842060038101805460ff19168517905587815542930192909255858352828152918190205481516303ed69ad60e21b8152915161060995506001600160a01b039091169350630fb5a6b492600480840193919291829003018186803b1580156105d057600080fd5b505afa1580156105e4573d6000803e3d6000fd5b505050506040513d60208110156105fa57600080fd5b5051429063ffffffff61061f16565b3360009081526001602052604090206002015550565b600082820183811015610679576040805162461bcd60e51b815260206004820152601b60248201527f536166654d6174683a206164646974696f6e206f766572666c6f770000000000604482015290519081900360640190fd5b939250505056fe416e20616374697669747920697320616c726561647920696e2070726f6772657373a264697066735822122022979ddc3f01a6b4d707135a7a3b7d9845eca5367df332f02179186425ce6d7c64736f6c63430006080033",
  "linkReferences": {},
  "deployedLinkReferences": {}
}