{
  "_format": "hh-sol-artifact-1",
  "contractName": "PlayerStats",
  "sourceName": "contracts/player/PlayerStats.sol",
  "abi": [
    {
      "anonymous": false,
      "inputs": [
        {
          "indexed": true,
          "internalType": "bytes32",
          "name": "role",
          "type": "bytes32"
        },
        {
          "indexed": true,
          "internalType": "bytes32",
          "name": "previousAdminRole",
          "type": "bytes32"
        },
        {
          "indexed": true,
          "internalType": "bytes32",
          "name": "newAdminRole",
          "type": "bytes32"
        }
      ],
      "name": "RoleAdminChanged",
      "type": "event"
    },
    {
      "anonymous": false,
      "inputs": [
        {
          "indexed": true,
          "internalType": "bytes32",
          "name": "role",
          "type": "bytes32"
        },
        {
          "indexed": true,
          "internalType": "address",
          "name": "account",
          "type": "address"
        },
        {
          "indexed": true,
          "internalType": "address",
          "name": "sender",
          "type": "address"
        }
      ],
      "name": "RoleGranted",
      "type": "event"
    },
    {
      "anonymous": false,
      "inputs": [
        {
          "indexed": true,
          "internalType": "bytes32",
          "name": "role",
          "type": "bytes32"
        },
        {
          "indexed": true,
          "internalType": "address",
          "name": "account",
          "type": "address"
        },
        {
          "indexed": true,
          "internalType": "address",
          "name": "sender",
          "type": "address"
        }
      ],
      "name": "RoleRevoked",
      "type": "event"
    },
    {
      "inputs": [],
      "name": "DEFAULT_ADMIN_ROLE",
      "outputs": [
        {
          "internalType": "bytes32",
          "name": "",
          "type": "bytes32"
        }
      ],
      "stateMutability": "view",
      "type": "function"
    },
    {
      "inputs": [
        {
          "internalType": "address",
          "name": "_who",
          "type": "address"
        }
      ],
      "name": "createBasePlayer",
      "outputs": [],
      "stateMutability": "nonpayable",
      "type": "function"
    },
    {
      "inputs": [
        {
          "internalType": "address",
          "name": "_who",
          "type": "address"
        }
      ],
      "name": "getPlayerBattleStats",
      "outputs": [
        {
          "internalType": "uint256",
          "name": "baseStrength",
          "type": "uint256"
        },
        {
          "internalType": "uint256",
          "name": "baseDexterity",
          "type": "uint256"
        },
        {
          "internalType": "uint256",
          "name": "baseDefence",
          "type": "uint256"
        },
        {
          "internalType": "uint256",
          "name": "baseConstitution",
          "type": "uint256"
        }
      ],
      "stateMutability": "view",
      "type": "function"
    },
    {
      "inputs": [
        {
          "internalType": "address",
          "name": "_who",
          "type": "address"
        }
      ],
      "name": "getPlayerStats",
      "outputs": [
        {
          "internalType": "uint256",
          "name": "level",
          "type": "uint256"
        },
        {
          "internalType": "uint256",
          "name": "experience",
          "type": "uint256"
        },
        {
          "internalType": "uint256",
          "name": "baseHealth",
          "type": "uint256"
        },
        {
          "internalType": "uint256",
          "name": "currentHealth",
          "type": "uint256"
        },
        {
          "internalType": "bool",
          "name": "isPlayer",
          "type": "bool"
        }
      ],
      "stateMutability": "view",
      "type": "function"
    },
    {
      "inputs": [
        {
          "internalType": "bytes32",
          "name": "role",
          "type": "bytes32"
        }
      ],
      "name": "getRoleAdmin",
      "outputs": [
        {
          "internalType": "bytes32",
          "name": "",
          "type": "bytes32"
        }
      ],
      "stateMutability": "view",
      "type": "function"
    },
    {
      "inputs": [
        {
          "internalType": "bytes32",
          "name": "role",
          "type": "bytes32"
        },
        {
          "internalType": "uint256",
          "name": "index",
          "type": "uint256"
        }
      ],
      "name": "getRoleMember",
      "outputs": [
        {
          "internalType": "address",
          "name": "",
          "type": "address"
        }
      ],
      "stateMutability": "view",
      "type": "function"
    },
    {
      "inputs": [
        {
          "internalType": "bytes32",
          "name": "role",
          "type": "bytes32"
        }
      ],
      "name": "getRoleMemberCount",
      "outputs": [
        {
          "internalType": "uint256",
          "name": "",
          "type": "uint256"
        }
      ],
      "stateMutability": "view",
      "type": "function"
    },
    {
      "inputs": [
        {
          "internalType": "bytes32",
          "name": "role",
          "type": "bytes32"
        },
        {
          "internalType": "address",
          "name": "account",
          "type": "address"
        }
      ],
      "name": "grantRole",
      "outputs": [],
      "stateMutability": "nonpayable",
      "type": "function"
    },
    {
      "inputs": [
        {
          "internalType": "bytes32",
          "name": "role",
          "type": "bytes32"
        },
        {
          "internalType": "address",
          "name": "account",
          "type": "address"
        }
      ],
      "name": "hasRole",
      "outputs": [
        {
          "internalType": "bool",
          "name": "",
          "type": "bool"
        }
      ],
      "stateMutability": "view",
      "type": "function"
    },
    {
      "inputs": [
        {
          "internalType": "bytes32",
          "name": "role",
          "type": "bytes32"
        },
        {
          "internalType": "address",
          "name": "account",
          "type": "address"
        }
      ],
      "name": "renounceRole",
      "outputs": [],
      "stateMutability": "nonpayable",
      "type": "function"
    },
    {
      "inputs": [
        {
          "internalType": "bytes32",
          "name": "role",
          "type": "bytes32"
        },
        {
          "internalType": "address",
          "name": "account",
          "type": "address"
        }
      ],
      "name": "revokeRole",
      "outputs": [],
      "stateMutability": "nonpayable",
      "type": "function"
    }
  ],
  "bytecode": "0x608060405234801561001057600080fd5b50610b6e806100206000396000f3fe608060405234801561001057600080fd5b50600436106100a95760003560e01c806391d148541161007157806391d14854146101c9578063a217fddf14610209578063ab53bf0114610211578063ca15c8731461025d578063d547741f1461027a578063e450458b146102a6576100a9565b8063248a9ca3146100ae5780632f2ff15d146100dd57806336568abe1461010b5780634fd66eae146101375780639010d07c1461018a575b600080fd5b6100cb600480360360208110156100c457600080fd5b50356102cc565b60408051918252519081900360200190f35b610109600480360360408110156100f357600080fd5b50803590602001356001600160a01b03166102e1565b005b6101096004803603604081101561012157600080fd5b50803590602001356001600160a01b031661034d565b61015d6004803603602081101561014d57600080fd5b50356001600160a01b03166103ae565b60408051958652602086019490945284840192909252606084015215156080830152519081900360a00190f35b6101ad600480360360408110156101a057600080fd5b508035906020013561049c565b604080516001600160a01b039092168252519081900360200190f35b6101f5600480360360408110156101df57600080fd5b50803590602001356001600160a01b03166104c3565b604080519115158252519081900360200190f35b6100cb6104e1565b6102376004803603602081101561022757600080fd5b50356001600160a01b03166104e6565b604080519485526020850193909352838301919091526060830152519081900360800190f35b6100cb6004803603602081101561027357600080fd5b5035610552565b6101096004803603604081101561029057600080fd5b50803590602001356001600160a01b0316610569565b610109600480360360208110156102bc57600080fd5b50356001600160a01b03166105c2565b60009081526020819052604090206002015490565b600082815260208190526040902060020154610304906102ff61074e565b6104c3565b61033f5760405162461bcd60e51b815260040180806020018281038252602f815260200180610aab602f913960400191505060405180910390fd5b6103498282610752565b5050565b61035561074e565b6001600160a01b0316816001600160a01b0316146103a45760405162461bcd60e51b815260040180806020018281038252602f815260200180610b0a602f913960400191505060405180910390fd5b61034982826107c1565b60008060008060006103be610a16565b505050506001600160a01b0392909216600090815260016020818152604092839020835160e0810185528154815292810154838301908152600282015484860190815260038301546060808701918252600485015460ff161515608080890191825289518082018b52600588015481526006880154818a01526007880154818c015260088801548185015260a08a015289519081018a5260098701548152600a87015497810197909752600b86015498870198909852600c909401549385019390935260c08501939093529251925191519051935192969195509350565b60008281526020819052604081206104ba908363ffffffff61083016565b90505b92915050565b60008281526020819052604081206104ba908363ffffffff61083c16565b600081565b6000806000806104f4610a60565b505050506001600160a01b039190911660009081526001602090815260409182902082516080810184526005820154808252600683015493820184905260078301549482018590526008909201546060909101819052909491935090565b60008181526020819052604081206104bd90610851565b600082815260208190526040902060020154610587906102ff61074e565b6103a45760405162461bcd60e51b8152600401808060200182810382526030815260200180610ada6030913960400191505060405180910390fd5b6001600160a01b038116600090815260016020526040902060040154819060ff161561062d576040805162461bcd60e51b8152602060048201526015602482015274506c6179657220616c72656164792065786973747360581b604482015290519081900360640190fd5b610635610a60565b604051806080016040528060148152602001601481526020016014815260200160148152509050610664610a60565b506040805160808082018352600080835260208084018290528385018290526060808501839052855160e08101875260018082528184018581526064838a0181815284860191825297840183815260a085019b8c5260c08501998a526001600160a01b039d909d168752828652958990209251835551908201559351600285015591516003840155965160048301805460ff1916911515919091179055935180516005830155808701516006830155808401516007830155840151600882015590518051600983015594850151600a82015590840151600b820155920151600c9092019190915550565b3390565b6000828152602081905260409020610770908263ffffffff61085c16565b156103495761077d61074e565b6001600160a01b0316816001600160a01b0316837f2f8788117e7eff1d82e926ec794901d17c78024a50270940304540a733656f0d60405160405180910390a45050565b60008281526020819052604090206107df908263ffffffff61087116565b15610349576107ec61074e565b6001600160a01b0316816001600160a01b0316837ff6391f5c32d9c69d2a47ea670b442974b53935d1edc7fd64eb21e047a839171b60405160405180910390a45050565b60006104ba8383610886565b60006104ba836001600160a01b0384166108ea565b60006104bd82610902565b60006104ba836001600160a01b038416610906565b60006104ba836001600160a01b038416610950565b815460009082106108c85760405162461bcd60e51b8152600401808060200182810382526022815260200180610a896022913960400191505060405180910390fd5b8260000182815481106108d757fe5b9060005260206000200154905092915050565b60009081526001919091016020526040902054151590565b5490565b600061091283836108ea565b610948575081546001818101845560008481526020808220909301849055845484825282860190935260409020919091556104bd565b5060006104bd565b60008181526001830160205260408120548015610a0c578354600019808301919081019060009087908390811061098357fe5b90600052602060002001549050808760000184815481106109a057fe5b6000918252602080832090910192909255828152600189810190925260409020908401905586548790806109d057fe5b600190038181906000526020600020016000905590558660010160008781526020019081526020016000206000905560019450505050506104bd565b60009150506104bd565b6040518060e0016040528060008152602001600081526020016000815260200160008152602001600015158152602001610a4e610a60565b8152602001610a5b610a60565b905290565b604051806080016040528060008152602001600081526020016000815260200160008152509056fe456e756d657261626c655365743a20696e646578206f7574206f6620626f756e6473416363657373436f6e74726f6c3a2073656e646572206d75737420626520616e2061646d696e20746f206772616e74416363657373436f6e74726f6c3a2073656e646572206d75737420626520616e2061646d696e20746f207265766f6b65416363657373436f6e74726f6c3a2063616e206f6e6c792072656e6f756e636520726f6c657320666f722073656c66a26469706673582212209a62eed4dccb5635d0ca609242ab5b06c5da0aab7812ead83aac0660e46a20c664736f6c63430006080033",
  "linkReferences": {},
  "deployedLinkReferences": {}
}