{
  "_format": "hh-sol-artifact-1",
  "contractName": "Player",
  "sourceName": "contracts/player/Player.sol",
  "abi": [
    {
      "inputs": [],
      "stateMutability": "nonpayable",
      "type": "constructor"
    },
    {
      "anonymous": false,
      "inputs": [
        {
          "indexed": true,
          "internalType": "bytes32",
          "name": "role",
          "type": "bytes32"
        },
        {
          "indexed": true,
          "internalType": "bytes32",
          "name": "previousAdminRole",
          "type": "bytes32"
        },
        {
          "indexed": true,
          "internalType": "bytes32",
          "name": "newAdminRole",
          "type": "bytes32"
        }
      ],
      "name": "RoleAdminChanged",
      "type": "event"
    },
    {
      "anonymous": false,
      "inputs": [
        {
          "indexed": true,
          "internalType": "bytes32",
          "name": "role",
          "type": "bytes32"
        },
        {
          "indexed": true,
          "internalType": "address",
          "name": "account",
          "type": "address"
        },
        {
          "indexed": true,
          "internalType": "address",
          "name": "sender",
          "type": "address"
        }
      ],
      "name": "RoleGranted",
      "type": "event"
    },
    {
      "anonymous": false,
      "inputs": [
        {
          "indexed": true,
          "internalType": "bytes32",
          "name": "role",
          "type": "bytes32"
        },
        {
          "indexed": true,
          "internalType": "address",
          "name": "account",
          "type": "address"
        },
        {
          "indexed": true,
          "internalType": "address",
          "name": "sender",
          "type": "address"
        }
      ],
      "name": "RoleRevoked",
      "type": "event"
    },
    {
      "inputs": [],
      "name": "ADMIN",
      "outputs": [
        {
          "internalType": "bytes32",
          "name": "",
          "type": "bytes32"
        }
      ],
      "stateMutability": "view",
      "type": "function"
    },
    {
      "inputs": [],
      "name": "CASH_SPENDER",
      "outputs": [
        {
          "internalType": "bytes32",
          "name": "",
          "type": "bytes32"
        }
      ],
      "stateMutability": "view",
      "type": "function"
    },
    {
      "inputs": [],
      "name": "DEFAULT_ADMIN_ROLE",
      "outputs": [
        {
          "internalType": "bytes32",
          "name": "",
          "type": "bytes32"
        }
      ],
      "stateMutability": "view",
      "type": "function"
    },
    {
      "inputs": [],
      "name": "create",
      "outputs": [],
      "stateMutability": "nonpayable",
      "type": "function"
    },
    {
      "inputs": [
        {
          "internalType": "uint256",
          "name": "_amount",
          "type": "uint256"
        }
      ],
      "name": "depositCash",
      "outputs": [],
      "stateMutability": "nonpayable",
      "type": "function"
    },
    {
      "inputs": [
        {
          "internalType": "address",
          "name": "_who",
          "type": "address"
        }
      ],
      "name": "getBalance",
      "outputs": [
        {
          "internalType": "uint256",
          "name": "",
          "type": "uint256"
        }
      ],
      "stateMutability": "view",
      "type": "function"
    },
    {
      "inputs": [
        {
          "internalType": "bytes32",
          "name": "role",
          "type": "bytes32"
        }
      ],
      "name": "getRoleAdmin",
      "outputs": [
        {
          "internalType": "bytes32",
          "name": "",
          "type": "bytes32"
        }
      ],
      "stateMutability": "view",
      "type": "function"
    },
    {
      "inputs": [
        {
          "internalType": "bytes32",
          "name": "role",
          "type": "bytes32"
        },
        {
          "internalType": "uint256",
          "name": "index",
          "type": "uint256"
        }
      ],
      "name": "getRoleMember",
      "outputs": [
        {
          "internalType": "address",
          "name": "",
          "type": "address"
        }
      ],
      "stateMutability": "view",
      "type": "function"
    },
    {
      "inputs": [
        {
          "internalType": "bytes32",
          "name": "role",
          "type": "bytes32"
        }
      ],
      "name": "getRoleMemberCount",
      "outputs": [
        {
          "internalType": "uint256",
          "name": "",
          "type": "uint256"
        }
      ],
      "stateMutability": "view",
      "type": "function"
    },
    {
      "inputs": [
        {
          "internalType": "bytes32",
          "name": "role",
          "type": "bytes32"
        },
        {
          "internalType": "address",
          "name": "account",
          "type": "address"
        }
      ],
      "name": "grantRole",
      "outputs": [],
      "stateMutability": "nonpayable",
      "type": "function"
    },
    {
      "inputs": [
        {
          "internalType": "bytes32",
          "name": "role",
          "type": "bytes32"
        },
        {
          "internalType": "address",
          "name": "account",
          "type": "address"
        }
      ],
      "name": "hasRole",
      "outputs": [
        {
          "internalType": "bool",
          "name": "",
          "type": "bool"
        }
      ],
      "stateMutability": "view",
      "type": "function"
    },
    {
      "inputs": [
        {
          "internalType": "address",
          "name": "_who",
          "type": "address"
        }
      ],
      "name": "isPlayer",
      "outputs": [
        {
          "internalType": "bool",
          "name": "",
          "type": "bool"
        }
      ],
      "stateMutability": "view",
      "type": "function"
    },
    {
      "inputs": [
        {
          "internalType": "bytes32",
          "name": "role",
          "type": "bytes32"
        },
        {
          "internalType": "address",
          "name": "account",
          "type": "address"
        }
      ],
      "name": "renounceRole",
      "outputs": [],
      "stateMutability": "nonpayable",
      "type": "function"
    },
    {
      "inputs": [
        {
          "internalType": "bytes32",
          "name": "role",
          "type": "bytes32"
        },
        {
          "internalType": "address",
          "name": "account",
          "type": "address"
        }
      ],
      "name": "revokeRole",
      "outputs": [],
      "stateMutability": "nonpayable",
      "type": "function"
    },
    {
      "inputs": [
        {
          "internalType": "address",
          "name": "_cashAddress",
          "type": "address"
        }
      ],
      "name": "setCashAddress",
      "outputs": [],
      "stateMutability": "nonpayable",
      "type": "function"
    },
    {
      "inputs": [
        {
          "internalType": "address",
          "name": "_who",
          "type": "address"
        }
      ],
      "name": "setCashSpender",
      "outputs": [],
      "stateMutability": "nonpayable",
      "type": "function"
    },
    {
      "inputs": [
        {
          "internalType": "address",
          "name": "_who",
          "type": "address"
        },
        {
          "internalType": "uint256",
          "name": "_amount",
          "type": "uint256"
        }
      ],
      "name": "spendCash",
      "outputs": [],
      "stateMutability": "nonpayable",
      "type": "function"
    }
  ],
  "bytecode": "0x60806040523480156200001157600080fd5b50604080516420a226a4a760d91b815290519081900360050190206200004190336001600160e01b036200009316565b604080516b21a0a9a42fa9a822a72222a960a11b8152815190819003600c0181206420a226a4a760d91b825291519081900360050190206200008d91906001600160e01b03620000ac16565b6200021d565b620000a882826001600160e01b03620000fe16565b5050565b600082815260208190526040808220600201549051839285917fbd79b86ffe0ab8e8776151514217cd7cacd52c909f66475c3af44e129f0b00ff9190a460009182526020829052604090912060020155565b6000828152602081815260409091206200012391839062000a0562000180821b17901c565b15620000a8576200013c6001600160e01b03620001a916565b6001600160a01b0316816001600160a01b0316837f2f8788117e7eff1d82e926ec794901d17c78024a50270940304540a733656f0d60405160405180910390a45050565b6000620001a0836001600160a01b0384166001600160e01b03620001ad16565b90505b92915050565b3390565b6000620001c483836001600160e01b036200020516565b620001fc57508154600181810184556000848152602080822090930184905584548482528286019093526040902091909155620001a3565b506000620001a3565b60009081526001919091016020526040902054151590565b610ee6806200022d6000396000f3fe608060405234801561001057600080fd5b506004361061010b5760003560e01c80639010d07c116100a2578063ca15c87311610071578063ca15c873146102bf578063cabdae7b146102dc578063d547741f14610308578063efc81a8c14610334578063f8b2cb4f1461033c5761010b565b80639010d07c1461022657806391d1485414610265578063a217fddf14610291578063bdf752bb146102995761010b565b80632f2ff15d116100de5780632f2ff15d1461018957806336568abe146101b75780633743089a146101e35780633fdcc03c146102095761010b565b806309c95e101461011057806311b1b2851461014a578063248a9ca3146101645780632a0acc6a14610181575b600080fd5b6101366004803603602081101561012657600080fd5b50356001600160a01b0316610362565b604080519115158252519081900360200190f35b610152610380565b60408051918252519081900360200190f35b6101526004803603602081101561017a57600080fd5b50356103a4565b6101526103b9565b6101b56004803603604081101561019f57600080fd5b50803590602001356001600160a01b03166103d6565b005b6101b5600480360360408110156101cd57600080fd5b50803590602001356001600160a01b0316610442565b6101b5600480360360208110156101f957600080fd5b50356001600160a01b03166104a3565b6101b56004803603602081101561021f57600080fd5b5035610532565b6102496004803603604081101561023c57600080fd5b50803590602001356106fe565b604080516001600160a01b039092168252519081900360200190f35b6101366004803603604081101561027b57600080fd5b50803590602001356001600160a01b0316610725565b610152610743565b6101b5600480360360208110156102af57600080fd5b50356001600160a01b0316610748565b610152600480360360208110156102d557600080fd5b50356107cb565b6101b5600480360360408110156102f257600080fd5b506001600160a01b0381351690602001356107e2565b6101b56004803603604081101561031e57600080fd5b50803590602001356001600160a01b0316610916565b6101b561096f565b6101526004803603602081101561035257600080fd5b50356001600160a01b03166109ea565b6001600160a01b031660009081526001602052604090205460ff1690565b604080516b21a0a9a42fa9a822a72222a960a11b8152905190819003600c01902081565b60009081526020819052604090206002015490565b604080516420a226a4a760d91b8152905190819003600501902081565b6000828152602081905260409020600201546103f9906103f4610a1a565b610725565b6104345760405162461bcd60e51b815260040180806020018281038252602f815260200180610e23602f913960400191505060405180910390fd5b61043e8282610a1e565b5050565b61044a610a1a565b6001600160a01b0316816001600160a01b0316146104995760405162461bcd60e51b815260040180806020018281038252602f815260200180610e82602f913960400191505060405180910390fd5b61043e8282610a8d565b604080516420a226a4a760d91b815290519081900360050190206104c79033610725565b610504576040805162461bcd60e51b81526020600482015260096024820152682737ba1020b236b4b760b91b604482015290519081900360640190fd5b604080516b21a0a9a42fa9a822a72222a960a11b8152905190819003600c01902061052f90826103d6565b50565b3361053c81610362565b610586576040805162461bcd60e51b81526020600482015260166024820152751058d8dbdd5b9d08191bd95cc81b9bdd08195e1a5cdd60521b604482015290519081900360640190fd5b600354604080516370a0823160e01b8152336004820152905184926001600160a01b0316916370a08231916024808301926020929190829003018186803b1580156105d057600080fd5b505afa1580156105e4573d6000803e3d6000fd5b505050506040513d60208110156105fa57600080fd5b50511015610644576040805162461bcd60e51b8152602060048201526012602482015271496e73756666696369656e742066756e647360701b604482015290519081900360640190fd5b600354604080516323b872dd60e01b81523360048201523060248201526044810185905290516001600160a01b03909216916323b872dd916064808201926020929091908290030181600087803b15801561069e57600080fd5b505af11580156106b2573d6000803e3d6000fd5b505050506040513d60208110156106c857600080fd5b5050336000908152600260205260409020546106ea908363ffffffff610afc16565b336000908152600260205260409020555050565b600082815260208190526040812061071c908363ffffffff610b5616565b90505b92915050565b600082815260208190526040812061071c908363ffffffff610b6216565b600081565b604080516420a226a4a760d91b8152905190819003600501902061076c9033610725565b6107a9576040805162461bcd60e51b81526020600482015260096024820152682737ba1020b236b4b760b91b604482015290519081900360640190fd5b600380546001600160a01b0319166001600160a01b0392909216919091179055565b600081815260208190526040812061071f90610b77565b604080516b21a0a9a42fa9a822a72222a960a11b8152905190819003600c01902061080d9033610725565b610851576040805162461bcd60e51b815260206004820152601060248201526f2737ba1021b0b9b41029b832b73232b960811b604482015290519081900360640190fd5b6001600160a01b03821660009081526002602052604090205481111561087657600080fd5b6001600160a01b03821660009081526002602052604090205461089f908263ffffffff610b8216565b6001600160a01b03808416600090815260026020526040808220939093556003548351630852cd8d60e31b81526004810186905293519216926342966c68926024808301939282900301818387803b1580156108fa57600080fd5b505af115801561090e573d6000803e3d6000fd5b505050505050565b600082815260208190526040902060020154610934906103f4610a1a565b6104995760405162461bcd60e51b8152600401808060200182810382526030815260200180610e526030913960400191505060405180910390fd5b61097833610362565b156109c3576040805162461bcd60e51b81526020600482015260166024820152754163636f756e7420616c72656164792065786973747360501b604482015290519081900360640190fd5b336000908152600160208181526040808420805460ff191690931790925560029052812055565b6001600160a01b031660009081526002602052604090205490565b600061071c836001600160a01b038416610bc4565b3390565b6000828152602081905260409020610a3c908263ffffffff610a0516565b1561043e57610a49610a1a565b6001600160a01b0316816001600160a01b0316837f2f8788117e7eff1d82e926ec794901d17c78024a50270940304540a733656f0d60405160405180910390a45050565b6000828152602081905260409020610aab908263ffffffff610c0e16565b1561043e57610ab8610a1a565b6001600160a01b0316816001600160a01b0316837ff6391f5c32d9c69d2a47ea670b442974b53935d1edc7fd64eb21e047a839171b60405160405180910390a45050565b60008282018381101561071c576040805162461bcd60e51b815260206004820152601b60248201527f536166654d6174683a206164646974696f6e206f766572666c6f770000000000604482015290519081900360640190fd5b600061071c8383610c23565b600061071c836001600160a01b038416610c87565b600061071f82610c9f565b600061071c83836040518060400160405280601e81526020017f536166654d6174683a207375627472616374696f6e206f766572666c6f770000815250610ca3565b6000610bd08383610c87565b610c065750815460018181018455600084815260208082209093018490558454848252828601909352604090209190915561071f565b50600061071f565b600061071c836001600160a01b038416610d3a565b81546000908210610c655760405162461bcd60e51b8152600401808060200182810382526022815260200180610e016022913960400191505060405180910390fd5b826000018281548110610c7457fe5b9060005260206000200154905092915050565b60009081526001919091016020526040902054151590565b5490565b60008184841115610d325760405162461bcd60e51b81526004018080602001828103825283818151815260200191508051906020019080838360005b83811015610cf7578181015183820152602001610cdf565b50505050905090810190601f168015610d245780820380516001836020036101000a031916815260200191505b509250505060405180910390fd5b505050900390565b60008181526001830160205260408120548015610df65783546000198083019190810190600090879083908110610d6d57fe5b9060005260206000200154905080876000018481548110610d8a57fe5b600091825260208083209091019290925582815260018981019092526040902090840190558654879080610dba57fe5b6001900381819060005260206000200160009055905586600101600087815260200190815260200160002060009055600194505050505061071f565b600091505061071f56fe456e756d657261626c655365743a20696e646578206f7574206f6620626f756e6473416363657373436f6e74726f6c3a2073656e646572206d75737420626520616e2061646d696e20746f206772616e74416363657373436f6e74726f6c3a2073656e646572206d75737420626520616e2061646d696e20746f207265766f6b65416363657373436f6e74726f6c3a2063616e206f6e6c792072656e6f756e636520726f6c657320666f722073656c66a26469706673582212201a762a9defc7603f4de8eb4cb4a4bc4f23995fb0cb0fe2e7f45d40a0fa39e63664736f6c63430006080033",
  "linkReferences": {},
  "deployedLinkReferences": {}
}