{
  "_format": "hh-sol-artifact-1",
  "contractName": "Treasury",
  "sourceName": "contracts/Treasury.sol",
  "abi": [
    {
      "inputs": [],
      "stateMutability": "nonpayable",
      "type": "constructor"
    },
    {
      "anonymous": false,
      "inputs": [
        {
          "indexed": true,
          "internalType": "bytes32",
          "name": "role",
          "type": "bytes32"
        },
        {
          "indexed": true,
          "internalType": "bytes32",
          "name": "previousAdminRole",
          "type": "bytes32"
        },
        {
          "indexed": true,
          "internalType": "bytes32",
          "name": "newAdminRole",
          "type": "bytes32"
        }
      ],
      "name": "RoleAdminChanged",
      "type": "event"
    },
    {
      "anonymous": false,
      "inputs": [
        {
          "indexed": true,
          "internalType": "bytes32",
          "name": "role",
          "type": "bytes32"
        },
        {
          "indexed": true,
          "internalType": "address",
          "name": "account",
          "type": "address"
        },
        {
          "indexed": true,
          "internalType": "address",
          "name": "sender",
          "type": "address"
        }
      ],
      "name": "RoleGranted",
      "type": "event"
    },
    {
      "anonymous": false,
      "inputs": [
        {
          "indexed": true,
          "internalType": "bytes32",
          "name": "role",
          "type": "bytes32"
        },
        {
          "indexed": true,
          "internalType": "address",
          "name": "account",
          "type": "address"
        },
        {
          "indexed": true,
          "internalType": "address",
          "name": "sender",
          "type": "address"
        }
      ],
      "name": "RoleRevoked",
      "type": "event"
    },
    {
      "inputs": [],
      "name": "DEFAULT_ADMIN_ROLE",
      "outputs": [
        {
          "internalType": "bytes32",
          "name": "",
          "type": "bytes32"
        }
      ],
      "stateMutability": "view",
      "type": "function"
    },
    {
      "inputs": [],
      "name": "TREASURY_ADMIN",
      "outputs": [
        {
          "internalType": "bytes32",
          "name": "",
          "type": "bytes32"
        }
      ],
      "stateMutability": "view",
      "type": "function"
    },
    {
      "inputs": [],
      "name": "TREASURY_OPERATOR",
      "outputs": [
        {
          "internalType": "bytes32",
          "name": "",
          "type": "bytes32"
        }
      ],
      "stateMutability": "view",
      "type": "function"
    },
    {
      "inputs": [
        {
          "internalType": "address",
          "name": "_token",
          "type": "address"
        },
        {
          "internalType": "address",
          "name": "_who",
          "type": "address"
        },
        {
          "internalType": "uint256",
          "name": "_amount",
          "type": "uint256"
        }
      ],
      "name": "allocateFunds",
      "outputs": [],
      "stateMutability": "nonpayable",
      "type": "function"
    },
    {
      "inputs": [
        {
          "internalType": "address",
          "name": "_token",
          "type": "address"
        },
        {
          "internalType": "uint256",
          "name": "_amount",
          "type": "uint256"
        }
      ],
      "name": "deposit",
      "outputs": [],
      "stateMutability": "nonpayable",
      "type": "function"
    },
    {
      "inputs": [
        {
          "internalType": "address",
          "name": "_tokenSell",
          "type": "address"
        },
        {
          "internalType": "address",
          "name": "_tokenBuy",
          "type": "address"
        },
        {
          "internalType": "uint256",
          "name": "_amountToSell",
          "type": "uint256"
        },
        {
          "internalType": "uint256",
          "name": "_minAmountToBuy",
          "type": "uint256"
        },
        {
          "internalType": "uint256[]",
          "name": "_distribution",
          "type": "uint256[]"
        },
        {
          "internalType": "address",
          "name": "_sender",
          "type": "address"
        },
        {
          "internalType": "address",
          "name": "_recipient",
          "type": "address"
        }
      ],
      "name": "exchangeFunds",
      "outputs": [],
      "stateMutability": "nonpayable",
      "type": "function"
    },
    {
      "inputs": [
        {
          "internalType": "bytes32",
          "name": "role",
          "type": "bytes32"
        }
      ],
      "name": "getRoleAdmin",
      "outputs": [
        {
          "internalType": "bytes32",
          "name": "",
          "type": "bytes32"
        }
      ],
      "stateMutability": "view",
      "type": "function"
    },
    {
      "inputs": [
        {
          "internalType": "bytes32",
          "name": "role",
          "type": "bytes32"
        },
        {
          "internalType": "uint256",
          "name": "index",
          "type": "uint256"
        }
      ],
      "name": "getRoleMember",
      "outputs": [
        {
          "internalType": "address",
          "name": "",
          "type": "address"
        }
      ],
      "stateMutability": "view",
      "type": "function"
    },
    {
      "inputs": [
        {
          "internalType": "bytes32",
          "name": "role",
          "type": "bytes32"
        }
      ],
      "name": "getRoleMemberCount",
      "outputs": [
        {
          "internalType": "uint256",
          "name": "",
          "type": "uint256"
        }
      ],
      "stateMutability": "view",
      "type": "function"
    },
    {
      "inputs": [
        {
          "internalType": "bytes32",
          "name": "role",
          "type": "bytes32"
        },
        {
          "internalType": "address",
          "name": "account",
          "type": "address"
        }
      ],
      "name": "grantRole",
      "outputs": [],
      "stateMutability": "nonpayable",
      "type": "function"
    },
    {
      "inputs": [
        {
          "internalType": "bytes32",
          "name": "role",
          "type": "bytes32"
        },
        {
          "internalType": "address",
          "name": "account",
          "type": "address"
        }
      ],
      "name": "hasRole",
      "outputs": [
        {
          "internalType": "bool",
          "name": "",
          "type": "bool"
        }
      ],
      "stateMutability": "view",
      "type": "function"
    },
    {
      "inputs": [
        {
          "internalType": "bytes32",
          "name": "role",
          "type": "bytes32"
        },
        {
          "internalType": "address",
          "name": "account",
          "type": "address"
        }
      ],
      "name": "renounceRole",
      "outputs": [],
      "stateMutability": "nonpayable",
      "type": "function"
    },
    {
      "inputs": [
        {
          "internalType": "bytes32",
          "name": "role",
          "type": "bytes32"
        },
        {
          "internalType": "address",
          "name": "account",
          "type": "address"
        }
      ],
      "name": "revokeRole",
      "outputs": [],
      "stateMutability": "nonpayable",
      "type": "function"
    },
    {
      "inputs": [
        {
          "internalType": "address",
          "name": "_exchangeAdaptor",
          "type": "address"
        }
      ],
      "name": "setExchangeAdaptor",
      "outputs": [],
      "stateMutability": "nonpayable",
      "type": "function"
    },
    {
      "inputs": [
        {
          "internalType": "address",
          "name": "_who",
          "type": "address"
        }
      ],
      "name": "setTreasuryOperator",
      "outputs": [],
      "stateMutability": "nonpayable",
      "type": "function"
    },
    {
      "inputs": [
        {
          "internalType": "address",
          "name": "_token",
          "type": "address"
        },
        {
          "internalType": "address",
          "name": "_sender",
          "type": "address"
        },
        {
          "internalType": "address",
          "name": "_recipient",
          "type": "address"
        },
        {
          "internalType": "uint256",
          "name": "_amount",
          "type": "uint256"
        }
      ],
      "name": "transferFunds",
      "outputs": [],
      "stateMutability": "nonpayable",
      "type": "function"
    },
    {
      "inputs": [
        {
          "internalType": "address",
          "name": "_token",
          "type": "address"
        },
        {
          "internalType": "address",
          "name": "_who",
          "type": "address"
        }
      ],
      "name": "viewAvailableBalance",
      "outputs": [
        {
          "internalType": "uint256",
          "name": "",
          "type": "uint256"
        }
      ],
      "stateMutability": "view",
      "type": "function"
    },
    {
      "inputs": [
        {
          "internalType": "address",
          "name": "_token",
          "type": "address"
        },
        {
          "internalType": "address",
          "name": "_who",
          "type": "address"
        }
      ],
      "name": "viewUserTokenBalance",
      "outputs": [
        {
          "internalType": "uint256",
          "name": "deposited",
          "type": "uint256"
        },
        {
          "internalType": "uint256",
          "name": "allocated",
          "type": "uint256"
        }
      ],
      "stateMutability": "view",
      "type": "function"
    },
    {
      "inputs": [
        {
          "internalType": "address",
          "name": "_token",
          "type": "address"
        },
        {
          "internalType": "address",
          "name": "_sender",
          "type": "address"
        },
        {
          "internalType": "address",
          "name": "_recipient",
          "type": "address"
        },
        {
          "internalType": "uint256",
          "name": "_amount",
          "type": "uint256"
        }
      ],
      "name": "withdraw",
      "outputs": [],
      "stateMutability": "nonpayable",
      "type": "function"
    }
  ],
  "bytecode": "0x60806040523480156200001157600080fd5b50604080516d2a2922a0a9aaa92cafa0a226a4a760911b8152905190819003600e0190206200004a90336001600160e01b03620000aa16565b60408051702a2922a0a9aaa92cafa7a822a920aa27a960791b815281519081900360110181206d2a2922a0a9aaa92cafa0a226a4a760911b8252915190819003600e019020620000a491906001600160e01b03620000c316565b62000234565b620000bf82826001600160e01b036200011516565b5050565b600082815260208190526040808220600201549051839285917fbd79b86ffe0ab8e8776151514217cd7cacd52c909f66475c3af44e129f0b00ff9190a460009182526020829052604090912060020155565b6000828152602081815260409091206200013a91839062000f5c62000197821b17901c565b15620000bf57620001536001600160e01b03620001c016565b6001600160a01b0316816001600160a01b0316837f2f8788117e7eff1d82e926ec794901d17c78024a50270940304540a733656f0d60405160405180910390a45050565b6000620001b7836001600160a01b0384166001600160e01b03620001c416565b90505b92915050565b3390565b6000620001db83836001600160e01b036200021c16565b6200021357508154600181810184556000848152602080822090930184905584548482528286019093526040902091909155620001ba565b506000620001ba565b60009081526001919091016020526040902054151590565b6115ba80620002446000396000f3fe608060405234801561001057600080fd5b50600436106101215760003560e01c8063769ac726116100ad578063a217fddf11610071578063a217fddf146103a3578063b78cd652146103ab578063c7e293d914610489578063ca15c873146104bf578063d547741f146104dc57610121565b8063769ac726146102995780638a702970146102a15780638d235229146102dd5780639010d07c1461032457806391d148541461036357610121565b806333c51e73116100f457806333c51e73146101c757806336568abe146101ed57806347e7ef24146102195780636e9c0e191461024557806374ba7d061461026b57610121565b80630b620b811461012657806314f25c6514610164578063248a9ca31461017e5780632f2ff15d1461019b575b600080fd5b6101626004803603608081101561013c57600080fd5b506001600160a01b03813581169160208101358216916040820135169060600135610508565b005b61016c610682565b60408051918252519081900360200190f35b61016c6004803603602081101561019457600080fd5b50356106ab565b610162600480360360408110156101b157600080fd5b50803590602001356001600160a01b03166106c0565b610162600480360360208110156101dd57600080fd5b50356001600160a01b031661072c565b6101626004803603604081101561020357600080fd5b50803590602001356001600160a01b03166107d2565b6101626004803603604081101561022f57600080fd5b506001600160a01b038135169060200135610833565b6101626004803603602081101561025b57600080fd5b50356001600160a01b03166108c3565b61016c6004803603604081101561028157600080fd5b506001600160a01b0381358116916020013516610958565b61016c610998565b610162600480360360808110156102b757600080fd5b506001600160a01b038135811691602081013582169160408201351690606001356109be565b61030b600480360360408110156102f357600080fd5b506001600160a01b0381358116916020013516610ae4565b6040805192835260208301919091528051918290030190f35b6103476004803603604081101561033a57600080fd5b5080359060200135610b18565b604080516001600160a01b039092168252519081900360200190f35b61038f6004803603604081101561037957600080fd5b50803590602001356001600160a01b0316610b36565b604080519115158252519081900360200190f35b61016c610b54565b610162600480360360e08110156103c157600080fd5b6001600160a01b03823581169260208101359091169160408201359160608101359181019060a08101608082013564010000000081111561040157600080fd5b82018360208201111561041357600080fd5b8035906020019184602083028401116401000000008311171561043557600080fd5b919080806020026020016040519081016040528093929190818152602001838360200280828437600092019190915250929550506001600160a01b038335811694506020909301359092169150610b599050565b6101626004803603606081101561049f57600080fd5b506001600160a01b03813581169160208101359091169060400135610da2565b61016c600480360360208110156104d557600080fd5b5035610eec565b610162600480360360408110156104f257600080fd5b50803590602001356001600160a01b0316610f03565b60408051702a2922a0a9aaa92cafa7a822a920aa27a960791b815290519081900360110190206105389033610b36565b610581576040805162461bcd60e51b81526020600482015260156024820152742737ba102a3932b0b9bab93c9027b832b930ba37b960591b604482015290519081900360640190fd5b8383828061058f8484610958565b10156105e2576040805162461bcd60e51b815260206004820181905260248201527f496e73756666696369656e742062616c616e636520746f207769746864726177604482015290519081900360640190fd5b6105ed878786610f71565b866001600160a01b031663a9059cbb86866040518363ffffffff1660e01b815260040180836001600160a01b03166001600160a01b0316815260200182815260200192505050602060405180830381600087803b15801561064d57600080fd5b505af1158015610661573d6000803e3d6000fd5b505050506040513d602081101561067757600080fd5b505050505050505050565b60408051702a2922a0a9aaa92cafa7a822a920aa27a960791b8152905190819003601101902081565b60009081526020819052604090206002015490565b6000828152602081905260409020600201546106e3906106de610fd5565b610b36565b61071e5760405162461bcd60e51b815260040180806020018281038252602f8152602001806114f7602f913960400191505060405180910390fd5b6107288282610fd9565b5050565b604080516d2a2922a0a9aaa92cafa0a226a4a760911b8152905190819003600e0190206107599033610b36565b61079f576040805162461bcd60e51b81526020600482015260126024820152712737ba102a3932b0b9bab93c9020b236b4b760711b604482015290519081900360640190fd5b60408051702a2922a0a9aaa92cafa7a822a920aa27a960791b815290519081900360110190206107cf90826106c0565b50565b6107da610fd5565b6001600160a01b0316816001600160a01b0316146108295760405162461bcd60e51b815260040180806020018281038252602f815260200180611556602f913960400191505060405180910390fd5b6107288282611048565b61083e8233836110b7565b604080516323b872dd60e01b81523360048201523060248201526044810183905290516001600160a01b038416916323b872dd9160648083019260209291908290030181600087803b15801561089357600080fd5b505af11580156108a7573d6000803e3d6000fd5b505050506040513d60208110156108bd57600080fd5b50505050565b604080516d2a2922a0a9aaa92cafa0a226a4a760911b8152905190819003600e0190206108f09033610b36565b610936576040805162461bcd60e51b81526020600482015260126024820152712737ba102a3932b0b9bab93c9020b236b4b760711b604482015290519081900360640190fd5b600180546001600160a01b0319166001600160a01b0392909216919091179055565b6001600160a01b03818116600090815260026020908152604080832093861683529290529081206001810154905461098f916110ed565b90505b92915050565b604080516d2a2922a0a9aaa92cafa0a226a4a760911b8152905190819003600e01902081565b60408051702a2922a0a9aaa92cafa7a822a920aa27a960791b815290519081900360110190206109ee9033610b36565b610a37576040805162461bcd60e51b81526020600482015260156024820152742737ba102a3932b0b9bab93c9027b832b930ba37b960591b604482015290519081900360640190fd5b6001600160a01b03808416600090815260026020908152604080832093881683529290522060010154849084908390811115610aba576040805162461bcd60e51b815260206004820152601e60248201527f496e73756666696369656e7420616c6c6f63617465642062616c616e63650000604482015290519081900360640190fd5b610ac5878786610f71565b610ad08786866110b7565b610adb87878661112f565b50505050505050565b6001600160a01b03908116600090815260026020908152604080832094909316825292909252902080546001909101549091565b600082815260208190526040812061098f908363ffffffff61121216565b600082815260208190526040812061098f908363ffffffff61121e16565b600081565b60408051702a2922a0a9aaa92cafa7a822a920aa27a960791b81529051908190036011019020610b899033610b36565b610bd2576040805162461bcd60e51b81526020600482015260156024820152742737ba102a3932b0b9bab93c9027b832b930ba37b960591b604482015290519081900360640190fd5b86828680610be08484610958565b1015610c33576040805162461bcd60e51b815260206004820181905260248201527f496e73756666696369656e742062616c616e636520746f207769746864726177604482015290519081900360640190fd5b610c3e8a868a610f71565b6001546040805163a9059cbb60e01b81526001600160a01b039283166004820152602481018b90529051918c169163a9059cbb916044808201926020929091908290030181600087803b158015610c9457600080fd5b505af1158015610ca8573d6000803e3d6000fd5b505050506040513d6020811015610cbe57600080fd5b505060015460405163e554dd1560e01b81526001600160a01b038c8116600483019081528c82166024840152604483018c9052606483018b905287821660a484015260c0608484019081528a5160c48501528a51929094169363e554dd15938f938f938f938f938f938e93929160e401906020868101910280838360005b83811015610d54578181015183820152602001610d3c565b50505050905001975050505050505050600060405180830381600087803b158015610d7e57600080fd5b505af1158015610d92573d6000803e3d6000fd5b5050505050505050505050505050565b82828280610db08484610958565b1015610e03576040805162461bcd60e51b815260206004820181905260248201527f496e73756666696369656e742062616c616e636520746f207769746864726177604482015290519081900360640190fd5b60408051702a2922a0a9aaa92cafa7a822a920aa27a960791b81529051908190036011019020610e339033610b36565b610e7c576040805162461bcd60e51b81526020600482015260156024820152742737ba102a3932b0b9bab93c9027b832b930ba37b960591b604482015290519081900360640190fd5b6001600160a01b038086166000908152600260209081526040808320938a1683529290522060010154610eb5908563ffffffff61123316565b6001600160a01b03958616600090815260026020908152604080832099909816825297909752949095206001019390935550505050565b60008181526020819052604081206109929061128d565b600082815260208190526040902060020154610f21906106de610fd5565b6108295760405162461bcd60e51b81526004018080602001828103825260308152602001806115266030913960400191505060405180910390fd5b600061098f836001600160a01b038416611298565b6001600160a01b03808316600090815260026020908152604080832093871683529290522054610fa7908263ffffffff6110ed16565b6001600160a01b03928316600090815260026020908152604080832096909516825294909452919092205550565b3390565b6000828152602081905260409020610ff7908263ffffffff610f5c16565b1561072857611004610fd5565b6001600160a01b0316816001600160a01b0316837f2f8788117e7eff1d82e926ec794901d17c78024a50270940304540a733656f0d60405160405180910390a45050565b6000828152602081905260409020611066908263ffffffff6112e216565b1561072857611073610fd5565b6001600160a01b0316816001600160a01b0316837ff6391f5c32d9c69d2a47ea670b442974b53935d1edc7fd64eb21e047a839171b60405160405180910390a45050565b6001600160a01b03808316600090815260026020908152604080832093871683529290522054610fa7908263ffffffff61123316565b600061098f83836040518060400160405280601e81526020017f536166654d6174683a207375627472616374696f6e206f766572666c6f7700008152506112f7565b60408051702a2922a0a9aaa92cafa7a822a920aa27a960791b8152905190819003601101902061115f9033610b36565b6111a8576040805162461bcd60e51b81526020600482015260156024820152742737ba102a3932b0b9bab93c9027b832b930ba37b960591b604482015290519081900360640190fd5b6001600160a01b038083166000908152600260209081526040808320938716835292905220600101546111e1908263ffffffff6110ed16565b6001600160a01b03928316600090815260026020908152604080832096909516825294909452919092206001015550565b600061098f838361138e565b600061098f836001600160a01b0384166113f2565b60008282018381101561098f576040805162461bcd60e51b815260206004820152601b60248201527f536166654d6174683a206164646974696f6e206f766572666c6f770000000000604482015290519081900360640190fd5b60006109928261140a565b60006112a483836113f2565b6112da57508154600181810184556000848152602080822090930184905584548482528286019093526040902091909155610992565b506000610992565b600061098f836001600160a01b03841661140e565b600081848411156113865760405162461bcd60e51b81526004018080602001828103825283818151815260200191508051906020019080838360005b8381101561134b578181015183820152602001611333565b50505050905090810190601f1680156113785780820380516001836020036101000a031916815260200191505b509250505060405180910390fd5b505050900390565b815460009082106113d05760405162461bcd60e51b81526004018080602001828103825260228152602001806114d56022913960400191505060405180910390fd5b8260000182815481106113df57fe5b9060005260206000200154905092915050565b60009081526001919091016020526040902054151590565b5490565b600081815260018301602052604081205480156114ca578354600019808301919081019060009087908390811061144157fe5b906000526020600020015490508087600001848154811061145e57fe5b60009182526020808320909101929092558281526001898101909252604090209084019055865487908061148e57fe5b60019003818190600052602060002001600090559055866001016000878152602001908152602001600020600090556001945050505050610992565b600091505061099256fe456e756d657261626c655365743a20696e646578206f7574206f6620626f756e6473416363657373436f6e74726f6c3a2073656e646572206d75737420626520616e2061646d696e20746f206772616e74416363657373436f6e74726f6c3a2073656e646572206d75737420626520616e2061646d696e20746f207265766f6b65416363657373436f6e74726f6c3a2063616e206f6e6c792072656e6f756e636520726f6c657320666f722073656c66a2646970667358221220a8fe1b006bc9bcd57a18c692eaaeb08ade02c1982081689d131138b11e486b3364736f6c63430006080033",
  "linkReferences": {},
  "deployedLinkReferences": {}
}